:020000040800F2
:10000000502E002051010008C5270008B92600081D
:1000100000000000000000000000000000000000E0
:10002000000000000000000000000000752800082B
:1000300000000000000000000F0100087728000801
:100040006301000863010008630100086301000800
:1000500063010008630100086301000863010008F0
:1000600063010008630100086301000863010008E0
:1000700063010008630100086301000863010008D0
:1000800063010008630100086301000863010008C0
:1000900063010008630100086301000863010008B0
:1000A00063010008630100086301000863010008A0
:1000B00063010008A138000863010008630100081B
:1000C0000448854600F02EF900480047613A0008D0
:1000D000C046C046502E0020084B196808682030E2
:1000E00080F30988022080F31488BFF36F8F3FBC30
:1000F000AE4608BC04BC62B61847000014000020DD
:10010000EFF3108072B6704780F310887047EFF3FA
:1001100009800E4B1A6820381060F0C044464D46E6
:1001200056465F46F0C008B572B604F0E9F962B60B
:100130000CBC116808681030F0C8A046A946B24649
:10014000BB4680F309882038F0C818471400002007
:100150000448804704480047FEE7FEE7FEE7FEE765
:10016000FEE7FEE7E5280008C100000830B50B46B1
:10017000014600202022012409E00D46D5409D4281
:1001800005D31D469540491B254695404019154607
:10019000521E002DF1DC30BD70B50024254600282C
:1001A00001DA01244042002901DA01254942FFF722
:1001B000DDFFAC4200D04042002C00D0494270BD6F
:1001C000F0B51FB40646002082B0054640240191D8
:1001D00000901BE0019922460F46304600F091F84E
:1001E000049A059B801A994110D31046194622465D
:1001F00000F077F8361A8F4101972246012000213E
:10020000009F00F06EF838184D4100902046641EA3
:100210000028DFDC019B00982946324607B0F0BD7C
:10022000F0B51FB486B000200090019002900698AF
:10023000069980B204900798090C02040014114337
:1002400007900027089D099806913E463C4603907A
:100250000398A9B20204000C039004982D0C1543D6
:1002600048430021224600F03CF8C7197141103480
:100270000E46402CECDB3846029A00F032F8009A29
:10028000019B801800905941029801911030029012
:100290004028CCDB00980BB0F0BD03460B439B0716
:1002A00003D009E008C9121F08C0042AFAD203E0EB
:1002B0000B780370401C491C521EF9D27047D2B211
:1002C00001E00270401C491EFBD270470022F6E795
:1002D00010B513460A4604461946FFF7F0FF2046BC
:1002E00010BD10B5202A04DB0146203A91400020C1
:1002F00010BD914020239C1A0346E34019439040CF
:1003000010BD10B5202A04DB0846203AD040002159
:1003100010BD0B46D340D0402024A21A9140084380
:10032000194610BD064C0125064E05E0E36807CCD2
:100330002B430C3C98471034B442F7D3FFF7C4FE6C
:10034000C44F0008E44F000872B600BFFEE7014644
:10035000002901D1012070472520405C022808D0E7
:100360000420C86300BF00222420425400BF0120A3
:10037000F1E7086800680E2290430A681060886CF4
:100380000068FF22013290438A6C106008680068A0
:10039000400840000A6810601C22486C104001228E
:1003A0008240086C4260CA6C086D5060486D00283D
:1003B00009D0486D0068FF22013290434A6D1060F9
:1003C0008A6DC86D506001222520425400BF002272
:1003D0002420425400BF0020BDE770B5044600252C
:1003E0002520005D022803D00420E063012537E0CA
:1003F000206800680E218843216808602068006832
:100400004008400021680860A06C0068FF210131AD
:100410008843A16C08601C21606C08400121814068
:10042000206C4160E16C206D4860606D002809D04F
:10043000606D0068FF2101318843616D0860A16D26
:10044000E06D486001212520015500BF00212420D6
:10045000015500BFA06B002802D02046A16B884741
:10046000284670BD70B502460B460021E1E001262A
:100470008E401C683440002C73D01D79AD07AD0F41
:10048000012D04D01D79AD07AD0F022D18D1906854
:100490004E000325B5400646AE4330464E00DD68AB
:1004A000B54028439060506801258D400646AE4314
:1004B000304610265D6835402D098D402843506038
:1004C0001D79AD07AD0F032D0BD0D0684E0003256D
:1004D000B5400646AE4330464E009D68B5402843C1
:1004E000D0601D79AD07AD0F022D15D1CD08AE003E
:1004F00015462035A8594D07EE0E0F25B540064686
:10050000AE4330464E07F60E1D69B5402843CD0870
:10051000AD0016462036705110684E000325B540D8
:100520000646AE4330461D79AD07AD0F4E00B540CF
:1005300028431060032636045D683540002D77D0CF
:100540003F4D8E08B600A8598D07EE0E0F25B54019
:100550000646AE43304605252D07AA4202D10025A6
:100560001AE065E0374DAA4201D1012514E0364D6D
:10057000AA4201D102250FE0344DAA4201D1032540
:100580000AE0334DAA4201D1042505E0314DAA42CB
:1005900001D1052500E006258E07F60EB54028435B
:1005A000274D8E08B600A851254D603D28680546A8
:1005B000A5432846012636055D683540002D02D04A
:1005C0000546254328461E4D603D2860686805465F
:1005D000A5432846012676055D683540002D02D0EA
:1005E000054625432846164D603D6860144D20356C
:1005F00068680546A5432846012676045D683540AF
:10060000002D02D00546254328460D4D2035686053
:1006100028680546A5432846012636045D6835400E
:10062000002D02D0054625432846054D203528607B
:10063000491C1D68CD40002D00D018E770BD00009A
:10064000601802400004005000080050000C0050E8
:10065000001000500014005010B5426913460B40C2
:100660001B040C4694432343836110BD002A01D030
:10067000816100E0816270470148006870470000B6
:100680000400002003480068034909684018014934
:1006900008607047040000200C00002010B5002402
:1006A000032000F009F8002801D0012401E000F047
:1006B00033F8204610BD0000F8B504460025134865
:1006C000006800281ED0114801687D20C000FFF797
:1006D0004DFD074639460E480068FFF747FD0646C0
:1006E00001F0A0FB00280BD1042C07D200222146E8
:1006F000401E00F045F80748046004E0012502E0D0
:10070000012500E001252846F8BD00000C0000206E
:10071000100000200800002008B500BF0E488069C6
:100720000121090708430C49886108468069890549
:100730000840009000BF00BF00BF0748006A0121C9
:100740000843054908620846006AC007C00F0090C8
:1007500000BF00BF08BD0000401002400146002954
:1007600009DB00BF00BFCB06DB0E01229A40034B22
:100770001A6000BF00BF00BF7047000000E100E04A
:1007800070B504460D4616462946204603F090F8FB
:1007900070BD000070B505460120400285422CD195
:1007A000204800680321490208402946884237D082
:1007B0001C48006803214902884340191949086010
:1007C000194909683222514308461849FFF7CEFCFF
:1007D000441C00E0641E134840690121890208405E
:1007E000884201D1002CF5D10E48406901218902CF
:1007F0000840884214D1032070BD0A4800680321D4
:100800004902084001218902884209D00548006850
:1008100003214902884301218902401801490860E7
:100820000020E9E7007000401000002040420F0067
:1008300002480068032149020840704700700040E8
:10084000FEB504464648C0687F2109020840060AF2
:100850004348C0688007800F01904148C0687021FC
:1008600008400009401C00903D48006808210840ED
:10087000002804D03A480068F021084006E03848D3
:10088000803040690F2109020840000907090B2F39
:1008900000D90B27019801280BD0022802D0032889
:1008A00017D10FE02F480099FFF760FC7043054611
:1008B00018E0B9002C4A50580099FFF757FC7043D4
:1008C00005460FE029480099FFF750FC70430546A4
:1008D00008E0B900244A50580099FFF747FC7043DC
:1008E000054600BF00BF1E48C0680121090408403A
:1008F00000280BD01A48C0681F2252041040400C38
:10090000411C2846FFF732FC206001E000202060F7
:100910001348C06801210906084000280BD0104880
:10092000C068072252061040400E411C2846FFF7BF
:100930001DFC606001E0002060600948C068012182
:1009400009070840002808D00548C068400F411C2E
:100950002846FFF70BFCA06001E00020A060FEBD70
:10096000001002400024F400944F000800093D00EC
:10097000FEB5064600270120C003864236D1FC485A
:100980000469032109020C40E01FF938002808D04F
:10099000FF38013800280CD0FF380138002823D157
:1009A00018E0F348006902210840022800D18703BB
:1009B0001BE0EF48406902210840022809D1EC48B9
:1009C000406904210840042801D1FA2701E07D276D
:1009D0003F020AE0E64880380068012149040840E7
:1009E000884200D1E34F00E000BF29E3FF2101313D
:1009F000701A8E4272D012DC102E70D008DC012EDC
:100A000031D0022E59D0042E6AD0082E69D1BCE014
:100A1000202E67D0402E74D0802EF7D183E11F2284
:100A20001202811A90426DD010DCFF380138002884
:100A300069D0FF38FF380238002870D001218902C0
:100A4000401A6DD04900401AE0D175E20120400300
:100A5000081A7CD003218903401A62D001210904BD
:100A6000401AD3D15EE0C24880688407A40F002CEE
:100A700006D0012C08D0022C0AD0032C1AD111E088
:100A800000F08AFD074616E000F09AFD074612E0E6
:100A9000B74880380068012189020840884200D1A7
:100AA000B54F08E0B248006902210840022800D191
:100AB000870300E000BF00BFC1E2AD4884680C219D
:100AC0000C40002C06D0042C0DD0082C0FD00C2C80
:100AD00022D119E000F060FD07461EE066E125E046
:100AE00084E0ABE2D6E000F06BFD074615E0A048DD
:100AF00080380068012189020840884200D19E4F59
:100B00000BE0EBE059E290E19948006902210840CE
:100B1000022800D1870300E000BF00BF8FE2C3E1DD
:100B2000E6E100BF00F038FD074688E2904884689F
:100B3000032189020C40002C0AD00015201A0BD08A
:100B400001218902401A0BD0401A1BD112E077E034
:100B500000F022FD074616E000F032FD074612E0E5
:100B6000834880380068012189020840884200D10A
:100B7000814F08E07E48006902210840022800D128
:100B8000870300E000BF00BF59E279488468032171
:100B900009020C40002C0CD0E01FF93800280CD0C2
:100BA000FF38013800280CD0FF38013800281AD14E
:100BB00011E000F0F1FC074616E000F001FD0746E9
:100BC00012E06B48803800680121890208408842A1
:100BD00000D1694F08E066480069022108400228F8
:100BE00000D1870300E000BF00BF28E260488468AE
:100BF000C0210C40002C06D0402C08D0802C0AD0FC
:100C0000C02C1AD111E000F0C7FC074616E000F036
:100C1000D7FC074612E05648803800680121890257
:100C20000840884200D1544F08E051480069022131
:100C30000840022800D1870300E000BF00BFFEE1AA
:100C40004B488468032109070C40002C0AD00F2070
:100C500000072018002815D00F2109074018002888
:100C600015D103E000F0ACFC074611E040488038A5
:100C70000068012189020840884201D13E4F00E00E
:100C8000002705E06846FFF7DBFD009F00E000BF9E
:100C900000BFD4E136488468032109030C40002CCE
:100CA00007D08014201A08D001210903401A12D15C
:100CB00007E000F071FC07460EE000F081FC0746FB
:100CC0000AE02B48803800680121890208408842E8
:100CD00000D1294F00E000BF00BFB0E12448846884
:100CE000032109040C40002C08D001200004201A24
:100CF00008D001210904401A12D107E000F04CFC91
:100D000007460EE000F05CFC07460AE01848803811
:100D10000068012189020840884200D1164F00E096
:100D200000BF00BF8BE112488468032189040C4096
:100D3000002C0AD001208004201A0AD00121890445
:100D4000401A1ED0401A2ED124E000F025FC0746A0
:100D50002AE00748406902210840022810D10448CF
:100D6000406904210840042808D1FA2708E000005F
:100D70008010024048E801000024F4007D273F0273
:100D800012E0B0480068012189020840884200D181
:100D9000AD4F09E0AB4880300069022108400228CD
:100DA00000D1870300E000BF00BF48E1A5488030C4
:100DB0008468032109050C40002C0AD0012000059D
:100DC000201A0AD001210905401A19D0401A29D148
:100DD0001FE000F0E1FB074625E09A4880304069BB
:100DE0000221084002280AD1964880304069042137
:100DF0000840042801D1FA2701E07D273F0212E0D4
:100E000090480068012189020840884200D18E4F35
:100E100009E08C488030006902210840022800D196
:100E2000870300E000BF00BF09E186488030846886
:100E3000032189050C40002C0AD001208005201ACE
:100E40000AD001218905401A19D0401A29D11FE082
:100E500000F0A2FB074625E07A4880304069022175
:100E6000084002280AD177488030406904210840B0
:100E7000042801D1FA2701E07D273F0212E07148E2
:100E80000068012189020840884200D16E4F09E0C4
:100E90006C488030006902210840022800D1870395
:100EA00000E000BF00BFCAE06648803084680121CE
:100EB00009060C40002C04D048422018002814D108
:100EC0000EE060488068072109030840002803D12C
:100ED00000F062FB074602E000F05EFB470005E021
:100EE0006846FFF7ADFC019F00E000BF00BFA6E031
:100EF000544880308468012149060C40002C04D0FD
:100F000048422018002814D10EE04E48806807217E
:100F100009030840002803D100F03EFB074602E029
:100F200000F03AFB470005E06846FFF789FC019FA7
:100F300000E000BF00BF82E04248803084680321A7
:100F400089060C40002C33D03F2080062018002852
:100F500009D03F2189064018002824D040180028D5
:100F600028D13A4F27E0374800680221084002287C
:100F700018D13448006808210840002804D03148BE
:100F80000068F021084006E02E48803040690F21BB
:100F900009020840000905090B2D00D90B25A800FE
:100FA0002B490F5807E06846FFF74AFC019F02E013
:100FB000002700E000BF00BF41E022488030846885
:100FC000032189060C40002C33D03F2080062018D6
:100FD000002809D03F2189064018002824D0401855
:100FE000002828D1194F27E0164800680221084040
:100FF000022818D11348006808210840002804D0AE
:1010000010480068F021084006E00E488030406932
:101010000F2109020840000905090B2D00D90B25F5
:10102000A8000B490F5807E06846FFF709FC019F2D
:1010300002E0002700E000BF00BF00E000BF00BFEB
:101040003846FEBD001002400024F400006CDC02B3
:10105000944F0008FEB504460027002002900121AD
:10106000C9032068084088427BD100200190DD48F8
:1010700080694903084000280ED100BFD948806923
:101080000843D8498861084680698905084000906E
:1010900000BF00BF01200190D3480068FF2101314B
:1010A0000843D1490860FFF7E7FA064606E0FFF774
:1010B000E3FA801B022801D9032706E0CA4800682A
:1010C000FF21013108400028F1D000BF002F4BD193
:1010D000C44840300569032109020D40002D1AD093
:1010E000206CA84217D0BF484030006988430546AD
:1010F000BC4840300069012109040843B949403126
:10110000086108460069012109048843B549403156
:10111000086108460561E807C00F002813D0FFF7F3
:10112000ABFA064607E0FFF7A7FA801BAF498842F3
:1011300001D9032706E0AB4840300069022108408E
:101140000028F0D000BF002F0CD1A6484030006925
:10115000032109028843216C0843A24940310861F8
:1011600003E00DE0029700E002970198012806D104
:101170009C4880690121090788439A49886100BF1A
:101180002078C007C00F002809D0964840308068FA
:1011900080088000616808439249403188600221DC
:1011A00020680840022809D18E48403080680C2110
:1011B0008843A16808438B4940318860102120682A
:1011C000084010280AD187484030806803218902EE
:1011D0008843616908438349403188600821206859
:1011E000084008280AD17F4840308068032109025E
:1011F0008843216908437B49403188600421206885
:101200000840042809D1774840308068C0218843CD
:10121000E168084373494031886020212068084014
:1012200020280AD16F484030806803210903884391
:10123000A16908436B49403188604021206808401B
:1012400040280AD167484030806803210904884358
:10125000E169084363494031886080212068084083
:1012600080280AD15F484030806803218904884380
:10127000216A08435B4940318860FF2101312068C1
:10128000084088420AD15748403080680321090548
:101290008843616A0843534940318860012149020B
:1012A0002068084088420AD14E48403080680321B7
:1012B00089058843A16A08434A4940318860012171
:1012C000890320680840884216D18903E06B884270
:1012D00007D144484038C0680913084341494039A0
:1012E000C860404840308068032109078843E16BAB
:1012F00008433C49403188600121090320680840C7
:10130000884216D1C903606B884207D135484038FE
:10131000C068C910084333494039C860314840307B
:101320008068032189068843616B08432D49403159
:1013300088600121490320680840884216D189034A
:10134000A06B884207D127484038C068C9100843BD
:1013500024494039C8602348403080680321890609
:101360008843A16B08431F494031886001218902ED
:1013700020680840884215D18903E06A884206D176
:1013800018484038C068084316494039C8601548B5
:1013900040308068012109068843E16A0843114909
:1013A000403188600121C90220680840884216D176
:1013B0008903206B884207D10A484038C068491029
:1013C000084308494039C860064840308068012118
:1013D00009068843216B084302494031886002981E
:1013E000FEBD000040100240007000408813000065
:1013F000F8B504460D46604800684007400FA84213
:101400000ED25D480068C008C00028435A490860F1
:10141000084600684007400FA84201D00120F8BDEF
:101420002078C007C00F00285FD06068032808D16B
:1014300052480068012149060840002839D101209E
:10144000EDE76068022808D14C4800680121490492
:10145000084000282DD10120E1E76068002807D16D
:101460004648006802210840002822D10120D6E722
:101470006068012808D141480068012189020840BC
:10148000002816D10120CAE76068042808D13B482B
:10149000803040690221084000280AD10120BEE7BF
:1014A00036488030006902210840002801D101201F
:1014B000B5E732488068C008C000616808432F491A
:1014C0008860FFF7D9F8064607E0FFF7D5F8801BDC
:1014D0002B49884201D90320A1E728488068382198
:1014E00008406168C9008842EFD1022120680840A5
:1014F000022808D1214880680F2109028843A16889
:1015000008431E4988601C4800684007400FA842F5
:101510000ED919480068C008C00028431649086061
:10152000084600684007400FA84201D0012076E736
:10153000042120680840042808D110488068072149
:1015400009038843E16808430C49886000F038F8D3
:101550000A4989680F2212021140090A094A515C9E
:10156000C906C90EC840084908600320FFF7A4F85F
:101570000746384653E700000020024000100240B2
:10158000881300007B4F000810000020014800680D
:10159000704700001000002000B5FFF7F7FF064974
:1015A0008968072212031140090B044A515CC906DD
:1015B000C90EC84000BD0000001002408B4F00085B
:1015C000F0B585B00025002004903C4880683821A3
:1015D000084004463948C0688007800F0090002CFE
:1015E00004D0182C1FD1009801281CD13348006862
:1015F00008210840002807D13048803040690F2179
:1016000009020840050A04E02C480068F02108405F
:1016100005090B2D00D90025A80029490D58002CDB
:1016200016D1049514E0082C02D1264804900FE04E
:10163000102C02D1244804900AE0202C03D17D20F4
:101640000002049004E0282C02D10120C003049081
:10165000182C2FD11948C0688707BF0F1748C068DA
:10166000702108400009401C0190012F09D0022F71
:1016700002D0032F04D101E0124E04E0124E02E02A
:1016800000BF2E4600BF00BF0C49C9687F2212026E
:101690001140090A714308460199FEF767FD03905E
:1016A0000648C068400F401C029002990398FEF75C
:1016B0005DFD0490049805B0F0BD000000100240EC
:1016C000944F00080024F40000093D00FEB50446D4
:1016D000F7488068382108400646F548C06880070A
:1016E000800F029010212068084010287DD1002E24
:1016F00004D0182E7AD1029801287FD1EC480068D6
:1017000002210840002804D0E069002801D101200E
:10171000FEBDE748616A006808221040002804D036
:10172000E3480068F022104006E0E148803040695C
:101730000F22120210400009814221D9606A01F093
:1017400043F8002801D00120E2E700BFD848006834
:1017500008210843D649086008460068F0218843FC
:10176000616A0843D249086000BF08464068FF210B
:1017700009028843216A09020843CD49486022E0F2
:1017800000BFCB48006808210843C94908600846E3
:101790000068F0218843616A0843C549086000BFBA
:1017A00008464068FF2109028843216A090208436C
:1017B000BF494860002E06D1606A01F005F8002894
:1017C00001D00120A4E7FFF7FBFEB94989680F2289
:1017D00012021140090AB74A515CC906C90EC84035
:1017E000B5490860B548006801E03BE006E0FEF757
:1017F00063FF0746002F4DD0384689E7E06900288F
:1018000031D0AB48006801210843A9490860FEF7C0
:1018100033FF054606E0FEF72FFF401B022801D9E3
:10182000032075E7A2480068022108400028F2D092
:1018300000BF9F480068082108439D49086008468A
:101840000068F0218843616A08439949086000BF35
:1018500008464068FF2109028843216A09020843BB
:101860009349486016E0924800684008400090495B
:101870000860FEF701FF054606E0FEF7FDFE401B8F
:10188000022801D9032043E7894800680221084063
:101890000028F2D12078C007C00F002859D0102EA0
:1018A00004D0182E0ED1029803280BD1804800686E
:1018B00001214904084000284BD06068002848D125
:1018C000012025E700BF012109046068884205D195
:1018D0007748006808437649086011E0052109044B
:1018E0006068884205D17248006808437049086002
:1018F00006E06F4800680521090488436C490860C8
:1019000000BF6068002812D0FEF7B6FE054606E06C
:10191000FEF7B2FE401B642801D90320F8E66448B4
:1019200000680121490408400028F1D011E0FEF7C9
:10193000A3FE054606E0FEF79FFE401B642801D982
:101940000320E5E65A4800680121490408400028C0
:10195000F1D102212068084002285DD1082E04D070
:10196000182E19D10298022816D151480068012179
:1019700089020840002804D0E068002801D1012035
:10198000C6E64B4840687F2109068843217C09064A
:101990000843474948603FE0E068002823D04448B6
:1019A0000068FF210131084341490860FEF764FEE9
:1019B000054606E0FEF760FE401B022801D9032021
:1019C000A6E63B4800680121890208400028F1D0C2
:1019D000374840687F2109068843217C090608436F
:1019E0003349486018E032480068FF2101318843DC
:1019F0002F490860FEF740FE054606E0FEF73CFE74
:101A0000401B022801D9032082E6294800680121F1
:101A1000890208400028F1D10821206808400828E0
:101A200055D1606900282FD0A069002808D120482E
:101A300080304069042188431D498031486107E0B6
:101A40001B488030406904210843194980314861AE
:101A500017488030406901210843154980314861A9
:101A6000FEF70AFE054606E0FEF706FE401B1128BB
:101A700001D903204CE60E4880304069022108401D
:101A800040080028F0D022E0094880304069400832
:101A90004000074980314861FEF7EEFD05460FE042
:101AA000FEF7EAFD401B11280AD9032030E60000AA
:101AB000001002407B4F00081000002008000020AA
:101AC000D44840690221084040080028E8D1042198
:101AD0002068084004286FD100200190CD4840388C
:101AE000806989060840002810D100BFC9484038E5
:101AF00080690843C749403988610846806989057B
:101B00000840009000BF00BF01200190C24800685B
:101B1000FF2101310840002816D1BF480068084362
:101B2000BD490860FEF7A8FD054606E0FEF7A4FDE6
:101B3000401B022801D90320EAE5B7480068FF21CD
:101B4000013108400028F1D0207AC007C00F0028DA
:101B500017D00421A068084000280BD0AD480069C8
:101B60000843AC4908610846006901210843A949B6
:101B7000086112E0A748006901210843A5490861EE
:101B80000BE0A448006940084000A24908610846EB
:101B90000069042188439F490861A068002844D057
:101BA000FEF76AFD054608E0FEF766FD401B9B490F
:101BB000884202D90320ABE571E096480069022112
:101BC00008400028F0D08021A0680840002815D0E7
:101BD0009048006908438F49086107E0FEF74CFD13
:101BE000401B8E49884201D9032091E5894800694C
:101BF0000121C90208400028F0D043E0854800696F
:101C0000802188438349086107E0FEF735FD401BCA
:101C10008249884201D903207AE57E480069012182
:101C2000C90208400028F0D12CE0FEF725FD05464A
:101C300007E0FEF721FD411B7848814201D90320CE
:101C400066E574480069022108400028F1D1714816
:101C5000006980210840002814D06E48006988433C
:101C60006C49086107E0FEF707FD401B6B4988429D
:101C700001D903204CE5674800690121C9020840E9
:101C80000028F0D10198012808D1624840388069C5
:101C90000121090788435F494039886100BF20213D
:101CA00020680840202831D1A06A002817D0594860
:101CB00080690121084357498861FEF7DDFC05462C
:101CC00006E0FEF7D9FC401B022801D903201FE5DE
:101CD00050488069022108400028F2D016E04D48A3
:101CE0008069400840004B498861FEF7C5FC054605
:101CF00006E0FEF7C1FC401B022801D9032007E5DE
:101D000044488069022108400028F2D1E06A002896
:101D10007DD040488038806838210840182874D029
:101D2000E06A022853D13B48803800680121090647
:101D30008843384980390860FEF79EFC054606E076
:101D4000FEF79AFC401B022801D90320E0E4314849
:101D5000803800680121490608400028F0D1616BF5
:101D6000206B0843A16B09020843216C0843616C96
:101D70000843E16B084327498039C968284A114064
:101D8000084324498039C8600846C06809040843EC
:101D900020498039C86008460068012109060843C7
:101DA0001C4980390860FEF767FC054606E0FEF72F
:101DB00063FC401B022801D90320A9E415488038A0
:101DC00000680121490608400028F0D01FE01148B2
:101DD000803800680121090688430E49803908606F
:101DE000FEF74AFC054606E0FEF746FC401B0228CB
:101DF00001D903208CE40748803800680121490696
:101E000008400028F0D102E0FFE7012080E4002034
:101E10007EE4000080100240007000408813000043
:101E20008C80C11170B504462546681E0949884258
:101E300001D901200CE0681E074948610321081FF1
:101E400001F036FD00200449886107200861002068
:101E500070BD0000FFFFFF0000E000E0014600BF92
:101E60008420405C012801D1022070470123842096
:101E7000435400BF24238820435008680268086840
:101E80000068400840000B68186001235B0710469B
:101E90009843024600204866086802602023882094
:101EA000435000BF00238420435400BF0020DCE7E0
:101EB0007047704770B504460D4600BF8420005D32
:101EC000012801D1022070BD01218420015500BFED
:101ED0002421882001512068066820680068400895
:101EE000400021680860206880680721490688430F
:101EF000284321688860204600F018FD20680660AD
:101F000020218820015100BF00218420015500BFFD
:101F10000020D8E770B504460D4600BF8420005D60
:101F2000012801D1022070BD01218420015500BF8C
:101F30002421882001512068066820680068400834
:101F400040002168086020688068C000C0082843FD
:101F500021688860204600F0E9FC206806602021A6
:101F60008820015100BF00218420015500BF0020BE
:101F7000D9E7704770477047F0B585B004462068D0
:101F8000C5692068066820688768FA482840039079
:101F90000398002814D120202840002810D02020A9
:101FA0003040002804D1012000073840002807D025
:101FB000606F002802D02046616F884705B0F0BDF1
:101FC000039800287ED0EC483840002803D1EB4825
:101FD00030400028F6D0E807C00F00280DD0FF20C1
:101FE00001303040002808D001202168086290208C
:101FF000005901210843902108510220284000285F
:102000000CD0F807C00F002808D002202168086211
:1020100090200059042108439021085104202840B1
:1020200000280CD0F807C00F002808D00420216831
:10203000086290200059022108439021085108208D
:102040002840002810D020203040002803D1CA4862
:102050003840002808D008202168086290200059E4
:1020600008210843902108510120C002284000287F
:102070000ED0012080063040002809D00120C00287
:1020800021680862902000592021084390210851BE
:102090009020005900285ED02020284000280ED033
:1020A00020203040002804D10120000738400028BB
:1020B00005D0606F002802D02046616F88479020CD
:1020C000005900E048E00290206880684021084004
:1020D000402804D0282102980840002835D0204606
:1020E00000F05EFD2068806840210840402828D12B
:1020F00000BF01F019FC0190012001F027FC2068CD
:1021000080684021884321688860019801F01EFCA6
:1021100000BF8020005900280FD099498020005925
:10212000816380210859FEF758F9002813D08022D6
:1021300010591259916B88470DE02046FFF71BFF9D
:1021400009E02046FFF717FF05E02046FFF713FFE1
:1021500000219020015131E7E06E01287ED110204E
:10216000284000287AD0102030400028FAD01020D3
:10217000216808622068806840210840402876D1A4
:10218000802000590068406880B2019001980028C2
:102190006CD05C20015B0198814267DD5E21019873
:1021A000085380200059006800682021084000285A
:1021B0004DD100BF01F0B8FB0090012001F0C6FB3B
:1021C00020680068FF210131884321680860009879
:1021D00001F0BCFB00BF00BF01F0A6FB0090012096
:1021E00001F0B4FB206880684008400021688860E6
:1021F000009801F0ABFB00BF00BF01F095FB009021
:10220000012001F0A3FB20688068402188432168F9
:102210008860009801F09AFB00BF20218C200151BA
:102220000020E06600BF01F07FFB0090012001F07C
:102230008DFB2068006810218843216808600098A1
:1022400001F084FB00BF80210859FEF780F80220CE
:1022500020675C20025B5E20005B02E057E006E046
:1022600004E0101A81B22046FFF722FEA6E65C20A9
:10227000015B5E20005B081A80B201905E20005B6B
:10228000002843D00198002840D000BF01F04CFB4B
:102290000090012001F05AFB20680068FF212131E5
:1022A000884321680860009801F050FB00BF00BF20
:1022B00001F03AFB0090012001F048FB20688068A3
:1022C0002D49C943084021688860009801F03EFB11
:1022D00000BF20218C2001510020E066606700BF14
:1022E00001F022FB0090012001F030FB2068006823
:1022F0001021884321680860009801F027FB00BF87
:102300000220206720460199FFF7D2FD56E6012002
:102310000005284000280CD0012080053840002806
:1023200007D001200005216808622046FFF722FE41
:1023300044E68020284000280FD08020304000282C
:1023400004D10120C0053840002806D0A06F002825
:1023500002D02046A16F884730E640202840002860
:1023600010D04020304000280CD0204600F05AFC0D
:1023700024E600000F080000010000102001000406
:10238000892B00080120C0052840002808D0012022
:1023900080073040002803D02046FFF7EAFD0DE615
:1023A000012000062840002807D0F00FC0070028B1
:1023B00003D02046FFF77DFD00E600BFFEE510B527
:1023C0000446002C01D1012010BDA069002800D0D6
:1023D00000E000BF88200059002805D1002184209A
:1023E0000155204600F02CF8242188200151206856
:1023F00000684008400021680860A06A002802D0F8
:10240000204600F0C7FA204600F0D6FF012800D190
:10241000DAE7206840680921C902884321684860DA
:10242000206880682A2188432168886020680068C5
:102430000121084321680860204600F023FBC3E720
:1024400010B598B00446142113A8FDF73FFF4421AE
:1024500002A8FDF73BFF2249206888423ED11020A8
:1024600002900020079002A8FEF7F4FD002801D09A
:10247000FDF76AFF00BF1B48806901210905084379
:1024800018498861084680690121090508400190C2
:1024900000BF00BF00BF1348C068042108431149B2
:1024A000C8600846C06804210840019000BF00BF12
:1024B0000320139002201490002015900320169002
:1024C0000820179013A90848FDF7CCFF002201212E
:1024D0001D20FEF755F91D20FEF740F918B010BD7C
:1024E000008000404010024000080050F8B504464B
:1024F0000D4616468C200059202840D1002D01D0D1
:10250000002E01D10120F8BD01210903A0688842F5
:1025100008D12069002805D1E807C00F002801D0A4
:102520000120F0E70020E06616492068884220D0AC
:102530001549206888421CD014492068884218D068
:10254000206840680121C9050840002811D000BF5B
:1025500001F0EAF90746012001F0F8F92068006867
:1025600001218906084321680860384601F0EEF928
:1025700000BF32462946204601F068F8C3E7022032
:10258000C1E700000080004000840040008C004053
:1025900010B5044607492068884205D1064B0A2237
:1025A0000649074800F00EF80A2204490448FFF7DC
:1025B0009DFF10BD00800040FFFF000014010020BF
:1025C00080000020FFB583B004460D4617468820E2
:1025D000005920286DD1002D01D0002F02D10120FB
:1025E00007B0F0BD01210903A068884208D1206925
:1025F000002805D1E807C00F002801D00120EFE72F
:10260000002190200151212188200151FEF734F84A
:102610000190542007535620075301210903A06855
:10262000884205D12069002802D10026029502E0E7
:102630002E460020029024E006980090002280217F
:102640002046019B01F0D2F8002804D020218820E8
:1026500001510320C4E7002E09D102980088C0056B
:10266000C00D216888620298801C029003E03078D7
:1026700021688862761C5620005B401E81B256207D
:1026800001535620005B0028D6D106980090002206
:1026900040212046019B01F0A9F8002804D0202108
:1026A0008820015103209BE7202188200151002030
:1026B00096E7022094E7704700BFFEE700B587B0B9
:1026C000142102A8FDF702FE00BF1C48C0680421C7
:1026D00008431A49C8600846C068042108400190B0
:1026E00000BF00BF00BF1548C0680121084313495F
:1026F000C8600846C068C007C00F019000BF00BF97
:102700000022202105200007FDF7B0FF0120400333
:10271000029000200390049002A90948FDF7A2FE50
:10272000202002900120039004900020059002A92F
:1027300005200007FDF796FE07B000BD40100240DF
:102740000008005010B51D481D490860E1204002F6
:10275000486000211A488160C16001610C2141611B
:10276000002181610162302015498862012109033D
:102770001348C163490001640020114948660846B6
:10278000FFF71DFE002801D0FDF7DEFD00210C48FB
:10279000FFF7C0FB002801D0FDF7D6FD0021084857
:1027A000FFF788FB002801D0FDF7CEFD0448FFF7B6
:1027B00055FB002801D0FDF7C7FD10BD008000408B
:1027C0008000002000BFFEE7F8B504460026274839
:1027D0008069012109070840002803D0FEF728F886
:1027E000054618E000BF2148806901210907084318
:1027F0001E4988610846806989050840009000BF2D
:1028000000BFFEF715F80546184880690121090741
:102810008843164988610120400285420BD1802CF3
:1028200012D9B02C01D902260EE0902C01D9012634
:102830000AE0002608E0802C01D3022604E0702C78
:1028400001D1012600E0002609480068C008C00048
:10285000304307490860084600684007400FB0420F
:1028600001D00120F8BD0020FCE70000401002402C
:1028700000200240704710B5FDF704FF01F09CFEF8
:1028800010BD00B597B04C2104A8FDF71FFD002036
:10289000009001900290039001204002FDF77AFF22
:1028A0001020049001200B9000200C90B0200D907F
:1028B00000200F9004A8FEF709FF002801D0FDF7C3
:1028C00043FD072000900020019002900390012119
:1028D0006846FEF78DFD002801D0FDF735FD17B0E5
:1028E00000BD00000120C0060E4988600E48006847
:1028F000012109040840884213D10B488038006A3E
:10290000C0B2CC280DD008488038006AC0B2AA28CE
:1029100007D005488038006889000843024980399B
:102920000860704700ED00E080200240F8B50446E2
:10293000606E002805D101216A20015368200153EF
:1029400022E00827082200922068806807214906B3
:102950000840450E20688068460F0C4A915D0C4A7D
:10296000935D009A53431846FDF716FC81B26A2026
:102970000153064A515D064A525D7A431046FDF7FF
:102980000BFC81B268200153F8BD00006B4F0008BA
:10299000634F00080822816A1140082907D10168A5
:1029A000496812039143826B114302685160018DA3
:1029B000C907C90F002908D00168496801225204DB
:1029C0009143C26A1143026851600222816A114038
:1029D000022907D101684968D2039143026B114370
:1029E000026851600422816A1140042907D10168FC
:1029F000496812049143426B1143026851601022EE
:102A0000816A1140102907D1016889681202914337
:102A1000C26B1143026891602022816A1140202913
:102A200007D10168896812029143026C1143026860
:102A300091604022816A1140402915D1016849689E
:102A400092039143426C11430268516001221205C6
:102A5000416C914208D101684968032252059143B3
:102A6000826C1143026851608022816A1140802982
:102A700007D10168496812039143C26C114302688F
:102A800051607047F8B50446002190200151FDF7D0
:102A9000F3FD05462068006808210840082824D175
:102AA00038482B46002289040090204600F09EFE04
:102AB00000281AD000BF00F037FF0646012000F0C2
:102AC00045FF2068006880218843216808603046FF
:102AD00000F03CFF00BF20218820015100BF0021F1
:102AE0008420015500BF0320F8BD20680068042140
:102AF0000840042836D123482B46002209050090BF
:102B0000204600F073FE00282CD000BF00F00CFF20
:102B10000646012000F01AFF20680068FF212131DD
:102B2000884321680860304600F010FF00BF00BFF6
:102B300000F0FAFE0646012000F008FF20688068D9
:102B40004008400021688860304600F0FFFE00BF6A
:102B500020218C20015100BF00218420015500BF9D
:102B60000320C1E72021882001518C200151002041
:102B7000E066206700BF00218420015500BF0020CF
:102B8000B2E70000FFFFFF0170B50546AC6A002107
:102B90005E200153562001532046FFF7ECF970BD2B
:102BA00070B5044600BF00F0BFFE0546012000F0EE
:102BB000CDFE20680068FF2121318843216808602C
:102BC000284600F0C3FE00BF00BF00F0ADFE054682
:102BD000012000F0BBFE2068806811490840216890
:102BE0008860284600F0B2FE00BFE06E012810D1D8
:102BF00000BF00F099FE0546012000F0A7FE206806
:102C000000681021884321680860284600F09EFE75
:102C100000BF20218C2001510020E066606770BD5C
:102C2000FEFFFFEF70B5044600BF00F07DFE0546D5
:102C3000012000F08BFE2068006840218843216855
:102C40000860284600F082FE00BF20218820015144
:102C50000020A0672046FFF72EFD70BDF8B50446A2
:102C60006020075B8C20005922287DD12068406AB3
:102C700086B2A56D304638402880A06D801CA065C6
:102C80005E20005B401E81B25E200153005B002885
:102C90006BD100BF00F048FE0090012000F056FE0E
:102CA00020680068FF21213188432168086000986E
:102CB00000F04CFE00BF00BF00F036FE0090012087
:102CC00000F044FE20688068400840002168886069
:102CD000009800F03BFE00BF20218C200151002015
:102CE000606720672C492068884220D02B492068E3
:102CF00088421CD02A492068884218D02068406841
:102D00000121C9050840002811D000BF00F00CFEC9
:102D10000090012000F01AFE206800680121890659
:102D2000884321680860009800F010FE00BFE06E44
:102D3000012825D10020E06600BF00F0F5FD0090DD
:102D4000012000F003FE20680068102188432168FC
:102D50000860009800F0FAFD00BF2068C0691021EB
:102D600008400009002801E00EE013E002D0102026
:102D7000216808625C20015B2046FFF799F809E0B2
:102D80002046FFF705FC05E020688069082108431C
:102D900021688861F8BD0000008000400084004088
:102DA000008C0040F0B587B004466020005B0690C0
:102DB0002068C569206800680390206880680290D8
:102DC0008C20005922287DD16820005B0490D5E03A
:102DD0002068406A80B20590A76D06990598084062
:102DE0003880A06D801CA0655E20005B401E81B213
:102DF0005E2001532068C5696807400F002840D055
:102E0000E807C00F00280ED0FF21013103980840C9
:102E1000002808D001202168086290200059012173
:102E20000843902108510220284000280DD0029824
:102E3000C007C00F002808D0022021680862902037
:102E400000590421084390210851042028400028FB
:102E50000DD00298C007C00F002808D004202168B8
:102E600008629020005902210843902108519020C7
:102E70000059002805D02046FFF77DF8002190205A
:102E800001515E20005B002878D100BF00F04CFDAE
:102E90000190012000F05AFD20680068FF210131F7
:102EA000884321680860019800F050FD00BF00BF12
:102EB00000F03AFD0190012000F048FD2068806894
:102EC0004D4900E08FE0084021688860019800F0DB
:102ED0003DFD00BF20218C2001510020606720674C
:102EE00046492068884220D04549206888421CD045
:102EF00044492068884218D0206840680121C905EB
:102F00000840002811D000BF00F00EFD0190012004
:102F100000F01CFD206800680121890688432168B3
:102F20000860019800F012FD00BFE06E012822D178
:102F30000020E06600BF00F0F7FC0190012000F0E7
:102F400005FD206800681021884321680860019809
:102F500000F0FCFC00BF2068C06910210840000997
:102F6000002802D01020216808625C20015B204606
:102F7000FEF79EFF02E02046FFF70AFB04980028B8
:102F800004D020202840002800D021E75E20065BE6
:102F9000002E2ED06820005BB0422ADD00BF00F07A
:102FA000C3FC0190012000F0D1FC20688068012161
:102FB0000907884321688860019800F0C7FC00BFBA
:102FC0001148606700BF00F0AFFC0190012000F0E5
:102FD000BDFC206800682021084321680860019832
:102FE00000F0B4FC05E020688069082108432168EE
:102FF000886107B0F0BD0000FEFFFFEF00800040D9
:1030000000840040008C00405D2C0008F8B50446A8
:103010006020065B8C20005922287DD12068406A00
:1030200085B2F0B22840A16D0870A06D401CA0656B
:103030005E20005B401E81B25E200153005B0028D1
:103040006BD100BF00F070FC0746012000F07EFC51
:1030500020680068FF2121318843216808603846D4
:1030600000F074FC00BF00BF00F05EFC07460120CA
:1030700000F06CFC2068806840084000216888608F
:10308000384600F063FC00BF20218C200151002055
:10309000606720672C492068884220D02B4920682F
:1030A00088421CD02A492068884218D0206840688D
:1030B0000121C9050840002811D000BF00F034FCF0
:1030C0000746012000F042FC2068006801218906C3
:1030D000884321680860384600F038FC00BFE06E85
:1030E000012825D10020E06600BF00F01DFC074646
:1030F000012000F02BFC2068006810218843216823
:103100000860384600F022FC00BF2068C06910212A
:1031100008400009002801E00EE013E002D0102072
:10312000216808625C20015B2046FEF7C1FE09E0D1
:103130002046FFF72DFA05E0206880690821084342
:1031400021688861F8BD00000080004000840040D4
:10315000008C0040F0B585B004466020005B049010
:103160002068C56920680068029020688068019026
:103170008C20005922287DD16820005B0390D4E088
:103180002068406A87B20498C0B23840A16D0870C8
:10319000A06D401CA0655E20005B401E81B25E20D9
:1031A00001532068C5696807400F002840D0E80730
:1031B000C00F00280ED0FF210131029808400028DE
:1031C00008D001202168086290200059012108439D
:1031D000902108510220284000280DD00198C007F6
:1031E000C00F002808D002202168086290200059F2
:1031F00004210843902108510420284000280DD0C4
:103200000198C007C00F002808D004202168086278
:103210009020005902210843902108519020005924
:10322000002805D02046FEF7A6FE0021902001517F
:103230005E20005B002878D100BF00F075FB009095
:10324000012000F083FB20680068FF2101318843E2
:1032500021680860009800F079FB00BF00BF00F013
:1032600063FB0090012000F071FB206880684D49ED
:10327000084000E08EE021688860009800F066FB5E
:1032800000BF20218C200151002060672067464943
:103290002068884220D04549206888421CD0444993
:1032A0002068884218D0206840680121C90508407C
:1032B000002811D000BF00F037FB0090012000F083
:1032C00045FB206800680121890688432168086061
:1032D000009800F03BFB00BFE06E012822D10020E7
:1032E000E06600BF00F020FB0090012000F02EFB04
:1032F000206800681021884321680860009800F069
:1033000025FB00BF2068C069102108400009002883
:1033100002D01020216808625C20015B2046FEF785
:10332000C7FD02E02046FFF733F90398002804D0D8
:1033300020202840002800D022E75E20065B002ED7
:103340002ED06820005BB0422ADD00BF00F0ECFA0E
:103350000090012000F0FAFA206880680121090736
:10336000884321688860009800F0F0FA00BF114897
:10337000606700BF00F0D8FA0090012000F0E6FA84
:10338000206800682021084321680860009800F048
:10339000DDFA05E02068806908210843216888611A
:1033A00005B0F0BDFEFFFFEF00800040008400404C
:1033B000008C00400D300008F0B58DB004460020B0
:1033C000059096492068884207D095492068884230
:1033D00003D094492068884200D100E000BF2169F1
:1033E000A068084361690843E169084307902068C1
:1033F00000688D49084007990843216808602068E3
:103400004068032109038843E16808432168486054
:10341000A06907908149206888420BD080492068C4
:10342000884207D07F492068884203D0206A0799E4
:1034300008430790206880687C4908400799084342
:10344000216888602068C06A00090001616A084339
:103450002168C86200BF76492068884201D10126F0
:1034600026E074492068884201D1022620E0724992
:103470002068884202D10126360419E06F4920688D
:10348000884202D10126760412E06449206888420D
:1034900001D110260CE062492068884201D108263B
:1034A00006E060492068884201D1042600E0002639
:1034B00000BF5A492068884207D05949206888428D
:1034C00003D05849206888424CD13046FDF750FA65
:1034D0000746002F14D0606A4000594A115A3846F6
:1034E000FCF744FE04906068410041180498814252
:1034F00004D8606801030498814202D2012005903B
:1035000080E0606A40004E49085A0246002301905C
:1035100038461946FCF754FEFF2301330022099375
:1035200008920A910B901A46089BFCF779FE626894
:1035300052080023801859410391029060680246A6
:1035400001900298FCF73CFE0546032109028D42DA
:1035500005D33C48854202D82068C56052E001206E
:1035600005904FE00121C903E06988422AD1304625
:10357000FDF7FEF90746002F44D0606A4000304A4C
:10358000115A3846FCF7F2FD4000616849084018BE
:1035900003906168FCF7EAFD0546102D0FD32A4819
:1035A00085420CD828480F38284006902807400F3D
:1035B00006990843069006982168C86022E0012019
:1035C00005901FE03046FDF7D3F90746002F19D0CC
:1035D000606A40001A4A115A3846FCF7C7FD616814
:1035E0004908401803906168FCF7C0FD0546102D9E
:1035F00006D31548854203D8A8B22168C86001E007
:103600000120059001216A20015368200153002008
:103610006067A06705980DB0F0BD00000080004015
:1036200000840040008C0040F369FFCFFFF4FF11DD
:10363000003801400044004000480040004C004079
:10364000444F0008FFFF0F00FFFF0000F8B50446DD
:103650000E461546A6655C2005535E2005530020E6
:10366000606700BF01210903A06888420AD1206970
:10367000002803D158496020015324E0FF21602035
:10368000015320E0A06800280AD12069002803D156
:10369000FF216020015316E07F216020015312E0DA
:1036A00001210907A06888420AD12069002803D1B6
:1036B0007F216020015306E03F216020015302E09A
:1036C00000216020015300BF0021902001512221E0
:1036D0008C20015100BF00F027F90746012000F0BF
:1036E00035F92068806801210843216888603846E0
:1036F00000F02CF900BF01214907606E884236D1E5
:103700006820005BA84232DC4914A068884205D1D9
:103710002069002802D13148606701E030486067C5
:103720002069002811D000BF00F0FEF807460120F4
:1037300000F00CF920680068FF210131084321687E
:103740000860384600F002F900BF00BF00F0ECF856
:103750000746012000F0FAF8206880680121090777
:10376000084321688860384600F0F0F832E0012113
:103770000903A068884205D12069002802D11948B0
:10378000606701E0184860672069002811D000BF19
:1037900000F0CAF80746012000F0D8F82068006859
:1037A000FF212131084321680860384600F0CEF837
:1037B00010E000BF00F0B8F80746012000F0C6F89E
:1037C000206800682021084321680860384600F01E
:1037D000BDF800BF0020F8BDFF010000A52D0008C6
:1037E000553100085D2C00080D300008FFB581B090
:1037F00004460D4617460A9E46E0701C002843D03A
:10380000FCF73AFF0499401AB04201D8002E02D1C9
:10381000032005B0F0BD206800680421084000289E
:1038200032D0802D30D0402D2ED02068C0690821A4
:103830000840C00800280FD00820216808622046F0
:10384000FFF7AEF908219020015100BF002184202C
:10385000015500BF0120DCE72068C0690121C902D1
:103860000840C00A00280FD0084621680862204698
:10387000FFF796F920219020015100BF00218420FC
:10388000015500BF0320C4E72068C0692840A84252
:1038900001D1012000E00020B842AED00020B8E7FE
:1038A00010B50248FEF768FB10BD00008000002044
:1038B00010B5002819DB1A4A03231B02D21883080B
:1038C0009B00D2588307DC0EFF23A3409A438B074B
:1038D0001B0E8407E40EA3401A43114B0324240259
:1038E0001B198408A4001A5118E00E4A03071B0F85
:1038F000083B9B089B00D2588307DC0EFF23A340A4
:103900009A438B071B0E8407E40EA3401A43054B12
:103910000407240F083CA408A4001A5110BD00009D
:1039200000E100E01CED00E0EFF31080704702E0E2
:1039300008C8121F08C1002AFAD17047704700203A
:1039400001E001C1121F002AFBD1704780F31088EB
:10395000704700001CB50548022100238022009119
:10396000019003A1054801F003F81CBD00000020F0
:103970006170705F7461736B000000008139000832
:1039800000BF012000F000FDFBE7000000BF0021A8
:10399000C9430B48006800F023FF0028F7D020211E
:1039A00005200007FCF758FE00231A461946044874
:1039B000006800F097FEC82000F0E6FCE7E7000092
:1039C0007C00002000BF0021C9430B48006800F0C4
:1039D00007FF0028F7D0202105200007FCF73CFE58
:1039E00000231A4619460448006800F07BFEC820F0
:1039F00000F0CAFCE7E700007C0000201CB50120B5
:103A000000F0ECFD0B4908600B48052100238022E3
:103A10000091019009A10C4800F0AAFF0B48052174
:103A2000002380220091019009A10C4800F0A0FF22
:103A30001CBD00007C000020740000206C65643117
:103A40005F7461736B0000008D39000878000020FE
:103A50006C6564325F7461736B000000C5390008E7
:103A6000FCF71CFEFEF70DFFFEF728FEFEF76AFED0
:103A70000A2206490648FEF739FDFFF7BFFFFFF7A8
:103A800069FF00F017FD00BFFEE7000014010020F1
:103A900080000020FEB505460E46244807682448ED
:103AA0000068019023480068009023480068001DCA
:103AB00000F0C2FB681C00281DD1002E1BD000BFE7
:103AC0001E4948681C49096888601B498268096862
:103AD000CA6019490968091D826851601649096858
:103AE000091D8160154A144909684A61114609682F
:103AF000491C116018E07C190F4800684460BC4202
:103B000006D20D480168091D009800F0B9FB0BE0D2
:103B100009480168091D019800F0B2FB08480068D7
:103B2000844201D206480460FEBD00002800002047
:103B3000180000201C000020140000203802002083
:103B40004400002010B5044600F0B6FB2F48006882
:103B5000401C2E4908602E480068002808D12C48D7
:103B600004600846006801280ED100F0DBF90BE084
:103B700028480068002807D125480068C06AE16A23
:103B8000884201D82248046023480068401C22492A
:103B9000086000BF00BF2149E06A0968884202D975
:103BA0001E49E06A086000BF00BF1422E16A514369
:103BB0001B4A89184868A0608268E260211D8268FB
:103BC000516081601422E16A5143154A8A1862618A
:103BD0001422E16A5143124A5158491C1423E26AE3
:103BE0005A430F4B995000BF00BF00F073FB0948C8
:103BF0000068002809D000BF05480068C06AE16A73
:103C0000884201D200F0B4FB00BF10BD24000020A8
:103C10001400002030000020400000202C00002074
:103C20002001002010B516E000F046FB0C48C068EB
:103C3000C468201D00F000FB0A480068401E0949C6
:103C4000086009480068401E0749086000F042FB10
:103C5000204600F0ADF8044800680028E4D110BD0B
:103C6000240200202400002020000020F8B5044693
:103C70000F46154600200090A66B206C002809D145
:103C8000206800282ED1A06800F05EFF0090002080
:103C9000A06027E0002D0FD13946226C6068FCF748
:103CA000FCFA216C606840186060A1686068884216
:103CB00018D32068606015E03946226CE068FCF794
:103CC000ECFA216CE068411AE1602168E068884202
:103CD00003D2216CA068411AE160022D02D1002EAE
:103CE00000D0761E701CA0630098F8BDF0B587B0B8
:103CF00001260027002409E013A0005D03A9085550
:103D000003A8005D002800D102E0641C102CF3DB46
:103D100000BF002511E00E4FA8000E4940180021F9
:103D20000B4680220091019003A9384600F020FE46
:103D30000646002E00D102E06D1C012DEBDB00BF1A
:103D4000304607B0F0BD000049444C45000000007B
:103D5000493E000848000020FFB585B016460E9F7A
:103D6000B00000F0C7F90546002D0FD0542000F038
:103D7000C1F90446002C05D054212046FCF7A6FAD0
:103D8000256304E0284600F0B3FA00E00024002C8C
:103D90000BD000210F9800970294039101903246B6
:103DA000089B0699059800F07CF8204609B0F0BD04
:103DB00010B50446206B00F09BFA204600F098FAFC
:103DC00010BD01464A6A002A04D00A6B12680A2311
:103DD000981A00E00020704730B50523DB02154833
:103DE0004407640F002C05D0C01DC008C000114C52
:103DF000041B1B1B104C206000240F4D6C60C2186C
:103E0000083AD208D2000D4C226000240B4D2D68D8
:103E10006C600A4D2D682C600146541A4C60074CAA
:103E200024680C60064D4C682C60064D4C682C6074
:103E300030BD00004C020020540000205C00002037
:103E4000640000206000002000BFFFF7EBFE034885
:103E500000680128F9D900F08BFAF6E7200100206C
:103E600010B50446002C0AD00020A060206000217C
:103E7000E16000231A461946204600F033FC10BDCD
:103E8000F8B506460D461746069C002D01D1246064
:103E900000E02760E66325640121204600F0D8FB9E
:103EA000F8BDFFB581B00E460A9F0C9C216B0398AC
:103EB000401E8000081800900098C008C0000090C4
:103EC000002E10D0002508E0715D204634304155A9
:103ED000705D002800D102E06D1C102DF4D300BFEE
:103EE0000021432001550A2F00D30927E7626764A8
:103EF000201D00F0C2F92046183000F0BEF9246100
:103F00000A20C01BA0616462049A0199009800F025
:103F100083F920600B98002801D00B98046005B04D
:103F2000F0BD000010B5002406E0142161430E4AE4
:103F3000881800F095F9641C0A2CF6D30B4800F0A1
:103F40008FF90B4800F08CF90A4800F089F90A480B
:103F500000F086F9094800F083F904480849086030
:103F600003480849086010BD20010020E801002036
:103F7000FC01002010020020240200203802002052
:103F8000180000201C00002010B50146164800E073
:103F9000006803688B42FBD3024643689B188B4240
:103FA00004D143684C681B19436001460A464B68BC
:103FB0009B180468A34211D10C4C03682468A342E7
:103FC00008D04B68046864681B194B6003681B6861
:103FD0000B6005E0054B1B680B6001E003680B609C
:103FE000884200D0016010BD540000205C00002019
:103FF00070B5054600F060F9A86B002801D10124D6
:1040000000E0002400F066F9204670BD70B505465A
:1040100000F052F9A86BE96B884201D1012400E05D
:10402000002400F057F9204670BD00000A480068DF
:104030000068002801D1012000E00020002804D001
:104040000020C0430549086005E003480068C068D7
:1040500000680249086070471800002044000020F2
:1040600072B600BFFEE770B5044600F025F94520A2
:10407000055713E0606A002801D1012000E000200C
:10408000002808D12046243000F016FE002803D076
:1040900000F09AF900E003E0681E45B2002DE9DC6B
:1040A00000BF0021C9434520015500F013F900F07D
:1040B00003F94420055713E02069002801D10120AD
:1040C00000E0002000280AD12046103000F0F4FD66
:1040D000002801D000F078F9681E45B200E001E048
:1040E000002DE9DC00BF0021C9434420015500F048
:1040F000F1F870BDFEB5044600200190002C23D0DD
:104100000820C043844201D9012000E0002000289B
:1041100019D108346007400F002815D06007400F00
:104120000821081A00900021C9430098081AA042EB
:1041300001D2012000E00020002802D100982418BC
:1041400002E0002400E0002400F0D2F928480068D2
:10415000002801D1FFF740FEE017401C002842D0A4
:10416000002C40D02348006884423CD8224E304680
:10417000056801E02E462D686868A04202D22868D2
:104180000028F7D11A48006885422CD030680830E2
:104190000190286830606868001B102807D92F1923
:1041A0006868001B78606C6030683860376011495F
:1041B00068680968081A0F490860084600680F49CE
:1041C0000968884203D20B4800680C490860012145
:1041D000C9076868084368600020286008480068CC
:1041E000401C0749086000F0F1FD0198FEBD000089
:1041F0005C000020600000205400002064000020CB
:104200006800002003490868002802D0816C491C1E
:104210008164704714000020001F01231B06036007
:10422000001F0160001F034B036014380260203838
:10423000704700006140000801460A694B688868C1
:1042400098608B68486858605068884201D18868D7
:104250005060002008611068401E106010687047B0
:104260000146083141600021C9438160014608319F
:10427000C160016100210160704700210161704748
:1042800010B502460B685C1C002C01D1106907E0D8
:104290001046083000E04068446824689C42FAD91F
:1042A00044684C604C68A160886041600A61146891
:1042B000641C146010BD000072B605480068401C04
:1042C00003490860BFF34F8FBFF36F8F7047000043
:1042D0007000002005480068401E04490860084638
:1042E0000068002800D162B670470000700000200E
:1042F00070B506463546002E1ED0083D2C46606837
:10430000C00F002818D02068002815D16068400030
:104310004008606000F0ECF80849606809684018DF
:10432000064908602046FFF72FFE05480068401C3C
:104330000349086000F04AFD70BD000060000020E5
:104340006C00002010B500200749086188617D21BC
:10435000C90006480068FBF709FF401E0249486192
:104360000720086110BD000000E000E01000002000
:104370000120000703494860BFF34F8FBFF36F8FE1
:104380007047000000ED00E070B504460025002CE9
:1043900008D000F0ADF800212046FFF77BFB00F0CD
:1043A00015FD0546002D01D1FFF7E2FF70BD0000AD
:1043B00003490968016003490968416070470000CA
:1043C0003C000020280000200120014908607047BF
:1043D0003800002070B505460C46054801681831C4
:1043E0002846FFF74DFF01212046FFF753FB70BD24
:1043F00014000020FEB506460F463446012000900A
:10440000002E52D0606CB84201D23D4600E0656C8F
:10441000E06AA84249D0A06C012846D1E06A019028
:10442000E562A069C00FC007002802D10A20401B26
:10443000A06161691422019850431C4A801881428E
:1044400001D1012000E0002000282ED0201DFFF720
:10445000F3FE00BF00BF1649E06A0968884202D92E
:104460001349E06A086000BF00BF1422E16A5143AB
:104470000E4A89184868A0608268E260211D82683F
:10448000516081601422E16A5143084A8A186261CE
:104490001422E16A5143054A5158491C1423E26A27
:1044A0005A43024B995000BF00BFFEBD20010020BF
:1044B0002C00002010B5FFF719FC0446012C0CD18C
:1044C00072B60020C0430649086001200549086013
:1044D00000200549086000F053F80448006810BD4A
:1044E0004400002030000020280000204C00002064
:1044F00002480068401C01490860704750000020D5
:104500001A480068002803D00120194908602BE0F0
:1045100000201749086000BF1648016800E0491EE6
:1045200014204843144A1058002801D1012000E00B
:1045300000200028F3D100BF14224A430E4BD018AC
:10454000426852684260024608324368934201D191
:10455000C26842604268D268084B1A6000BF0548D2
:10456000016000BF1846006870470000500000203E
:10457000380000202C000020200100201400002022
:1045800010B50B48006AFF21090408430849086276
:104590000846006AFF210906084305490862FFF73B
:1045A000D1FE002003490860FBF796FD002010BDF6
:1045B00000ED00E07000002010B5FBF7A1FD0446FF
:1045C00000F0F0F9002803D00120000702494860FC
:1045D0002046FBF799FD10BD00ED00E0F8B504465C
:1045E0000126002722460021012000F006F805469A
:1045F0002846FFF735FC2846F8BDF7B582B00446DB
:104600000E460025002C20D02146681EFBF7AEFD8B
:10461000B0421AD3204670434821C943884214D877
:104620002746774338464830FFF764FD0546002D9E
:104630000BD00195019D28464830019000953146E8
:104640002046049B019AFFF71BFC284605B0F0BDED
:10465000F8B505460E4601272C46002C3FD0E06BEE
:1046600000283CD0B81EE16BFBF780FD216C88422E
:1046700035D3FFF721FE216CE06B484321684018D9
:10468000A0600020A06320686060E06B401E216C89
:10469000484321684118E160B91E44200155452076
:1046A0000155002E10D12069002801D1012000E021
:1046B0000020002810D12046103000F0FDFA00281C
:1046C0000AD0FFF755FE07E020461030FFF7C8FD7F
:1046D00020462430FFF7C4FDFFF7FCFD00E0002773
:1046E0003846F8BDFFB583B007461D46002002904E
:1046F0003C4600BFFFF7E0FDA06BE16B884201D3B1
:10470000022D1FD12A4620460499FFF7AFFA06462C
:10471000606A002801D1012000E00020002808D1B3
:104720002046243000F0C8FA002806D0FFF720FE0B
:1047300003E0002E01D0FFF71BFEFFF7CBFD0120A9
:1047400007B0F0BD0598002803D1FFF7C3FD002096
:10475000F6E70298002804D16846FFF729FE0120F9
:104760000290FFF7B7FDFFF7C3FEFFF7A5FD442159
:104770000857401C002802D1002144200155452142
:104780000857401C002802D1002145200155FFF7A1
:10479000A1FD05A9684600F0B9F8002819D1204606
:1047A000FFF734FC00280ED0204610300599FFF7A3
:1047B00011FE2046FFF757FC00F008FB002899D1B6
:1047C000FFF7D6FD96E72046FFF74DFC00F0FEFA16
:1047D00090E72046FFF747FC00F0F8FA0020AFE72B
:1047E000F3B583B0054600272C460020009000BF9B
:1047F000FFF762FDA66B002E1CD0701EA063206820
:10480000002802D1FFF7FEFCA0602069002801D13A
:10481000012000E00020002807D12046103000F0E1
:104820004BFA002801D0FFF7A3FDFFF753FD01204D
:1048300005B0F0BD0498002803D1FFF74BFD002020
:10484000F6E7002F03D101A8FFF7B2FD0127FFF71C
:1048500041FDFFF74DFEFFF72FFD44210857401C97
:10486000002802D100214420015545210857401C51
:10487000002802D1002145200155FFF72BFD04A996
:1048800001A800F043F8002824D12046FFF7B0FB30
:10489000002819D02068002807D1FFF70DFDA06877
:1048A00000F09EF90090FFF715FD20462430049992
:1048B000FFF790FD2046FFF7D6FB00F087FA0028AF
:1048C00096D1FFF755FD93E72046FFF7CCFB00F0AC
:1048D0007DFA8DE72046FFF7C6FB00F077FA204609
:1048E000FFF786FB002883D0009800280BD0FFF745
:1048F000E3FC2046FFF765FA06463146A068FFF75D
:1049000079FDFFF7E7FC002092E7000070B506464E
:104910000C46FFF7D1FC144802687068131A20682F
:10492000401C002801D1002519E0104930680968B1
:10493000884206D07068904203D80125002020608C
:104940000DE02068984207D92068C01A20603046E0
:10495000FFF72EFD002502E0002020600125FFF773
:10496000B9FC284670BD0000280000203C00002053
:10497000FFB583B006460C9F0D9800970190304616
:1049800004A90EC9FFF7E8F90546002D04D0284612
:10499000FFF7D8F8012401E00024E443204607B0E3
:1049A000F0BD0000F8B5002000905C4800680028C9
:1049B0007ED15B480068451C59480560002D10D128
:1049C00000BF58480768584800685649086056486C
:1049D000076056480068401C54490860FFF726FBF2
:1049E00000BF5348006885427ED300BF4D48006831
:1049F0000068002801D1012000E00020002804D038
:104A00000020C0434A4908606DE046480068C0681D
:104A1000C4686668B54202D24548066063E000BFDC
:104A20006069E268A1688A60A268E1684A60211D45
:104A300042688A4201D1E1684160002262610168F6
:104A4000491E016000BFA06A002814D000BFA06A00
:104A5000226AE1698A60E269216A4A602146183166
:104A600042688A4201D1216A41600022A262016843
:104A7000491E016000BF00BF00BF2E49E06A0968FF
:104A8000884202D92B49E06A086000BF00BF1422A7
:104A9000E16A5143284A89184868A0608268E26048
:104AA000211D8268516081601422E16A514300E057
:104AB0002CE0214A8A1862611422E16A51431E4A9D
:104AC0005158491C1423E26A5A431B4B995000BFAA
:104AD00000BF1A49E06A0968C96A884286D901207C
:104AE000009083E700E000BF14480068C06A14210A
:104AF000484311490858012801D901200090104865
:104B00000068002801D00120009004E00D480068F2
:104B1000401C0C4908600098F8BD000050000020BF
:104B200028000020180000201C0000203C0000206D
:104B3000440000202C000020200100201400002050
:104B4000380000203400002070B505462C460026B1
:104B5000002D3FD0A06C401EA064616CE06A8842CA
:104B600038D0A06C002835D1201DFFF765FB606CA4
:104B7000E0620A21E06A081AA06100BF00BF16497E
:104B8000E06A0968884202D91349E06A086000BFF8
:104B900000BF1422E16A5143104A89184868A06096
:104BA0008268E260211D8268516081601422E16A9E
:104BB00051430A4A8A1862611422E16A5143074A42
:104BC0005158491C1423E26A5A43044B995000BFC0
:104BD00000BF0126304670BD2C00002020010020BF
:104BE00070B505462C460026002D5DD02F49E06AA1
:104BF0000968C96A884250D2A069C00FC00700285E
:104C000005D12A480068C06A0A21081AA061142246
:104C1000E06A5043264A80186169814201D101202F
:104C200000E00020002832D0201DFFF705FB1F48C0
:104C30000068C06AE06200BF00BF1E49E06A096800
:104C4000884202D91B49E06A086000BF00BF1422F5
:104C5000E16A5143164A89184868A0608268E26098
:104C6000211D8268516081601422E16A5143104A1B
:104C70008A1862611422E16A51430D4A5158491C55
:104C80001423E26A5A430A4B995000BF03E00748D5
:104C90000068C06AE062012606E00449606C0968A9
:104CA000C96A884200D20126304670BD1400002037
:104CB000200100202C00002070B50346D868C16890
:104CC00000BF886A0D6ACC69A560CD690C6A656011
:104CD0000C4618344568A54201D10C6A4460002591
:104CE0008D620468641E046000BF324800680028BA
:104CF0003FD100BF4869CD688C68A5608D68CC68DD
:104D000065600C1D4568A54201D1CC684460002552
:104D10004D610468641E046000BF00BF00BF264CE4
:104D2000C86A2468A04202D9234CC86A206000BF28
:104D300000BF1425CC6A6C43204D641960688860FC
:104D40008568CD600C1D85686C6084601425CC6A14
:104D50006C431A4D65194D611425CC6A6C43174D8F
:104D60002C59641C1426CD6A7543144E745100BF2F
:104D700011E000BF124C6068C86185680D620C4686
:104D8000183485686C6084600D4D8D622C462468F3
:104D9000641C2C6000BF0B4CC86A2468E46AA04203
:104DA00004D901220120084C206000E000221046B6
:104DB00070BD0000500000202C00002020010020C9
:104DC000100200201400002038000020F8B5002454
:104DD0000026FFF771FA002550480068401E4F4931
:104DE00008600846006800287ED14D480068002809
:104DF0007AD061E04B48C068C46800BFA06A226AEC
:104E0000E1698A60E269216A4A6021461831426894
:104E10008A4201D1216A41600022A2620168491ED2
:104E2000016000BF00BF6069E268A1688A60A26893
:104E3000E1684A60211D42688A4201D1E16841600F
:104E4000002262610168491E016000BF00BF00BF0F
:104E50003549E06A0968884202D93349E06A086046
:104E600000BF00BF1422E16A5143304A89184868E4
:104E7000A0608268E260211D826851608160142216
:104E8000E16A5143294A8A1862611422E16A514356
:104E9000264A5158491C1423E26A5A43234B99501D
:104EA00000BF00BF2249E06A0968C96A884203D985
:104EB0000120A9001F4A50501A480068002801D15B
:104EC000012000E00020002894D0002C01D0FFF742
:104ED000ADF819480768002F10D000BFFFF762FD3A
:104EE000002805D0012000E014E0A900114A50502C
:104EF0007F1E002FF2D100200F490860A8000D4945
:104F00000858002806D0012600BF09480068FFF7AE
:104F10002FFA00BFFFF7DEF93046F8BD5000002041
:104F200024000020100200202C000020200100207E
:104F3000140000203800002034000020081C3044F9
:104F4000586C8000010002000400060008000A00FE
:104F50000C0010002000400080000001081C3044BC
:104F6000586C8001010103070100000804020408D5
:104F700001010100081C3044586C80000000000052
:104F800000000001020304060708090000000001F8
:104F900002030400A0860100400D0300801A0600F1
:104FA00000350C0040420F0080841E0000093D00C7
:104FB00000127A000024F40000366E010048E80177
:104FC000006CDC02E44F00080000002080000000BC
:104FD0002E3900086450000880000020D02D000009
:104FE0003E3900080000000000000000040000003E
:104FF0000100000000093D0000000000000000006A
:1050000000000000000000000000000000000000A0
:105010000000000000000000000000000000000090
:105020000000000000000000000000000000000080
:105030000900000000000000000000000000000067
:105040000000000000000000000000000000000060
:1050500000000000AAAAAAAA0000000000000000A8
:04506000000000004C
:04000005080000C12E
:00000001FF
