:020000040800F2
:10000000402E002051010008DD15000851150008A0
:1000100000000000000000000000000000000000E0
:100020000000000000000000000000008D16000825
:1000300000000000000000000F0100088F160008FB
:100040006301000863010008630100086301000800
:1000500063010008630100086301000863010008F0
:1000600063010008630100086301000863010008E0
:1000700063010008630100086301000863010008D0
:1000800063010008630100086301000863010008C0
:1000900063010008630100086301000863010008B0
:1000A00063010008630100086301000863010008A0
:1000B00063010008191800086301000863010008C3
:1000C0000448854600F08CF800480047D91900081C
:1000D000C046C046402E0020084B196808682030F2
:1000E00080F30988022080F31488BFF36F8F3FBC30
:1000F000AE4608BC04BC62B61847000014000020DD
:10010000EFF3108072B6704780F310887047EFF3FA
:1001100009800E4B1A6820381060F0C044464D46E6
:1001200056465F46F0C008B572B602F099F962B65D
:100130000CBC116808681030F0C8A046A946B24649
:10014000BB4680F309882038F0C818471400002007
:100150000448804704480047FEE7FEE7FEE7FEE765
:10016000FEE7FEE7FD160008C100000830B50B46AB
:10017000014600202022012409E00D46D5409D4281
:1001800005D31D469540491B254695404019154607
:10019000521E002DF1DC30BD03460B439B0703D0FC
:1001A00009E008C9121F08C0042AFAD203E00B783C
:1001B0000370401C491C521EF9D27047D2B201E0B4
:1001C0000270401C491EFBD270470022F6E710B5B2
:1001D00013460A4604461946FFF7F0FF204610BDB5
:1001E000064C0125064E05E0E36807CC2B430C3C8A
:1001F00098471034B442F7D3FFF766FFEC2E00089F
:100200000C2F000872B600BFFEE70146002901D19D
:10021000012070472520405C022808D00420C863D4
:1002200000BF00222420425400BF0120F1E70868EB
:1002300000680E2290430A681060886C0068FF22F4
:10024000013290438A6C10600868006840084000E2
:100250000A6810601C22486C104001228240086C21
:100260004260CA6C086D5060486D002809D0486D26
:100270000068FF22013290434A6D10608A6DC86D9C
:10028000506001222520425400BF00222420425405
:1002900000BF0020BDE770B5044600252520005DA5
:1002A000022803D00420E063012537E020680068BD
:1002B0000E218843216808602068006840084000DB
:1002C00021680860A06C0068FF2101318843A16C9F
:1002D00008601C21606C084001218140206C416055
:1002E000E16C206D4860606D002809D0606D006889
:1002F000FF2101318843616D0860A16DE06D4860A8
:1003000001212520015500BF00212420015500BFF7
:10031000A06B002802D02046A16B8847284670BDFC
:1003200070B502460B460021E1E001268E401C68B4
:100330003440002C73D01D79AD07AD0F012D04D0D2
:100340001D79AD07AD0F022D18D190684E00032521
:10035000B5400646AE4330464E00DD68B540284302
:100360009060506801258D400646AE433046102609
:100370005D6835402D098D40284350601D79AD07DB
:10038000AD0F032D0BD0D0684E000325B5400646B7
:10039000AE4330464E009D68B5402843D0601D797D
:1003A000AD07AD0F022D15D1CD08AE001546203595
:1003B000A8594D07EE0E0F25B5400646AE43304610
:1003C0004E07F60E1D69B5402843CD08AD00164610
:1003D0002036705110684E000325B5400646AE43E6
:1003E00030461D79AD07AD0F4E00B5402843106073
:1003F000032636045D683540002D77D03F4D8E08CA
:10040000B600A8598D07EE0E0F25B5400646AE433F
:10041000304605252D07AA4202D100251AE065E0E5
:10042000374DAA4201D1012514E0364DAA4201D12F
:1004300002250FE0344DAA4201D103250AE0334DD5
:10044000AA4201D1042505E0314DAA4201D105257A
:1004500000E006258E07F60EB5402843274D8E088E
:10046000B600A851254D603D28680546A54328469D
:10047000012636055D683540002D02D0054625432E
:1004800028461E4D603D286068680546A5432846FD
:10049000012676055D683540002D02D005462543CE
:1004A0002846164D603D6860144D20356868054645
:1004B000A5432846012676045D683540002D02D00C
:1004C0000546254328460D4D2035686028680546B9
:1004D000A5432846012636045D683540002D02D02C
:1004E000054625432846054D20352860491C1D68D2
:1004F000CD40002D00D018E770BD0000601802400C
:100500000004005000080050000C00500010005083
:1005100000140050002A01D0816100E08162704720
:10052000014800687047000004000020034800688C
:100530000349096840180149086070470400002019
:100540000C00002010B50024032000F009F800285A
:1005500001D0012401E000F033F8204610BD000076
:10056000F8B5044600251348006800281ED011483D
:1005700001687D20C000FFF7F9FD074639460E48A7
:100580000068FFF7F3FD064600F09CFD00280BD144
:10059000042C07D200222146401E00F033F8074801
:1005A000046004E0012502E0012500E00125284661
:1005B000F8BD00000C000020100000200800002002
:1005C00008B500BF0E4880690121090708430C499E
:1005D00088610846806989050840009000BF00BF17
:1005E00000BF0748006A0121084305490862084620
:1005F000006AC007C00F009000BF00BF08BD000028
:100600004010024070B504460D4616462946204665
:1006100001F00AF970BD000070B5054601204002E6
:1006200085422CD120480068032149020840294610
:10063000884237D01C48006803214902884340198A
:100640001949086019490968322251430846184976
:10065000FFF78CFD441C00E0641E13484069012133
:1006600089020840884201D1002CF5D10E4840692A
:10067000012189020840884214D1032070BD0A4834
:10068000006803214902084001218902884209D0FB
:100690000548006803214902884301218902401866
:1006A000014908600020E9E70070004010000020C8
:1006B00040420F0002480068032149020840704789
:1006C00000700040F8B504460D46604800684007D9
:1006D000400FA8420ED25D480068C008C000284301
:1006E0005A490860084600684007400FA84201D0F8
:1006F0000120F8BD2078C007C00F00285FD06068D7
:10070000032808D152480068012149060840002802
:1007100039D10120EDE76068022808D14C48006813
:1007200001214904084000282DD10120E1E760683B
:10073000002807D14648006802210840002822D13D
:100740000120D6E76068012808D1414800680121EE
:1007500089020840002816D10120CAE760680428F1
:1007600008D13B48803040690221084000280AD166
:100770000120BEE736488030006902210840002889
:1007800001D10120B5E732488068C008C000616827
:1007900008432F498860FFF7C3FE064607E0FFF7CE
:1007A000BFFE801B2B49884201D90320A1E72848BE
:1007B0008068382108406168C9008842EFD1022171
:1007C00020680840022808D1214880680F210902CA
:1007D0008843A16808431E4988601C480068400798
:1007E000400FA8420ED919480068C008C00028432D
:1007F00016490860084600684007400FA84201D02B
:10080000012076E7042120680840042808D1104818
:100810008068072109038843E16808430C49886020
:1008200000F01EF80A4989680F2212021140090AD5
:10083000094A515CC906C90EC8400849086003202E
:10084000FFF78EFE0746384653E7000000200240BF
:100850000010024088130000A32E000810000020A2
:10086000F0B585B00025002004903C488068382110
:10087000084004463948C0688007800F0090002C6B
:1008800004D0182C1FD1009801281CD133480068CF
:1008900008210840002807D13048803040690F21E6
:1008A00009020840050A04E02C480068F0210840CD
:1008B00005090B2D00D90025A80029490D58002C49
:1008C00016D1049514E0082C02D1264804900FE0BC
:1008D000102C02D1244804900AE0202C03D17D2062
:1008E0000002049004E0282C02D10120C0030490EF
:1008F000182C2FD11948C0688707BF0F1748C06848
:10090000702108400009401C0190012F09D0022FDE
:1009100002D0032F04D101E0124E04E0124E02E097
:1009200000BF2E4600BF00BF0C49C9687F221202DB
:100930001140090A714308460199FFF717FC03901B
:100940000648C068400F401C029002990398FFF7C8
:100950000DFC0490049805B0F0BD000000100240AA
:10096000BC2E00080024F40000093D00FEB504463A
:10097000F7488068382108400646F548C068800777
:10098000800F029010212068084010287DD1002E91
:1009900004D0182E7AD1029801287FD1EC48006843
:1009A00002210840002804D0E069002801D101207C
:1009B000FEBDE748616A006808221040002804D0A4
:1009C000E3480068F022104006E0E14880304069CA
:1009D0000F22120210400009814221D9606A00F002
:1009E000FFFD002801D00120E2E700BFD8480068E1
:1009F00008210843D649086008460068F02188436A
:100A0000616A0843D249086000BF08464068FF2178
:100A100009028843216A09020843CD49486022E05F
:100A200000BFCB48006808210843C9490860084650
:100A30000068F0218843616A0843C549086000BF27
:100A400008464068FF2109028843216A09020843D9
:100A5000BF494860002E06D1606A00F0C1FD002841
:100A600001D00120A4E7FFF7FBFEB94989680F22F6
:100A700012021140090AB74A515CC906C90EC840A2
:100A8000B5490860B548006801E03BE006E0FFF7C3
:100A900067FD0746002F4DD0384689E7E0690028FA
:100AA00031D0AB48006801210843A9490860FFF72D
:100AB00037FD054606E0FFF733FD401B022801D94C
:100AC000032075E7A2480068022108400028F2D000
:100AD00000BF9F480068082108439D4908600846F8
:100AE0000068F0218843616A08439949086000BFA3
:100AF00008464068FF2109028843216A0902084329
:100B00009349486016E092480068400840009049C8
:100B10000860FFF705FD054606E0FFF701FD401BF5
:100B2000022801D9032043E78948006802210840D0
:100B30000028F2D12078C007C00F002859D0102E0D
:100B400004D0182E0ED1029803280BD180480068DB
:100B500001214904084000284BD06068002848D192
:100B6000012025E700BF012109046068884205D102
:100B70007748006808437649086011E005210904B8
:100B80006068884205D1724800680843704908606F
:100B900006E06F4800680521090488436C49086035
:100BA00000BF6068002812D0FFF7BAFC054606E0D7
:100BB000FFF7B6FC401B642801D90320F8E664481F
:100BC00000680121490408400028F1D011E0FFF736
:100BD000A7FC054606E0FFF7A3FC401B642801D9EB
:100BE0000320E5E65A48006801214904084000282E
:100BF000F1D102212068084002285DD1082E04D0DE
:100C0000182E19D10298022816D1514800680121E6
:100C100089020840002804D0E068002801D10120A2
:100C2000C6E64B4840687F2109068843217C0906B7
:100C30000843474948603FE0E068002823D0444823
:100C40000068FF210131084341490860FFF768FC53
:100C5000054606E0FFF764FC401B022801D903208B
:100C6000A6E63B4800680121890208400028F1D02F
:100C7000374840687F2109068843217C09060843DC
:100C80003349486018E032480068FF210131884349
:100C90002F490860FFF744FC054606E0FFF740FCDB
:100CA000401B022801D9032082E62948006801215F
:100CB000890208400028F1D108212068084008284E
:100CC00055D1606900282FD0A069002808D120489C
:100CD00080304069042188431D498031486107E024
:100CE0001B4880304069042108431949803148611C
:100CF0001748803040690121084315498031486117
:100D0000FFF70EFC054606E0FFF70AFC401B112822
:100D100001D903204CE60E4880304069022108408A
:100D200040080028F0D022E009488030406940089F
:100D30004000074980314861FFF7F2FB05460FE0AC
:100D4000FFF7EEFB401B11280AD9032030E6000014
:100D500000100240A32E0008100000200800002010
:100D6000D44840690221084040080028E8D1042105
:100D70002068084004286FD100200190CD484038F9
:100D8000806989060840002810D100BFC948403852
:100D900080690843C74940398861084680698905E8
:100DA0000840009000BF00BF01200190C2480068C9
:100DB000FF2101310840002816D1BF4800680843D0
:100DC000BD490860FFF7ACFB054606E0FFF7A8FB4E
:100DD000401B022801D90320EAE5B7480068FF213B
:100DE000013108400028F1D0207AC007C00F002848
:100DF00017D00421A068084000280BD0AD48006936
:100E00000843AC4908610846006901210843A94923
:100E1000086112E0A748006901210843A54908615B
:100E20000BE0A448006940084000A2490861084658
:100E30000069042188439F490861A068002844D0C4
:100E4000FFF76EFB054608E0FFF76AFB401B9B4976
:100E5000884202D90320ABE571E09648006902217F
:100E600008400028F0D08021A0680840002815D054
:100E70009048006908438F49086107E0FFF750FB7D
:100E8000401B8E49884201D9032091E589480069B9
:100E90000121C90208400028F0D043E085480069DC
:100EA000802188438349086107E0FFF739FB401B35
:100EB0008249884201D903207AE57E4800690121F0
:100EC000C90208400028F0D12CE0FFF729FB0546B5
:100ED00007E0FFF725FB411B7848814201D9032039
:100EE00066E574480069022108400028F1D1714884
:100EF000006980210840002814D06E4800698843AA
:100F00006C49086107E0FFF70BFB401B6B49884207
:100F100001D903204CE5674800690121C902084056
:100F20000028F0D10198012808D162484038806932
:100F30000121090788435F494039886100BF2021AA
:100F400020680840202831D1A06A002817D05948CD
:100F500080690121084357498861FFF7E1FA054696
:100F600006E0FFF7DDFA401B022801D903201FE548
:100F700050488069022108400028F2D016E04D4810
:100F80008069400840004B498861FFF7C9FA05466F
:100F900006E0FFF7C5FA401B022801D9032007E548
:100FA00044488069022108400028F2D1E06A002804
:100FB0007DD040488038806838210840182874D097
:100FC000E06A022853D13B488038006801210906B5
:100FD0008843384980390860FFF7A2FA054606E0E1
:100FE000FFF79EFA401B022801D90320E0E43148B4
:100FF000803800680121490608400028F0D1616B63
:10100000206B0843A16B09020843216C0843616C03
:101010000843E16B084327498039C968284A1140D1
:10102000084324498039C8600846C0680904084359
:1010300020498039C8600846006801210906084334
:101040001C4980390860FFF76BFA054606E0FFF798
:1010500067FA401B022801D90320A9E4154880380B
:1010600000680121490608400028F0D01FE011481F
:10107000803800680121090688430E4980390860DC
:10108000FFF74EFA054606E0FFF74AFA401B022832
:1010900001D903208CE40748803800680121490603
:1010A00008400028F0D102E0FFE7012080E40020A2
:1010B0007EE40000801002400070004088130000B1
:1010C0008C80C11170B504462546681E09498842C6
:1010D00001D901200CE0681E074948610321081F5F
:1010E00000F0A2FB0020044988610720086100206D
:1010F00070BD0000FFFFFF0000E000E07047704798
:101100007047704770470000F0B585B0044620680E
:10111000C5692068066820688768FA4828400390F7
:101120000398002814D120202840002810D0202027
:101130003040002804D1012000073840002807D0A3
:10114000606F002802D02046616F884705B0F0BD6F
:10115000039800287ED0EC483840002803D1EB48A3
:1011600030400028F6D0E807C00F00280DD0FF203F
:1011700001303040002808D001202168086290200A
:1011800000590121084390210851022028400028DD
:101190000CD0F807C00F002808D002202168086290
:1011A0009020005904210843902108510420284030
:1011B00000280CD0F807C00F002808D004202168B0
:1011C000086290200059022108439021085108200C
:1011D0002840002810D020203040002803D1CA48E1
:1011E0003840002808D00820216808629020005963
:1011F00008210843902108510120C00228400028FE
:101200000ED0012080063040002809D00120C00205
:10121000216808629020005920210843902108513C
:101220009020005900285ED02020284000280ED0B1
:1012300020203040002804D1012000073840002839
:1012400005D0606F002802D02046616F884790204B
:10125000005900E048E00290206880684021084082
:10126000402804D0282102980840002835D0204684
:1012700000F074FA2068806840210840402828D196
:1012800000BF00F00DFB0190012000F01BFB206867
:1012900080684021884321688860019800F012FB33
:1012A00000BF8020005900280FD0994980200059A4
:1012B000816380210859FEF7EEFF002813D08022B9
:1012C00010591259916B88470DE02046FFF71AFF1D
:1012D00009E02046FFF716FF05E02046FFF712FF62
:1012E00000219020015131E7E06E01287ED11020CD
:1012F000284000287AD0102030400028FAD0102052
:10130000216808622068806840210840402876D122
:10131000802000590068406880B201900198002840
:101320006CD05C20015B0198814267DD5E210198F1
:1013300008538020005900680068202108400028D8
:101340004DD100BF00F0ACFA0090012000F0BAFAD5
:1013500020680068FF2101318843216808600098F7
:1013600000F0B0FA00BF00BF00F09AFA0090012030
:1013700000F0A8FA20688068400840002168886072
:10138000009800F09FFA00BF00BF00F089FA0090BB
:10139000012000F097FA2068806840218843216886
:1013A0008860009800F08EFA00BF20218C20015147
:1013B0000020E06600BF00F073FA0090012000F00A
:1013C00081FA20680068102188432168086000982D
:1013D00000F078FA00BF80210859FEF716FF0220BE
:1013E00020675C20025B5E20005B02E057E006E0C5
:1013F00004E0101A81B22046FFF780FEA6E65C20CA
:10140000015B5E20005B081A80B201905E20005BE9
:10141000002843D00198002840D000BF00F040FAD7
:101420000090012000F04EFA20680068FF21213171
:10143000884321680860009800F044FA00BF00BFAC
:1014400000F02EFA0090012000F03CFA206880683D
:101450002D49C943084021688860009800F032FA9D
:1014600000BF20218C2001510020E066606700BF92
:1014700000F016FA0090012000F024FA20680068BD
:101480001021884321680860009800F01BFA00BF13
:101490000220206720460199FFF730FE56E6012022
:1014A0000005284000280CD0012080053840002885
:1014B00007D001200005216808622046FFF721FEC1
:1014C00044E68020284000280FD0802030400028AB
:1014D00004D10120C0053840002806D0A06F0028A4
:1014E00002D02046A16F884730E6402028400028DF
:1014F00010D04020304000280CD0204600F070F979
:1015000024E600000F080000010000102001000484
:10151000451700080120C0052840002808D00120F8
:1015200080073040002803D02046FFF7E9FD0DE694
:10153000012000062840002807D0F00FC00700282F
:1015400003D02046FFF7DBFD00E600BFFEE5704755
:1015500000BFFEE700B587B0142102A8FEF735FEF4
:1015600000BF1C48C068042108431A49C8600846E7
:10157000C06804210840019000BF00BF00BF1548AB
:10158000C068012108431349C8600846C068C00705
:10159000C00F019000BF00BF0022202105200007DE
:1015A000FEF7B8FF01204003029000200390049052
:1015B00002A90948FEF7B4FE202002900120039002
:1015C00004900020059002A905200007FEF7A8FE60
:1015D00007B000BD401002400008005000BFFEE709
:1015E000F8B504460026274880690121090708400C
:1015F000002803D0FFF75EF8054618E000BF214839
:1016000080690121090708431E49886108468069ED
:1016100089050840009000BF00BFFFF74BF8054662
:10162000184880690121090788431649886101200B
:10163000400285420BD1802C12D9B02C01D9022650
:101640000EE0902C01D901260AE0002608E0802C4B
:1016500001D3022604E0702C01D1012600E000260F
:1016600009480068C008C0003043074908600846C0
:1016700000684007400FB04201D00120F8BD0020B3
:10168000FCE700004010024000200240704710B507
:10169000FEF74CFF00F040FF10BD00B597B04C21A5
:1016A00004A8FEF792FD00200090019002900390A4
:1016B00001204002FEF7B0FF1020049001200B90A3
:1016C00000200C90B0200D9000200F9004A8FFF790
:1016D0004DF9002801D0FEF795FD0720009000206D
:1016E00001900290039001216846FEF7EBFF00286D
:1016F00001D0FEF787FD17B000BD00000120C00635
:101700000E4988600E48006801210904084088429B
:1017100013D10B488038006AC0B2CC280DD00848DD
:101720008038006AC0B2AA2807D00548803800680F
:1017300089000843024980390860704700ED00E0E5
:101740008020024070B50546AC6A00215E2001533E
:10175000562001532046FFF7D5FC70BD70B50446F6
:1017600000BF00F09DF80546012000F0ABF82068AE
:101770000068FF212131884321680860284600F075
:10178000A1F800BF00BF00F08BF80546012000F073
:1017900099F82068806811490840216888602846C7
:1017A00000F090F800BFE06E012810D100BF00F0FB
:1017B00077F80546012000F085F8206800681021C0
:1017C000884321680860284600F07CF800BF20218B
:1017D0008C2001510020E066606770BDFEFFFFEFC6
:1017E00070B5044600BF00F05BF80546012000F02C
:1017F00069F820680068402188432168086028460D
:1018000000F060F800BF2021882001510020A0676F
:101810002046FFF79CFE70BD10B50248FFF774FC30
:1018200010BD00008000002010B5002819DB1A4A06
:1018300003231B02D21883089B00D2588307DC0EB7
:10184000FF23A3409A438B071B0E8407E40EA3409B
:101850001A43114B032424021B198408A4001A51B3
:1018600018E00E4A03071B0F083B9B089B00D25849
:101870008307DC0EFF23A3409A438B071B0E8407CC
:10188000E40EA3401A43054B0407240F083CA408A8
:10189000A4001A5110BD000000E100E01CED00E0C2
:1018A000EFF31080704702E008C8121F08C1002A39
:1018B000FAD170477047002001E001C1121F002AD1
:1018C000FBD1704780F31088704700001CB50548B5
:1018D0000221002380220091019003A1054800F01D
:1018E000F7FF1CBD000000206170705F7461736BB6
:1018F00000000000F918000800BF012000F0F4FC0F
:10190000FBE7000000BF0021C9430B48006800F05E
:1019100017FF0028F7D00022202105200007FEF73E
:10192000F9FDC82000F0E0FC00231A4619460248E1
:10193000006800F087FEE6E77C00002000BF002181
:10194000C9430B48006800F0FBFE0028F7D00122D5
:10195000202105200007FEF7DDFDC82000F0C4FCB3
:1019600000231A4619460248006800F06BFEE6E7BD
:101970007C0000201CB50D48052100238022009129
:1019800001900BA10D4800F0A3FF0D480521002395
:101990008022009101900BA10D4800F099FF0120D9
:1019A00000F0CCFD0B4908601CBD00007400002055
:1019B0006C6564315F7461736B0000000519000889
:1019C000780000206C6564325F7461736B00000006
:1019D0003D1900087C000020FEF7B4FDFFF75DFE16
:1019E000FFF7B8FDFFF7C6FFFFF770FF00F012FD2D
:1019F00000BFFEE7FEB505460E46244807682448AA
:101A00000068019023480068009023480068001D8A
:101A100000F0C2FB681C00281DD1002E1BD000BFA7
:101A20001E4948681C49096888601B498268096822
:101A3000CA6019490968091D826851601649096818
:101A4000091D8160154A144909684A6111460968EF
:101A5000491C116018E07C190F4800684460BC42C2
:101A600006D20D480168091D009800F0B9FB0BE093
:101A700009480168091D019800F0B2FB0848006898
:101A8000844201D206480460FEBD00002800002008
:101A9000180000201C000020140000202C02002050
:101AA0004400002010B5044600F0B6FB2F48006843
:101AB000401C2E4908602E480068002808D12C4898
:101AC00004600846006801280ED100F0DBF90BE045
:101AD00028480068002807D125480068C06AE16AE4
:101AE000884201D82248046023480068401C2249EB
:101AF000086000BF00BF2149E06A0968884202D936
:101B00001E49E06A086000BF00BF1422E16A514329
:101B10001B4A89184868A0608268E260211D8268BB
:101B2000516081601422E16A5143154A8A1862614A
:101B30001422E16A5143124A5158491C1423E26AA3
:101B40005A430F4B995000BF00BF00F073FB094888
:101B50000068002809D000BF05480068C06AE16A33
:101B6000884201D200F0B4FB00BF10BD2400002069
:101B70001400002030000020400000202C00002035
:101B80001401002010B516E000F046FB0C48C068B8
:101B9000C468201D00F000FB0A480068401E094987
:101BA000086009480068401E0749086000F042FBD1
:101BB000204600F0ADF8044800680028E4D110BDCC
:101BC000180200202400002020000020F8B5044660
:101BD0000F46154600200090A66B206C002809D106
:101BE000206800282ED1A06800F05EFF0090002041
:101BF000A06027E0002D0FD13946226C6068FEF707
:101C0000CBFA216C606840186060A1686068884207
:101C100018D32068606015E03946226CE068FEF752
:101C2000BBFA216CE068411AE1602168E0688842F3
:101C300003D2216CA068411AE160022D02D1002E6E
:101C400000D0761E701CA0630098F8BDF0B587B078
:101C500001260027002409E013A0005D03A9085510
:101C600003A8005D002800D102E0641C102CF3DB07
:101C700000BF002511E00E4FA8000E4940180021BA
:101C80000B4680220091019003A9384600F020FE07
:101C90000646002E00D102E06D1C012DEBDB00BFDB
:101CA000304607B0F0BD000049444C45000000003C
:101CB000A91D000848000020FFB585B016460E9FFC
:101CC000B00000F0C7F90546002D0FD0542000F0F9
:101CD000C1F90446002C05D054212046FEF775FAC0
:101CE000256304E0284600F0B3FA00E00024002C4D
:101CF0000BD000210F980097029403910190324677
:101D0000089B0699059800F07CF8204609B0F0BDC4
:101D100010B50446206B00F09BFA204600F098FABC
:101D200010BD01464A6A002A04D00A6B12680A23D1
:101D3000981A00E00020704730B50523DB021548F3
:101D40004407640F002C05D0C01DC008C000114C12
:101D5000041B1B1B104C206000240F4D6C60C2182C
:101D6000083AD208D2000D4C226000240B4D2D6899
:101D70006C600A4D2D682C600146541A4C60074C6B
:101D800024680C60064D4C682C60064D4C682C6035
:101D900030BD000040020020540000205C00002004
:101DA000640000206000002000BFFFF7EBFE034846
:101DB00000680128F9D900F08BFAF6E71401002039
:101DC00010B50446002C0AD00020A060206000213D
:101DD000E16000231A461946204600F033FC10BD8E
:101DE000F8B506460D461746069C002D01D1246025
:101DF00000E02760E66325640121204600F0D8FB5F
:101E0000F8BDFFB581B00E460A9F0C9C216B03986C
:101E1000401E8000081800900098C008C000009084
:101E2000002E10D0002508E0715D20463430415569
:101E3000705D002800D102E06D1C102DF4D300BFAE
:101E40000021432001550A2F00D30927E762676468
:101E5000201D00F0C2F92046183000F0BEF92461C0
:101E60000A20C01BA0616462049A0199009800F0E6
:101E700083F920600B98002801D00B98046005B00E
:101E8000F0BD000010B5002406E0142161430E4AA5
:101E9000881800F095F9641C0A2CF6D30B4800F062
:101EA0008FF90B4800F08CF90A4800F089F90A48CC
:101EB00000F086F9094800F083F9044808490860F1
:101EC00003480849086010BD14010020DC0100200F
:101ED000F001002004020020180200202C02002043
:101EE000180000201C00002010B50146164800E034
:101EF000006803688B42FBD3024643689B188B4201
:101F000004D143684C681B19436001460A464B687C
:101F10009B180468A34211D10C4C03682468A342A7
:101F200008D04B68046864681B194B6003681B6821
:101F30000B6005E0054B1B680B6001E003680B605C
:101F4000884200D0016010BD540000205C000020D9
:101F500070B5054600F060F9A86B002801D1012496
:101F600000E0002400F066F9204670BD70B505461B
:101F700000F052F9A86BE96B884201D1012400E01E
:101F8000002400F057F9204670BD00000A480068A0
:101F90000068002801D1012000E00020002804D0C2
:101FA0000020C0430549086005E003480068C06898
:101FB00000680249086070471800002044000020B3
:101FC00072B600BFFEE770B5044600F025F9452063
:101FD000055713E0606A002801D1012000E00020CD
:101FE000002808D12046243000F016FE002803D037
:101FF00000F09AF900E003E0681E45B2002DE9DC2C
:1020000000BF0021C9434520015500F013F900F03D
:1020100003F94420055713E02069002801D101206D
:1020200000E0002000280AD12046103000F0F4FD26
:10203000002801D000F078F9681E45B200E001E008
:10204000002DE9DC00BF0021C9434420015500F008
:10205000F1F870BDFEB5044600200190002C23D09D
:102060000820C043844201D9012000E0002000285C
:1020700019D108346007400F002815D06007400FC1
:102080000821081A00900021C9430098081AA042AC
:1020900001D2012000E00020002802D1009824187D
:1020A00002E0002400E0002400F0D2F92848006893
:1020B000002801D1FFF740FEE017401C002842D065
:1020C000002C40D02348006884423CD8224E304641
:1020D000056801E02E462D686868A04202D2286893
:1020E0000028F7D11A48006885422CD030680830A3
:1020F0000190286830606868001B102807D92F19E4
:102100006868001B78606C6030683860376011491F
:1021100068680968081A0F490860084600680F498E
:102120000968884203D20B4800680C490860012105
:10213000C90768680843686000202860084800688C
:10214000401C0749086000F0F1FD0198FEBD000049
:102150005C0000206000002054000020640000208B
:102160006800002003490868002802D0816C491CDF
:102170008164704714000020001F01231B060360C8
:10218000001F0160001F034B0360143802602038F9
:1021900070470000C11F000801460A694B68886843
:1021A00098608B68486858605068884201D1886898
:1021B0005060002008611068401E10601068704771
:1021C0000146083141600021C94381600146083160
:1021D000C160016100210160704700210161704709
:1021E00010B502460B685C1C002C01D1106907E099
:1021F0001046083000E04068446824689C42FAD9E0
:1022000044684C604C68A160886041600A61146851
:10221000641C146010BD000072B605480068401CC4
:1022200003490860BFF34F8FBFF36F8F7047000003
:102230007000002005480068401E044908600846F8
:102240000068002800D162B67047000070000020CE
:1022500070B506463546002E1ED0083D2C466068F7
:10226000C00F002818D02068002815D160684000F1
:102270004008606000F0ECF80849606809684018A0
:10228000064908602046FFF72FFE05480068401CFD
:102290000349086000F04AFD70BD000060000020A6
:1022A0006C00002010B500200749086188617D217D
:1022B000C90006480068FDF759FF401E0249486101
:1022C0000720086110BD000000E000E010000020C1
:1022D0000120000703494860BFF34F8FBFF36F8FA2
:1022E0007047000000ED00E070B504460025002CAA
:1022F00008D000F0ADF800212046FFF77BFB00F08E
:1023000015FD0546002D01D1FFF7E2FF70BD00006D
:10231000034909680160034909684160704700008A
:102320003C0000202800002001200149086070477F
:102330003800002070B505460C4605480168183184
:102340002846FFF74DFF01212046FFF753FB70BDE4
:1023500014000020FEB506460F46344601200090CA
:10236000002E52D0606CB84201D23D4600E0656C50
:10237000E06AA84249D0A06C012846D1E06A0190E9
:10238000E562A069C00FC007002802D10A20401BE7
:10239000A06161691422019850431C4A801881424F
:1023A00001D1012000E0002000282ED0201DFFF7E1
:1023B000F3FE00BF00BF1649E06A0968884202D9EF
:1023C0001349E06A086000BF00BF1422E16A51436C
:1023D0000E4A89184868A0608268E260211D826800
:1023E000516081601422E16A5143084A8A1862618F
:1023F0001422E16A5143054A5158491C1423E26AE8
:102400005A43024B995000BF00BFFEBD140100208B
:102410002C00002010B5FFF719FC0446012C0CD14C
:1024200072B60020C04306490860012005490860D3
:1024300000200549086000F053F80448006810BD0A
:102440004400002030000020280000204C00002024
:1024500002480068401C0149086070475000002095
:102460001A480068002803D00120194908602BE0B1
:1024700000201749086000BF1648016800E0491EA7
:1024800014204843144A1058002801D1012000E0CC
:1024900000200028F3D100BF14224A430E4BD0186D
:1024A000426852684260024608324368934201D152
:1024B000C26842604268D268084B1A6000BF054893
:1024C000016000BF184600687047000050000020FF
:1024D000380000202C0000201401002014000020EF
:1024E00010B50B48006AFF21090408430849086237
:1024F0000846006AFF210906084305490862FFF7FC
:10250000D1FE002003490860FDF7E6FD002010BD64
:1025100000ED00E07000002010B5FDF7F1FD04466D
:1025200000F0F0F9002803D00120000702494860BC
:102530002046FDF7E9FD10BD00ED00E0F8B50446CA
:102540000126002722460021012000F006F805465A
:102550002846FFF735FC2846F8BDF7B582B004469B
:102560000E460025002C20D02146681EFDF7FEFDFA
:10257000B0421AD3204670434821C943884214D838
:102580002746774338464830FFF764FD0546002D5F
:102590000BD00195019D28464830019000953146A9
:1025A0002046049B019AFFF71BFC284605B0F0BDAE
:1025B000F8B505460E4601272C46002C3FD0E06BAF
:1025C00000283CD0B81EE16BFDF7D0FD216C88429D
:1025D00035D3FFF721FE216CE06B4843216840189A
:1025E000A0600020A06320686060E06B401E216C4A
:1025F000484321684118E160B91E44200155452037
:102600000155002E10D12069002801D1012000E0E1
:102610000020002810D12046103000F0FDFA0028DC
:102620000AD0FFF755FE07E020461030FFF7C8FD3F
:1026300020462430FFF7C4FDFFF7FCFD00E0002733
:102640003846F8BDFFB583B007461D46002002900E
:102650003C4600BFFFF7E0FDA06BE16B884201D371
:10266000022D1FD12A4620460499FFF7AFFA0646ED
:10267000606A002801D1012000E00020002808D174
:102680002046243000F0C8FA002806D0FFF720FECC
:1026900003E0002E01D0FFF71BFEFFF7CBFD01206A
:1026A00007B0F0BD0598002803D1FFF7C3FD002057
:1026B000F6E70298002804D16846FFF729FE0120BA
:1026C0000290FFF7B7FDFFF7C3FEFFF7A5FD44211A
:1026D0000857401C002802D1002144200155452103
:1026E0000857401C002802D1002145200155FFF762
:1026F000A1FD05A9684600F0B9F8002819D12046C7
:10270000FFF734FC00280ED0204610300599FFF763
:1027100011FE2046FFF757FC00F008FB002899D176
:10272000FFF7D6FD96E72046FFF74DFC00F0FEFAD6
:1027300090E72046FFF747FC00F0F8FA0020AFE7EB
:10274000F3B583B0054600272C460020009000BF5B
:10275000FFF762FDA66B002E1CD0701EA0632068E0
:10276000002802D1FFF7FEFCA0602069002801D1FB
:10277000012000E00020002807D12046103000F0A2
:102780004BFA002801D0FFF7A3FDFFF753FD01200E
:1027900005B0F0BD0498002803D1FFF74BFD0020E1
:1027A000F6E7002F03D101A8FFF7B2FD0127FFF7DD
:1027B00041FDFFF74DFEFFF72FFD44210857401C58
:1027C000002802D100214420015545210857401C12
:1027D000002802D1002145200155FFF72BFD04A957
:1027E00001A800F043F8002824D12046FFF7B0FBF1
:1027F000002819D02068002807D1FFF70DFDA06838
:1028000000F09EF90090FFF715FD20462430049952
:10281000FFF790FD2046FFF7D6FB00F087FA00286F
:1028200096D1FFF755FD93E72046FFF7CCFB00F06C
:102830007DFA8DE72046FFF7C6FB00F077FA2046C9
:10284000FFF786FB002883D0009800280BD0FFF705
:10285000E3FC2046FFF765FA06463146A068FFF71D
:1028600079FDFFF7E7FC002092E7000070B506460F
:102870000C46FFF7D1FC144802687068131A2068F0
:10288000401C002801D1002519E010493068096872
:10289000884206D07068904203D80125002020604D
:1028A0000DE02068984207D92068C01A20603046A1
:1028B000FFF72EFD002502E0002020600125FFF734
:1028C000B9FC284670BD0000280000203C00002014
:1028D000FFB583B006460C9F0D98009701903046D7
:1028E00004A90EC9FFF7E8F90546002D04D02846D3
:1028F000FFF7D8F8012401E00024E443204607B0A4
:10290000F0BD0000F8B5002000905C480068002889
:102910007ED15B480068451C59480560002D10D1E8
:1029200000BF58480768584800685649086056482C
:10293000076056480068401C54490860FFF726FBB2
:1029400000BF5348006885427ED300BF4D480068F1
:102950000068002801D1012000E00020002804D0F8
:102960000020C0434A4908606DE046480068C068DE
:10297000C4686668B54202D24548066063E000BF9D
:102980006069E268A1688A60A268E1684A60211D06
:1029900042688A4201D1E1684160002262610168B7
:1029A000491E016000BFA06A002814D000BFA06AC1
:1029B000226AE1698A60E269216A4A602146183127
:1029C00042688A4201D1216A41600022A262016804
:1029D000491E016000BF00BF00BF2E49E06A0968C0
:1029E000884202D92B49E06A086000BF00BF142268
:1029F000E16A5143284A89184868A0608268E26009
:102A0000211D8268516081601422E16A514300E017
:102A10002CE0214A8A1862611422E16A51431E4A5D
:102A20005158491C1423E26A5A431B4B995000BF6A
:102A300000BF1A49E06A0968C96A884286D901203C
:102A4000009083E700E000BF14480068C06A1421CA
:102A5000484311490858012801D901200090104825
:102A60000068002801D00120009004E00D480068B3
:102A7000401C0C4908600098F8BD00005000002080
:102A800028000020180000201C0000203C0000202E
:102A9000440000202C00002014010020140000201D
:102AA000380000203400002070B505462C46002672
:102AB000002D3FD0A06C401EA064616CE06A88428B
:102AC00038D0A06C002835D1201DFFF765FB606C65
:102AD000E0620A21E06A081AA06100BF00BF16493F
:102AE000E06A0968884202D91349E06A086000BFB9
:102AF00000BF1422E16A5143104A89184868A06057
:102B00008268E260211D8268516081601422E16A5E
:102B100051430A4A8A1862611422E16A5143074A02
:102B20005158491C1423E26A5A43044B995000BF80
:102B300000BF0126304670BD2C000020140100208B
:102B400070B505462C460026002D5DD02F49E06A61
:102B50000968C96A884250D2A069C00FC00700281E
:102B600005D12A480068C06A0A21081AA061142207
:102B7000E06A5043264A80186169814201D10120F0
:102B800000E00020002832D0201DFFF705FB1F4881
:102B90000068C06AE06200BF00BF1E49E06A0968C1
:102BA000884202D91B49E06A086000BF00BF1422B6
:102BB000E16A5143164A89184868A0608268E26059
:102BC000211D8268516081601422E16A5143104ADC
:102BD0008A1862611422E16A51430D4A5158491C16
:102BE0001423E26A5A430A4B995000BF03E0074896
:102BF0000068C06AE062012606E00449606C09686A
:102C0000C96A884200D20126304670BD14000020F7
:102C1000140100202C00002070B50346D868C1685C
:102C200000BF886A0D6ACC69A560CD690C6A6560D1
:102C30000C4618344568A54201D10C6A4460002551
:102C40008D620468641E046000BF3248006800287A
:102C50003FD100BF4869CD688C68A5608D68CC689D
:102C600065600C1D4568A54201D1CC684460002513
:102C70004D610468641E046000BF00BF00BF264CA5
:102C8000C86A2468A04202D9234CC86A206000BFE9
:102C900000BF1425CC6A6C43204D641960688860BD
:102CA0008568CD600C1D85686C6084601425CC6AD5
:102CB0006C431A4D65194D611425CC6A6C43174D50
:102CC0002C59641C1426CD6A7543144E745100BFF0
:102CD00011E000BF124C6068C86185680D620C4647
:102CE000183485686C6084600D4D8D622C462468B4
:102CF000641C2C6000BF0B4CC86A2468E46AA042C4
:102D000004D901220120084C206000E00022104676
:102D100070BD0000500000202C0000201401002095
:102D2000040200201400002038000020F8B5002420
:102D30000026FFF771FA002550480068401E4F49F1
:102D400008600846006800287ED14D4800680028C9
:102D50007AD061E04B48C068C46800BFA06A226AAC
:102D6000E1698A60E269216A4A6021461831426855
:102D70008A4201D1216A41600022A2620168491E93
:102D8000016000BF00BF6069E268A1688A60A26854
:102D9000E1684A60211D42688A4201D1E1684160D0
:102DA000002262610168491E016000BF00BF00BFD0
:102DB0003549E06A0968884202D93349E06A086007
:102DC00000BF00BF1422E16A5143304A89184868A5
:102DD000A0608268E260211D8268516081601422D7
:102DE000E16A5143294A8A1862611422E16A514317
:102DF000264A5158491C1423E26A5A43234B9950DE
:102E000000BF00BF2249E06A0968C96A884203D945
:102E10000120A9001F4A50501A480068002801D11B
:102E2000012000E00020002894D0002C01D0FFF702
:102E3000ADF819480768002F10D000BFFFF762FDFA
:102E4000002805D0012000E014E0A900114A5050EC
:102E50007F1E002FF2D100200F490860A8000D4905
:102E60000858002806D0012600BF09480068FFF76F
:102E70002FFA00BFFFF7DEF93046F8BD5000002002
:102E800024000020040200202C0000201401002057
:102E9000140000203800002034000020081C3044BA
:102EA000586C8000000000000000000102030406CE
:102EB000070809000000000102030400A0860100C9
:102EC000400D0300801A060000350C0040420F0040
:102ED00080841E0000093D0000127A000024F400E6
:102EE00000366E010048E801006CDC020C2F00087F
:102EF0000000002080000000A61800088C2F0008A9
:102F000080000020C02D0000B6180008000000005E
:102F100000000000040000000100000000093D0066
:102F200000000000000000000000000000000000A1
:102F30000000000000000000000000000000000091
:102F40000000000000000000000000000000000081
:102F50000000000000000000090000000000000068
:102F60000000000000000000000000000000000061
:102F7000000000000000000000000000AAAAAAAAA9
:0C2F800000000000000000000000000045
:04000005080000C12E
:00000001FF
