:020000040800F2
:100000004047002051010008B52A0008A329000834
:1000100000000000000000000000000000000000E0
:10002000000000000000000000000000652B000838
:1000300000000000000000000F010008672B00080E
:100040006301000863010008630100086301000800
:1000500063010008630100086301000863010008F0
:1000600063010008630100086301000863010008E0
:1000700063010008630100086301000863010008D0
:1000800063010008630100086301000863010008C0
:1000900063010008630100086301000863010008B0
:1000A00063010008630100086301000863010008A0
:1000B000630100088D3B000863010008630100082C
:1000C0000448854600F020FA00480047A13D00089A
:1000D000C046C04640470020084B196808682030D9
:1000E00080F30988022080F31488BFF36F8F3FBC30
:1000F000AE4608BC04BC62B61847000018000020D9
:10010000EFF3108072B6704780F310887047EFF3FA
:1001100009800E4B1A6820381060F0C044464D46E6
:1001200056465F46F0C008B572B605F0D9FF62B614
:100130000CBC116808681030F0C8A046A946B24649
:10014000BB4680F309882038F0C818471800002003
:100150000448804704480047FEE7FEE7FEE7FEE765
:10016000FEE7FEE7D12B0008C100000830B50B46C2
:10017000014600202022012409E00D46D5409D4281
:1001800005D31D469540491B254695404019154607
:10019000521E002DF1DC30BD70B50024254600282C
:1001A00001DA01244042002901DA01254942FFF722
:1001B000DDFFAC4200D04042002C00D0494270BD6F
:1001C000F0B51FB40646002082B0054640240191D8
:1001D00000901BE0019922460F46304600F042F99C
:1001E000049A059B801A994110D31046194622465D
:1001F00000F028F9361A8F4101972246012000218C
:10020000009F00F01FF938184D4100902046641EF1
:100210000028DFDC019B00982946324607B0F0BD7C
:10022000F0B51FB486B000200090019002900698AF
:10023000069980B204900798090C02040014114337
:1002400007900027089D099806913E463C4603907A
:100250000398A9B20204000C039004982D0C1543D6
:1002600048430021224600F0EDF8C71971411034CF
:100270000E46402CECDB3846029A00F0E3F8009A78
:10028000019B801800905941029801911030029012
:100290004028CCDB00980BB0F0BD03460B439B0716
:1002A00003D009E008C9121F08C0042AFAD203E0EB
:1002B0000B780370401C491C521EF9D27047D2B211
:1002C00001E00270401C491EFBD270470022F6E795
:1002D00010B513460A4604461946FFF7F0FF2046BC
:1002E00010BD421C0178401C0029FBD1801A7047C8
:1002F00010B5002200E0521C835C8C5CA34201D14B
:10030000002BF8D1D8B2E1B2401A10BD30B5054685
:100310000020034600E05B1C934205D2EC5CC85C05
:10032000201A01D1002CF6D130BD024670B54A40EA
:10033000D30FDB0740002DD04A002AD0010E140E47
:10034000000212020919400A520A8418E501044603
:100350005443000A120A2E045043A4194219200CD7
:10036000C543AA18120C0125AD03521C52191204E0
:100370007F39240400D0521C104301D44000491E90
:10038000C2B20C06C0092018401C4008802A02D0C6
:1003900003E0002070BD40084000002900DA002082
:1003A000184370BD70B502464A40D50F40004A0060
:1003B000ED0740085208002814D0002A12D0C40DBE
:1003C000D30D41020120C0055202490A520AE41A23
:1003D000091812187D34914201D3641C00E04900D1
:1003E000002C01DA002070BD0023914201D3891A4C
:1003F0000343400849000028F7D100290AD0914260
:1004000002D10121C90705E0914201D2012101E099
:100410000121C943E005C018401900F034F870BD4F
:10042000C217C10F504010B54018CA0796230021CB
:1004300000F031F810BD10B500229623114600F0EF
:100440002AF810BD10B5202A04DB0146203A91405D
:10045000002010BD914020239C1A0346E34019431D
:10046000904010BD10B5202A04DB0846203AD04049
:10047000002110BD0B46D340D0402024A21A914049
:100480000843194610BD002904DA401C490001D177
:1004900040084000704770B40024050C05D11024BA
:1004A000000402D1002921D01124050E01D100023F
:1004B0000834050F01D10001241D850F01D18000F2
:1004C000A41C002801DB4000641C002908D0202562
:1004D0002E1B0D46F540A14000D0012129430843C1
:1004E00001061B1B000ADB1D02D5002070BC7047F3
:1004F000DB05181880180029F8DA401C4900F5D1EE
:1005000070BC400840007047064C0125064E05E0CF
:10051000E36807CC2B430C3C98471034B442F7D324
:10052000FFF7D2FD2C6F00084C6F000872B600BFB9
:10053000FEE70146002901D1012070472520405CDB
:10054000022808D00420C86300BF0022242042549F
:1005500000BF0120F1E7086800680E2290430A6896
:100560001060886C0068FF22013290438A6C106032
:1005700008680068400840000A6810601C22486C47
:10058000104001228240086C4260CA6C086D5060C5
:10059000486D002809D0486D0068FF220132904361
:1005A0004A6D10608A6DC86D50600122252042544A
:1005B00000BF00222420425400BF0020BDE770B5D8
:1005C000044600252520005D022803D00420E063B6
:1005D000012537E0206800680E2188432168086003
:1005E000206800684008400021680860A06C00682E
:1005F000FF2101318843A16C08601C21606C084018
:1006000001218140206C4160E16C206D4860606D8B
:10061000002809D0606D0068FF2101318843616DB9
:100620000860A16DE06D486001212520015500BFE3
:1006300000212420015500BFA06B002802D02046D5
:10064000A16B8847284670BD70B502460B46002155
:10065000E1E001268E401C683440002C73D01D79E7
:10066000AD07AD0F012D04D01D79AD07AD0F022DE3
:1006700018D190684E000325B5400646AE4330467B
:100680004E00DD68B54028439060506801258D40DC
:100690000646AE43304610265D6835402D098D4034
:1006A000284350601D79AD07AD0F032D0BD0D068E6
:1006B0004E000325B5400646AE4330464E009D68C9
:1006C000B5402843D0601D79AD07AD0F022D15D17F
:1006D000CD08AE0015462035A8594D07EE0E0F2562
:1006E000B5400646AE4330464E07F60E1D69B5408E
:1006F0002843CD08AD0016462036705110684E00D4
:100700000325B5400646AE4330461D79AD07AD0F13
:100710004E00B54028431060032636045D6835401E
:10072000002D77D03F4D8E08B600A8598D07EE0EEC
:100730000F25B5400646AE43304605252D07AA4293
:1007400002D100251AE065E0374DAA4201D101250A
:1007500014E0364DAA4201D102250FE0344DAA42E1
:1007600001D103250AE0334DAA4201D1042505E059
:10077000314DAA4201D1052500E006258E07F60E6F
:10078000B5402843274D8E08B600A851254D603D41
:1007900028680546A5432846012636055D6835408C
:1007A000002D02D00546254328461E4D603D286099
:1007B00068680546A5432846012676055D683540EC
:1007C000002D02D0054625432846164D603D686041
:1007D000144D203568680546A54328460126760451
:1007E0005D683540002D02D00546254328460D4D55
:1007F0002035686028680546A5432846012636044A
:100800005D683540002D02D0054625432846054D3C
:1008100020352860491C1D68CD40002D00D018E708
:1008200070BD000060180240000400500008005035
:10083000000C0050001000500014005010B5426928
:1008400013460B401B040C4694432343836110BDA5
:10085000002A01D0816100E0816270470148006890
:10086000704700000800002010B50024032000F0AD
:1008700009F8002801D0012401E000F033F82046F7
:1008800010BD0000F8B50446002513480068002894
:100890001ED0114801687D20C000FFF767FC0746A5
:1008A00039460E480068FFF761FC064601F0A0FBE0
:1008B00000280BD1042C07D200222146401E00F054
:1008C00045F80748046004E0012502E0012500E046
:1008D00001252846F8BD000010000020140000206B
:1008E0000C00002008B500BF0E48806901210907EF
:1008F00008430C49886108468069890508400090D2
:1009000000BF00BF00BF0748006A01210843054936
:1009100008620846006AC007C00F009000BF00BF11
:1009200008BD0000401002400146002909DB00BF5D
:1009300000BFCB06DB0E01229A40034B1A6000BFBA
:1009400000BF00BF7047000000E100E070B5044642
:100950000D4616462946204603F02EF970BD0000CC
:1009600070B505460120400285422CD12048006820
:100970000321490208402946884237D01C480068B4
:100980000321490288434019194908601949096837
:100990003222514308461849FFF7E8FB441C00E0A7
:1009A000641E13484069012189020840884201D130
:1009B000002CF5D10E484069012189020840884287
:1009C00014D1032070BD0A48006803214902084081
:1009D00001218902884209D00548006803214902A3
:1009E0008843012189024018014908600020E9E795
:1009F000007000401400002040420F0002480068D0
:100A0000032149020840704700700040FEB50446CB
:100A10004648C0687F2109020840060A4348C0686A
:100A20008007800F01904148C0687021084000098C
:100A3000401C00903D48006808210840002804D070
:100A40003A480068F021084006E0384880304069A4
:100A50000F2109020840000907090B2F00D90B27B5
:100A6000019801280BD0022802D0032817D10FE0EB
:100A70002F480099FFF77AFB7043054618E0B9004C
:100A80002C4A50580099FFF771FB704305460FE060
:100A900029480099FFF76AFB7043054608E0B90052
:100AA000244A50580099FFF761FB7043054600BF88
:100AB00000BF1E48C06801210904084000280BD06F
:100AC0001A48C0681F2252041040400C411C28469E
:100AD000FFF74CFB206001E0002020601348C06855
:100AE00001210906084000280BD01048C0680722E1
:100AF00052061040400E411C2846FFF737FB60604D
:100B000001E0002060600948C06801210907084031
:100B1000002808D00548C068400F411C2846FFF750
:100B200025FBA06001E00020A060FEBD0010024097
:100B30000024F400746B000800093D00FEB5064671
:100B400000270120C003864236D1FC4804690321F6
:100B500009020C40E01FF938002808D0FF3801389E
:100B600000280CD0FF380138002823D118E0F348C2
:100B7000006902210840022800D187031BE0EF48EA
:100B8000406902210840022809D1EC48406904214B
:100B90000840042801D1FA2701E07D273F020AE03E
:100BA000E64880380068012149040840884200D1A5
:100BB000E34F00E000BF29E3FF210131701A8E42AC
:100BC00072D012DC102E70D008DC012E31D0022E33
:100BD00059D0042E6AD0082E69D1BCE0202E67D0EF
:100BE000402E74D0802EF7D183E11F221202811A89
:100BF00090426DD010DCFF380138002869D0FF38F2
:100C0000FF380238002870D001218902401A6DD0C7
:100C10004900401AE0D175E201204003081A7CD057
:100C200003218903401A62D001210904401AD3D15B
:100C30005EE0C24880688407A40F002C06D0012C17
:100C400008D0022C0AD0032C1AD111E000F08AFD42
:100C5000074616E000F09AFD074612E0B7488038D4
:100C60000068012189020840884200D1B54F08E0A0
:100C7000B248006902210840022800D1870300E041
:100C800000BF00BFC1E2AD4884680C210C40002CBD
:100C900006D0042C0DD0082C0FD00C2C22D119E03A
:100CA00000F060FD07461EE066E125E084E0ABE26F
:100CB000D6E000F06BFD074615E0A04880380068DC
:100CC000012189020840884200D19E4F0BE0EBE0F1
:100CD00059E290E19948006902210840022800D1B8
:100CE000870300E000BF00BF8FE2C3E1E6E100BF81
:100CF00000F038FD074688E29048846803218902A5
:100D00000C40002C0AD00015201A0BD001218902BA
:100D1000401A0BD0401A1BD112E077E000F022FD00
:100D2000074616E000F032FD074612E0834880389F
:100D30000068012189020840884200D1814F08E003
:100D40007E48006902210840022800D1870300E0A4
:100D500000BF00BF59E279488468032109020C40B2
:100D6000002C0CD0E01FF93800280CD0FF380138D7
:100D700000280CD0FF38013800281AD111E000F00B
:100D8000F1FC074616E000F001FD074612E06B4853
:100D900080380068012189020840884200D1694FEB
:100DA00008E06648006902210840022800D1870354
:100DB00000E000BF00BF28E260488468C0210C400A
:100DC000002C06D0402C08D0802C0AD0C02C1AD180
:100DD00011E000F0C7FC074616E000F0D7FC07461C
:100DE00012E0564880380068012189020840884294
:100DF00000D1544F08E05148006902210840022800
:100E000000D1870300E000BF00BFFEE14B488468CB
:100E1000032109070C40002C0AD00F2000072018DE
:100E2000002815D00F2109074018002815D103E02C
:100E300000F0ACFC074611E0404880380068012112
:100E400089020840884201D13E4F00E0002705E0BA
:100E50006846FFF7DBFD009F00E000BF00BFD4E164
:100E600036488468032109030C40002C07D0801405
:100E7000201A08D001210903401A12D107E000F01E
:100E800071FC07460EE000F081FC07460AE02B48A3
:100E900080380068012189020840884200D1294F2A
:100EA00000E000BF00BFB0E12448846803210904CA
:100EB0000C40002C08D001200004201A08D0012189
:100EC0000904401A12D107E000F04CFC07460EE07E
:100ED00000F05CFC07460AE01848803800680121F1
:100EE00089020840884200D1164F00E000BF00BFD1
:100EF0008BE112488468032189040C40002C0AD03D
:100F000001208004201A0AD001218904401A1ED031
:100F1000401A2ED124E000F025FC07462AE00748BD
:100F2000406902210840022810D104484069042188
:100F30000840042808D1FA2708E000008010024089
:100F400048E801000024F4007D273F0212E0B04889
:100F50000068012189020840884200D1AD4F09E0B4
:100F6000AB488030006902210840022800D1870385
:100F700000E000BF00BF48E1A5488030846803213D
:100F800009050C40002C0AD001200005201A0AD0C7
:100F900001210905401A19D0401A29D11FE000F09B
:100FA000E1FB074625E09A4880304069022108406D
:100FB00002280AD19648803040690421084004285C
:100FC00001D1FA2701E07D273F0212E09048006836
:100FD000012189020840884200D18E4F09E08C48E7
:100FE0008030006902210840022800D1870300E018
:100FF00000BF00BF09E1864880308468032189056D
:101000000C40002C0AD001208005201A0AD00121B2
:101010008905401A19D0401A29D11FE000F0A2FB1F
:10102000074625E07A4880304069022108400228BE
:101030000AD177488030406904210840042801D152
:10104000FA2701E07D273F0212E071480068012184
:1010500089020840884200D16E4F09E06C48803018
:10106000006902210840022800D1870300E000BF88
:1010700000BFCAE0664880308468012109060C4040
:10108000002C04D048422018002814D10EE06048FB
:101090008068072109030840002803D100F062FBA3
:1010A000074602E000F05EFB470005E06846FFF7F8
:1010B000ADFC019F00E000BF00BFA6E054488030B7
:1010C0008468012149060C40002C04D048422018B5
:1010D000002814D10EE04E4880680721090308401B
:1010E000002803D100F03EFB074602E000F03AFB87
:1010F000470005E06846FFF789FC019F00E000BF5C
:1011000000BF82E0424880308468032189060C4099
:10111000002C33D03F2080062018002809D03F2122
:1011200089064018002824D04018002828D13A4FBA
:1011300027E03748006802210840022818D13448C7
:10114000006808210840002804D031480068F021D8
:10115000084006E02E48803040690F21090208400F
:10116000000905090B2D00D90B25A8002B490F58A4
:1011700007E06846FFF74AFC019F02E0002700E015
:1011800000BF00BF41E02248803084680321890607
:101190000C40002C33D03F2080062018002809D0B6
:1011A0003F2189064018002824D04018002828D163
:1011B000194F27E01648006802210840022818D17C
:1011C0001348006808210840002804D0104800682F
:1011D000F021084006E00E48803040690F210902E6
:1011E0000840000905090B2D00D90B25A8000B4963
:1011F0000F5807E06846FFF709FC019F02E000274F
:1012000000E000BF00BF00E000BF00BF3846FEBDE9
:10121000001002400024F400006CDC02746B000833
:10122000FEB504460027002002900121C903206872
:10123000084088427BD100200190DD488069490345
:10124000084000280ED100BFD94880690843D8491A
:1012500088610846806989050840009000BF00BF8A
:1012600001200190D3480068FF2101310843D14992
:101270000860FFF7F3FA064606E0FFF7EFFA801B77
:10128000022801D9032706E0CA480068FF2101317E
:1012900008400028F1D000BF002F4BD1C448403097
:1012A0000569032109020D40002D1AD0206CA842C7
:1012B00017D0BF484030006988430546BC484030DD
:1012C0000069012109040843B94940310861084611
:1012D0000069012109048843B54940310861084685
:1012E0000561E807C00F002813D0FFF7B7FA0646DC
:1012F00007E0FFF7B3FA801BAF49884201D9032703
:1013000006E0AB4840300069022108400028F0D0D8
:1013100000BF002F0CD1A64840300069032109020C
:101320008843216C0843A2494031086103E00DE085
:10133000029700E002970198012806D19C48806935
:101340000121090788439A49886100BF2078C007B6
:10135000C00F002809D0964840308068800880007F
:101360006168084392494031886002212068084042
:10137000022809D18E48403080680C218843A1683A
:1013800008438B49403188601021206808401028AC
:101390000AD1874840308068032189028843616907
:1013A00008438349403188600821206808400828A4
:1013B0000AD17F48403080680321090288432169AF
:1013C00008437B4940318860042120680840042894
:1013D00009D1774840308068C0218843E1680843DC
:1013E00073494031886020212068084020280AD1B4
:1013F0006F4840308068032109038843A16908438E
:101400006B494031886040212068084040280AD15B
:10141000674840308068032109048843E169084334
:1014200063494031886080212068084080280AD1C3
:101430005F4840308068032189048843216A08435B
:101440005B4940318860FF210131206808408842B3
:101450000AD1574840308068032109058843616AF2
:1014600008435349403188600121490220680840FF
:1014700088420AD14E48403080680321890588435C
:10148000A16A08434A4940318860012189032068E4
:101490000840884216D18903E06B884207D144484E
:1014A0004038C0680913084341494039C860404882
:1014B00040308068032109078843E16B08433C49B9
:1014C000403188600121090320680840884216D114
:1014D000C903606B884207D135484038C068C910DD
:1014E000084333494039C86031484030806803219F
:1014F00089068843616B08432D494031886001218A
:10150000490320680840884216D18903A06B8842AD
:1015100007D127484038C068C910084324494039DA
:10152000C860234840308068032189068843A16B46
:1015300008431F4940318860012189022068084022
:10154000884215D18903E06A884206D1184840389C
:10155000C068084316494039C86015484030806863
:10156000012109068843E16A084311494031886036
:101570000121C90220680840884216D18903206BE6
:10158000884207D10A484038C068491008430849D2
:101590004039C86006484030806801210906884308
:1015A000216B08430249403188600298FEBD00006B
:1015B000401002400070004088130000F8B5044657
:1015C0000D46604800684007400FA8420ED25D48B3
:1015D0000068C008C00028435A49086008460068EF
:1015E0004007400FA84201D00120F8BD2078C00775
:1015F000C00F00285FD06068032808D152480068F7
:10160000012149060840002839D10120EDE7606832
:10161000022808D14C4800680121490408400028EC
:101620002DD10120E1E76068002807D14648006815
:1016300002210840002822D10120D6E76068012855
:1016400008D141480068012189020840002816D1CC
:101650000120CAE76068042808D13B48803040690F
:101660000221084000280AD10120BEE73648803018
:10167000006902210840002801D10120B5E7324865
:101680008068C008C000616808432F498860FFF780
:10169000E5F8064607E0FFF7E1F8801B2B49884292
:1016A00001D90320A1E728488068382108406168F3
:1016B000C9008842EFD1022120680840022808D1E1
:1016C000214880680F2109028843A16808431E4908
:1016D00088601C4800684007400FA8420ED919488E
:1016E0000068C008C0002843164908600846006822
:1016F0004007400FA84201D0012076E7042120686E
:101700000840042808D1104880680721090388434D
:10171000E16808430C49886000F038F80A49896894
:101720000F2212021140090A094A515CC906C90E6A
:10173000C840084908600320FFF7A4F80746384668
:1017400053E7000000200240001002408813000010
:101750005B6B00081400002001480068704700001F
:101760001400002000B5FFF7F7FF0649896807223B
:1017700012031140090B044A515CC906C90EC84046
:1017800000BD0000001002406B6B0008F0B585B092
:101790000025002004903C48806838210840044619
:1017A0003948C0688007800F0090002C04D0182CA6
:1017B0001FD1009801281CD1334800680821084037
:1017C000002807D13048803040690F2109020840C5
:1017D000050A04E02C480068F021084005090B2D9B
:1017E00000D90025A80029490D58002C16D10495D0
:1017F00014E0082C02D1264804900FE0102C02D1EE
:10180000244804900AE0202C03D17D20000204909B
:1018100004E0282C02D10120C0030490182C2FD101
:101820001948C0688707BF0F1748C0687021084073
:101830000009401C0190012F09D0022F02D0032F74
:1018400004D101E0124E04E0124E02E000BF2E4629
:1018500000BF00BF0C49C9687F2212021140090A6B
:10186000714308460199FEF781FC03900648C06861
:10187000400F401C029002990398FEF777FC0490F9
:10188000049805B0F0BD000000100240746B000821
:101890000024F40000093D00FEB50446F7488068C6
:1018A000382108400646F548C0688007800F02903E
:1018B00010212068084010287DD1002E04D0182E59
:1018C0007AD1029801287FD1EC48006802210840B3
:1018D000002804D0E069002801D10120FEBDE748BE
:1018E000616A006808221040002804D0E3480068BC
:1018F000F022104006E0E148803040690F221202D9
:1019000010400009814221D9606A01F0D5F8002811
:1019100001D00120E2E700BFD84800680821084351
:10192000D649086008460068F0218843616A084388
:10193000D249086000BF08464068FF210902884379
:10194000216A09020843CD49486022E000BFCB4824
:10195000006808210843C949086008460068F0216A
:101960008843616A0843C549086000BF084640686B
:10197000FF2109028843216A09020843BF494860E0
:10198000002E06D1606A01F097F8002801D00120EE
:10199000A4E7FFF7FBFEB94989680F221202114044
:1019A000090AB74A515CC906C90EC840B549086062
:1019B000B548006801E03BE006E0FEF763FF07463C
:1019C000002F4DD0384689E7E069002831D0AB4878
:1019D000006801210843A9490860FEF73FFF05465A
:1019E00006E0FEF73BFF401B022801D9032075E704
:1019F000A2480068022108400028F2D000BF9F489A
:101A00000068082108439D49086008460068F021E5
:101A10008843616A08439949086000BF08464068E6
:101A2000FF2109028843216A09020843934948605B
:101A300016E0924800684008400090490860FEF7B0
:101A40000DFF054606E0FEF709FF401B022801D9FD
:101A5000032043E789480068022108400028F2D1AA
:101A60002078C007C00F002859D0102E04D0182E9F
:101A70000ED1029803280BD1804800680121490447
:101A8000084000284BD06068002848D1012025E795
:101A900000BF012109046068884205D177480068C9
:101AA00008437649086011E005210904606888420E
:101AB00005D17248006808437049086006E06F4825
:101AC00000680521090488436C49086000BF60680C
:101AD000002812D0FEF7C2FE054606E0FEF7BEFE65
:101AE000401B642801D90320F8E6644800680121FE
:101AF000490408400028F1D011E0FEF7AFFE05468A
:101B000006E0FEF7ABFE401B642801D90320E5E6A2
:101B10005A4800680121490408400028F1D10221F7
:101B20002068084002285DD1082E04D0182E19D153
:101B30000298022816D15148006801218902084004
:101B4000002804D0E068002801D10120C6E64B48F7
:101B500040687F2109068843217C090608434749DC
:101B600048603FE0E068002823D044480068FF2137
:101B70000131084341490860FEF770FE054606E062
:101B8000FEF76CFE401B022801D90320A6E63B4865
:101B900000680121890208400028F1D037484068D8
:101BA0007F2109068843217C0906084333494860A0
:101BB00018E032480068FF21013188432F4908604E
:101BC000FEF74CFE054606E0FEF748FE401B0228E5
:101BD00001D9032082E629480068012189020840D2
:101BE0000028F1D1082120680840082855D16069F3
:101BF00000282FD0A069002808D1204880304069F3
:101C0000042188431D498031486107E01B4880302A
:101C100040690421084319498031486117488030E0
:101C2000406901210843154980314861FEF716FEDD
:101C3000054606E0FEF712FE401B112801D90320DD
:101C40004CE60E48803040690221084040080028D8
:101C5000F0D022E009488030406940084000074940
:101C600080314861FEF7FAFD05460FE0FEF7F6FD0C
:101C7000401B11280AD9032030E600000010024062
:101C80005B6B0008140000200C000020D448406961
:101C90000221084040080028E8D1042120680840BB
:101CA00004286FD100200190CD4840388069890612
:101CB0000840002810D100BFC94840388069084357
:101CC000C749403988610846806989050840009005
:101CD00000BF00BF01200190C2480068FF21013110
:101CE0000840002816D1BF4800680843BD49086075
:101CF000FEF7B4FD054606E0FEF7B0FD401B0228E6
:101D000001D90320EAE5B7480068FF210131084006
:101D10000028F1D0207AC007C00F002817D0042176
:101D2000A068084000280BD0AD4800690843AC49C2
:101D300008610846006901210843A949086112E0C9
:101D4000A748006901210843A54908610BE0A448A0
:101D5000006940084000A249086108460069042162
:101D600088439F490861A068002844D0FEF776FDAB
:101D7000054608E0FEF772FD401B9B49884202D9E8
:101D80000320ABE571E09648006902210840002875
:101D9000F0D08021A0680840002815D09048006944
:101DA00008438F49086107E0FEF758FD401B8E4944
:101DB000884201D9032091E5894800690121C902BF
:101DC00008400028F0D043E085480069802188431E
:101DD0008349086107E0FEF741FD401B82498842C4
:101DE00001D903207AE57E4800690121C902084033
:101DF0000028F0D12CE0FEF731FD054607E0FEF7A4
:101E00002DFD411B7848814201D9032066E57448C5
:101E10000069022108400028F1D171480069802141
:101E20000840002814D06E48006988436C49086156
:101E300007E0FEF713FD401B6B49884201D90320E0
:101E40004CE5674800690121C90208400028F0D12B
:101E50000198012808D162484038806901210907AA
:101E600088435F494039886100BF202120680840CD
:101E7000202831D1A06A002817D059488069012153
:101E8000084357498861FEF7E9FC054606E0FEF77E
:101E9000E5FC401B022801D903201FE5504880695A
:101EA000022108400028F2D016E04D488069400821
:101EB00040004B498861FEF7D1FC054606E0FEF77D
:101EC000CDFC401B022801D9032007E54448806966
:101ED000022108400028F2D1E06A00287DD0404865
:101EE0008038806838210840182874D0E06A0228B9
:101EF00053D13B488038006801210906884338499E
:101F000080390860FEF7AAFC054606E0FEF7A6FC4D
:101F1000401B022801D90320E0E4314880380068E2
:101F20000121490608400028F0D1616B206B08436D
:101F3000A16B09020843216C0843616C0843E16B03
:101F4000084327498039C968284A11400843244971
:101F50008039C8600846C0680904084320498039B0
:101F6000C860084600680121090608431C498039F9
:101F70000860FEF773FC054606E0FEF76FFC401BA9
:101F8000022801D90320A9E41548803800680121FE
:101F9000490608400028F0D01FE01148803800684A
:101FA0000121090688430E4980390860FEF756FC76
:101FB000054606E0FEF752FC401B022801D903202B
:101FC0008CE4074880380068012149060840002851
:101FD000F0D102E0FFE7012080E400207EE4000071
:101FE0008010024000700040881300008C80C111F6
:101FF00070B504462546681E0949884201D901206A
:102000000CE0681E074948610321081F01F0D4FD58
:1020100000200449886107200861002070BD00008D
:10202000FFFFFF0000E000E0014600BF8420405CAD
:10203000012801D10220704701238420435400BFAE
:102040002423882043500868026808680068400814
:1020500040000B68186001235B0710469843024656
:10206000002048660868026020238820435000BF93
:1020700000238420435400BF0020DCE770477047F2
:1020800070B504460D4600BF8420005D012801D1D3
:10209000022070BD01218420015500BF2421882029
:1020A00001512068066820680068400840002168E7
:1020B0000860206880680721490688432843216812
:1020C0008860204600F0A8FD206806602021882056
:1020D000015100BF00218420015500BF0020D8E736
:1020E00070B504460D4600BF8420005D012801D173
:1020F000022070BD01218420015500BF24218820C9
:102100000151206806682068006840084000216886
:10211000086020688068C000C00828432168886083
:10212000204600F079FD20680660202188200151BA
:1021300000BF00218420015500BF0020D9E770476F
:1021400070477047F0B585B004462068C5692068BF
:10215000066820688768FA4828400390039800289A
:1021600014D120202840002810D020203040002802
:1021700004D1012000073840002807D0606F0028F4
:1021800002D02046616F884705B0F0BD0398002853
:102190007ED0EC483840002803D1EB48304000287E
:1021A000F6D0E807C00F00280DD0FF2001303040E6
:1021B000002808D0012021680862902000590121E0
:1021C0000843902108510220284000280CD0F8072D
:1021D000C00F002808D00220216808629020005912
:1021E00004210843902108510420284000280CD0E5
:1021F000F807C00F002808D004202168086290204A
:102200000059022108439021085108202840002845
:1022100010D020203040002803D1CA483840002880
:1022200008D008202168086290200059082108433E
:10223000902108510120C002284000280ED0012022
:1022400080063040002809D00120C00221680862C1
:1022500090200059202108439021085190200059D6
:1022600000285ED02020284000280ED020203040BA
:10227000002804D1012000073840002805D0606FF5
:10228000002802D02046616F88479020005900E066
:1022900048E002902068806840210840402804D02F
:1022A000282102980840002835D0204600F0EEFD95
:1022B0002068806840210840402828D100BF01F0F4
:1022C000B7FC0190012001F0C5FC20688068402126
:1022D000884321688860019801F0BCFC00BF802021
:1022E000005900280FD0994980200059816380212E
:1022F0000859FEF764F9002813D0802210591259AA
:10230000916B88470DE02046FFF71BFF09E0204650
:10231000FFF717FF05E02046FFF713FF002190208D
:10232000015131E7E06E01287ED1102028400028BD
:102330007AD0102030400028FAD01020216808629E
:102340002068806840210840402876D180200059CC
:102350000068406880B20190019800286CD05C2031
:10236000015B0198814267DD5E210198085380205E
:102370000059006800682021084000284DD100BFA6
:1023800001F056FC0090012001F064FC2068006818
:10239000FF210131884321680860009801F05AFC50
:1023A00000BF00BF01F044FC0090012001F052FC8E
:1023B000206880684008400021688860009801F02B
:1023C00049FC00BF00BF01F033FC0090012001F088
:1023D00041FC20688068402188432168886000981B
:1023E00001F038FC00BF20218C2001510020E06664
:1023F00000BF01F01DFC0090012001F02BFC2068C3
:1024000000681021884321680860009801F022FCD0
:1024100000BF80210859FEF78CF8022020675C205D
:10242000025B5E20005B02E057E006E004E0101A69
:1024300081B22046FFF722FEA6E65C20015B5E200B
:10244000005B081A80B201905E20005B002843D038
:102450000198002840D000BF01F0EAFB0090012065
:1024600001F0F8FB20680068FF21213188432168D2
:102470000860009801F0EEFB00BF00BF01F0D8FB40
:102480000090012001F0E6FB206880682D49C943D7
:10249000084021688860009801F0DCFB00BF202123
:1024A0008C2001510020E066606700BF01F0C0FB96
:1024B0000090012001F0CEFB2068006810218843C5
:1024C00021680860009801F0C5FB00BF022020676A
:1024D00020460199FFF7D2FD56E60120000528406D
:1024E00000280CD0012080053840002807D00120AA
:1024F0000005216808622046FFF722FE44E680209E
:10250000284000280FD080203040002804D101202E
:10251000C0053840002806D0A06F002802D0204611
:10252000A16F884730E640202840002810D0402086
:10253000304000280CD0204600F0EAFC24E60000E1
:102540000F0800000100001020010004752E000893
:102550000120C0052840002808D001208007304015
:10256000002803D02046FFF7EAFD0DE60120000613
:102570002840002807D0F00FC007002803D02046CD
:10258000FFF77DFD00E600BFFEE510B50446002C18
:1025900001D1012010BDA069002800D000E000BFDB
:1025A00088200059002805D10021842001552046AB
:1025B00000F02CF824218820015120680068400890
:1025C000400021680860A06A002802D0204600F080
:1025D00057FB204601F066F8012800D1DAE72068B1
:1025E00040680921C90288432168486020688068E2
:1025F0002A218843216888602068006801210843F7
:1026000021680860204600F0B3FBC3E710B598B01E
:102610000446142113A8FDF759FE442102A8FDF732
:1026200055FE2249206888423ED1102002900020A9
:10263000079002A8FEF7F4FD002801D0FDF776FF11
:1026400000BF1B48806901210905084318498861BA
:1026500008468069012109050840019000BF00BFBC
:1026600000BF1348C068042108431149C8600846E8
:10267000C06804210840019000BF00BF03201390F0
:102680000220149000201590032016900820179027
:1026900013A90848FDF7D8FF002201211D20FEF7ED
:1026A00055F91D20FEF740F918B010BD008000401C
:1026B0004010024000080050FFB585B004460D46AA
:1026C00017468C200059202877D1002D01D0002FEB
:1026D00002D1012009B0F0BD01210903A0688842A0
:1026E00008D12069002805D1E807C00F002801D0D3
:1026F0000120EFE700219020015122218C2001517F
:102700000020E066FEF7AAF802905C2007535E20E6
:10271000075300BF01210903A06888420AD120693C
:10272000002803D137496020015324E0FF216020B5
:10273000015320E0A06800280AD12069002803D1B5
:10274000FF216020015316E07F216020015312E039
:1027500001210907A06888420AD12069002803D115
:102760007F216020015306E03F216020015302E0F9
:1027700000216020015300BF6020005B0390012115
:102780000903A068884205D12069002802D10026EB
:10279000049502E02E460020049028E0089800905E
:1027A000002220212046029B01F096F9002805D046
:1027B00020218C20015103208CE721E0002E09D13B
:1027C0002068406A03990840049908800498801C96
:1027D000049006E02068406A0399C9B2084030704E
:1027E000761C5E20005B401E81B25E2001535E209D
:1027F000005B0028D2D120218C200151002069E704
:10280000022067E7FF010000F8B504460D461646B2
:102810008C200059202840D1002D01D0002E01D15C
:102820000120F8BD01210903A068884208D1206970
:10283000002805D1E807C00F002801D00120F0E7EB
:102840000020E06616492068884220D0154920689B
:1028500088421CD014492068884218D020684068FB
:102860000121C9050840002811D000BF01F0E0F99E
:102870000746012001F0EEF9206800680121890671
:10288000084321680860384601F0E4F900BF324689
:102890002946204601F050F8C3E70220C1E70000B6
:1028A0000080004000840040008C00407047FFB56D
:1028B00083B004460D4617468820005920286DD164
:1028C000002D01D0002F02D1012007B0F0BD012161
:1028D0000903A068884208D12069002805D1E807CB
:1028E000C00F002801D00120EFE700219020015106
:1028F000212188200151FDF7B1FF01905420075399
:102900005620075301210903A068884205D1206998
:10291000002802D10026029502E02E4600200290F7
:1029200024E006980090002280212046019B01F0BF
:10293000D3F8002804D02021882001510320C4E7C7
:10294000002E09D102980088C005C00D2168886258
:102950000298801C029003E0307821688862761C1F
:102960005620005B401E81B2562001535620005B6A
:102970000028D6D106980090002240212046019BD5
:1029800001F0AAF8002804D020218820015103205A
:102990009BE7202188200151002096E7022094E740
:1029A000704700BFFEE7000000B587B0142102A801
:1029B000FDF78CFC00BF1C48C068042108431A497D
:1029C000C8600846C06804210840019000BF00BFED
:1029D00000BF1548C068012108431349C860084674
:1029E000C068C007C00F019000BF00BF00222021B7
:1029F00005200007FDF72CFF012040030290002076
:102A00000390049002A90948FDF71EFE20200290C1
:102A10000120039004900020059002A905200007E2
:102A2000FDF712FE07B000BD401002400008005044
:102A300010B51E481E490860E12040024860002190
:102A40001B488160C16001610C21416100218161ED
:102A50000121C90201623020154988620121090360
:102A60001348C163490001640020114948660846C3
:102A7000FFF78BFD002801D0FDF758FD00210C4821
:102A8000FFF72EFB002801D0FDF750FD002108487C
:102A9000FFF7F6FA002801D0FDF748FD0448FFF7DC
:102AA000C3FA002801D0FDF741FD10BD00800040B1
:102AB000E000002000BFFEE7F8B5044600262748E6
:102AC0008069012109070840002803D0FDF796FF1F
:102AD000054618E000BF2148806901210907084325
:102AE0001E4988610846806989050840009000BF3A
:102AF00000BFFDF783FF05461848806901210907DB
:102B00008843164988610120400285420BD1802C00
:102B100012D9B02C01D902260EE0902C01D9012641
:102B20000AE0002608E0802C01D3022604E0702C85
:102B300001D1012600E0002609480068C008C00055
:102B4000304307490860084600684007400FB0421C
:102B500001D00120F8BD0020FCE700004010024039
:102B600000200240704710B503F016FB10BD00B501
:102B700097B04C2104A8FDF7A9FB0020009001901C
:102B80000290039001204002FDF7EAFE102004901D
:102B900001200B9000200C90B0200D9000200F9091
:102BA00004A8FEF779FE002801D0FDF7BFFC07203E
:102BB0000090002001900290039001216846FEF7EA
:102BC000FDFC002801D0FDF7B1FC17B000BD0000EE
:102BD0000120C0060E4988600E48006801210904E2
:102BE0000840884213D10B488038006AC0B2CC2814
:102BF0000DD008488038006AC0B2AA2807D005481E
:102C000080380068890008430249803908607047AD
:102C100000ED00E080200240F8B50446606E002818
:102C200005D101216A2001536820015322E00827C1
:102C30000822009220688068072149060840450E56
:102C400020688068460F0C4A915D0C4A935D009A9B
:102C500053431846FDF7A0FA81B26A200153064A91
:102C6000515D064A525D7A431046FDF795FA81B2EE
:102C700068200153F8BD00004B6B0008436B00084F
:102C80000822816A1140082907D1016849681203A6
:102C90009143826B114302685160018DC907C90FCE
:102CA000002908D001684968012252049143C26A90
:102CB0001143026851600222816A1140022907D142
:102CC00001684968D2039143026B11430268516065
:102CD0000422816A1140042907D10168496812045D
:102CE0009143426B1143026851601022816A114086
:102CF000102907D10168896812029143C26B114300
:102D0000026891602022816A1140202907D1016860
:102D1000896812029143026C11430268916040225B
:102D2000816A1140402915D1016849689203914395
:102D3000426C11430268516001221205416C9142BC
:102D400008D101684968032252059143826C1143FE
:102D5000026851608022816A1140802907D1016890
:102D6000496812039143C26C114302685160704775
:102D7000F8B50446002190200151FDF76FFD05468E
:102D80002068006808210840082824D138482B46CC
:102D9000002289040090204600F09EFE00281AD0F0
:102DA00000BF00F045FF0646012000F053FF2068F9
:102DB00000688021884321680860304600F04AFF9F
:102DC00000BF20218820015100BF0021842001552F
:102DD00000BF0320F8BD20680068042108400428D3
:102DE00036D123482B46002209050090204600F0EA
:102DF00073FE00282CD000BF00F01AFF0646012009
:102E000000F028FF20680068FF21213188432168F5
:102E10000860304600F01EFF00BF00BF00F008FF52
:102E20000646012000F016FF206880684008400038
:102E300021688860304600F00DFF00BF20218C2003
:102E4000015100BF00218420015500BF0320C1E7CC
:102E50002021882001518C2001510020E06620674C
:102E600000BF00218420015500BF0020B2E7000010
:102E7000FFFFFF0170B50546AC6A00215E200153DB
:102E8000562001532046FFF75CF970BD70B504462B
:102E900000BF00F0CDFE0546012000F0DBFE2068FB
:102EA0000068FF212131884321680860284600F02E
:102EB000D1FE00BF00BF00F0BBFE0546012000F0C0
:102EC000C9FE20688068114908402168886028464A
:102ED00000F0C0FE00BFE06E012810D100BF00F07E
:102EE000A7FE0546012000F0B5FE2068006810210D
:102EF000884321680860284600F0ACFE00BF20210E
:102F00008C2001510020E066606770BDFEFFFFEF7E
:102F100070B5044600BF00F08BFE0546012000F0AE
:102F200099FE20680068402188432168086028468F
:102F300000F090FE00BF2021882001510020A067F2
:102F40002046FFF72DFD70BDF8B504466020075BF5
:102F50008C20005922287DD12068406A86B2A56D58
:102F6000304638402880A06D801CA0655E20005B44
:102F7000401E81B25E200153005B00286BD100BF70
:102F800000F056FE0090012000F064FE206800680A
:102F9000FF212131884321680860009800F05AFE23
:102FA00000BF00BF00F044FE0090012000F052FE80
:102FB000206880684008400021688860009800F020
:102FC00049FE00BF20218C2001510020606720674E
:102FD0002C492068884220D02B49206888421CD088
:102FE0002A492068884218D0206840680121C90514
:102FF0000840002811D000BF00F01AFE0090012008
:1030000000F028FE206800680121890688432168B5
:103010000860009800F01EFE00BFE06E012825D178
:103020000020E06600BF00F003FE0090012000F0E9
:1030300011FE20680068102188432168086000980C
:1030400000F008FE00BF2068C06910210840000998
:10305000002801E00EE013E002D010202168086291
:103060005C20015B2046FFF709F809E02046FFF7E6
:103070001DFC05E0206880690821084321688861FB
:10308000F8BD00000080004000840040008C00403B
:10309000F0B587B004466020005B06902068C569E3
:1030A0002068006803902068806802908C20005996
:1030B00022287DD16820005B0490D5E02068406A1A
:1030C00080B20590A76D0699059808403880A06DDC
:1030D000801CA0655E20005B401E81B25E20015313
:1030E0002068C5696807400F002840D0E807C00F76
:1030F00000280ED0FF21013103980840002808D095
:103100000120216808629020005901210843902184
:1031100008510220284000280DD00298C007C00F97
:10312000002808D00220216808629020005904215C
:103130000843902108510420284000280DD002980F
:10314000C007C00F002808D0042021680862902022
:10315000005902210843902108519020005900286D
:1031600005D02046FEF7EDFF0021902001515E20A2
:10317000005B002878D100BF00F05AFD01900120CB
:1031800000F068FD20680068FF2101318843216854
:103190000860019800F05EFD00BF00BF00F048FD30
:1031A0000190012000F056FD206880684D4900E044
:1031B0008FE0084021688860019800F04BFD00BF57
:1031C00020218C200151002060672067464920683B
:1031D000884220D04549206888421CD04449206854
:1031E000884218D0206840680121C905084000289D
:1031F00011D000BF00F01CFD0190012000F02AFD5D
:1032000020680068012189068843216808600198C8
:1032100000F020FD00BFE06E012822D10020E06612
:1032200000BF00F005FD0190012000F013FD2068B3
:1032300000681021884321680860019800F00AFDA9
:1032400000BF2068C069102108400009002802D092
:103250001020216808625C20015B2046FEF70EFF0B
:1032600002E02046FFF722FB0498002804D020202B
:103270002840002800D021E75E20065B002E2ED0DB
:103280006820005BB0422ADD00BF00F0D1FC019055
:10329000012000F0DFFC20688068012109078843D5
:1032A00021688860019800F0D5FC00BF1148606774
:1032B00000BF00F0BDFC0190012000F0CBFC2068B5
:1032C00000682021084321680860019800F0C2FCD2
:1032D00005E020688069082108432168886107B0FB
:1032E000F0BD0000FEFFFFEF0080004000840040C2
:1032F000008C0040492F0008F8B504466020065BAA
:103300008C20005922287DD12068406A85B2F0B215
:103310002840A16D0870A06D401CA0655E20005B78
:10332000401E81B25E200153005B00286BD100BFBC
:1033300000F07EFC0746012000F08CFC206800684D
:10334000FF212131884321680860384600F082FC63
:1033500000BF00BF00F06CFC0746012000F07AFCC3
:10336000206880684008400021688860384600F086
:1033700071FC00BF20218C20015100206067206774
:103380002C492068884220D02B49206888421CD0D4
:103390002A492068884218D0206840680121C90560
:1033A0000840002811D000BF00F042FC0746012071
:1033B00000F050FC206800680121890688432168DC
:1033C0000860384600F046FC00BFE06E012825D1B9
:1033D0000020E06600BF00F02BFC0746012000F053
:1033E00039FC20680068102188432168086038464D
:1033F00000F030FC00BF2068C069102108400009BF
:10340000002801E00EE013E002D0102021680862DD
:103410005C20015B2046FEF731FE09E02046FFF705
:1034200045FA05E020688069082108432168886121
:10343000F8BD00000080004000840040008C004087
:10344000F0B585B004466020005B04902068C56933
:103450002068006802902068806801908C200059E4
:1034600022287DD16820005B0390D4E02068406A68
:1034700087B20498C0B23840A16D0870A06D401C9E
:10348000A0655E20005B401E81B25E200153206873
:10349000C5696807400F002840D0E807C00F002822
:1034A0000ED0FF21013102980840002808D00120E9
:1034B0002168086290200059012108439021085199
:1034C0000220284000280DD00198C007C00F002816
:1034D00008D0022021680862902000590421084386
:1034E000902108510420284000280DD00198C007E1
:1034F000C00F002808D004202168086290200059DD
:10350000022108439021085190200059002805D03D
:103510002046FEF716FE0021902001515E20005B40
:10352000002878D100BF00F083FB0090012000F05C
:1035300091FB20680068FF21013188432168086001
:10354000009800F087FB00BF00BF00F071FB009007
:10355000012000F07FFB206880684D49084000E0B2
:103560008EE021688860009800F074FB00BF202185
:103570008C200151002060672067464920688842FE
:1035800020D04549206888421CD0444920688842A0
:1035900018D0206840680121C9050840002811D0D2
:1035A00000BF00F045FB0090012000F053FB2068B5
:1035B000006801218906884321680860009800F0AE
:1035C00049FB00BFE06E012822D10020E06600BF69
:1035D00000F02EFB0090012000F03CFB206800680A
:1035E0001021884321680860009800F033FB00BF79
:1035F0002068C069102108400009002802D010206E
:10360000216808625C20015B2046FEF737FD02E07E
:103610002046FFF74BF90398002804D020202840CB
:10362000002800D022E75E20065B002E2ED0682006
:10363000005BB0422ADD00BF00F0FAFA00900120E2
:1036400000F008FB20688068012109078843216891
:103650008860009800F0FEFA00BF1148606700BF64
:1036600000F0E6FA0090012000F0F4FA206800680B
:103670002021084321680860009800F0EBFA05E07B
:1036800020688069082108432168886105B0F0BD81
:10369000FEFFFFEF0080004000840040008C0040EF
:1036A000F9320008F0B58DB0044600200590964927
:1036B0002068884207D095492068884203D0944901
:1036C0002068884200D100E000BF2169A06808435B
:1036D00061690843E16908430790206800688D49E3
:1036E0000840079908432168086020684068032162
:1036F00009038843E168084321684860A06907908E
:103700008149206888420BD080492068884207D0D0
:103710007F492068884203D0206A079908430790B0
:10372000206880687C4908400799084321688860C0
:103730002068C06A00090001616A08432168C86204
:1037400000BF76492068884201D1012626E07449ED
:103750002068884201D1022620E072492068884210
:1037600002D10126360419E06F492068884202D14F
:103770000126760412E064492068884201D11026AF
:103780000CE062492068884201D1082606E06049C1
:103790002068884201D1042600E0002600BF5A4973
:1037A0002068884207D059492068884203D0584988
:1037B000206888424CD13046FDF7C0F90746002FFB
:1037C00014D0606A4000594A115A3846FCF7CEFCC2
:1037D00004906068410041180498814204D86068F0
:1037E00001030498814202D20120059080E0606AC2
:1037F00040004E49085A02460023019038461946B7
:10380000FCF7DEFCFF2301330022099308920A91A2
:103810000B901A46089BFCF703FD626852080023D0
:103820008018594103910290606802460190029805
:10383000FCF7C6FC0546032109028D4205D33C482E
:10384000854202D82068C56052E0012005904FE013
:103850000121C903E06988422AD13046FDF76EF99B
:103860000746002F44D0606A4000304A115A38465B
:10387000FCF77CFC400061684908401803906168CF
:10388000FCF774FC0546102D0FD32A4885420CD84E
:1038900028480F38284006902807400F069908430B
:1038A000069006982168C86022E0012005901FE07C
:1038B0003046FDF743F90746002F19D0606A4000F3
:1038C0001A4A115A3846FCF751FC616849084018F9
:1038D00003906168FCF74AFC0546102D06D3154895
:1038E000854203D8A8B22168C86001E00120059094
:1038F00001216A2001536820015300206067A067FE
:1039000005980DB0F0BD000000800040008400402C
:10391000008C0040F369FFCFFFF4FF110038014035
:103920000044004000480040004C0040246B000868
:10393000FFFF0F00FFFF0000F8B504460E461546D6
:10394000A6655C2005535E2005530020606700BF1C
:1039500001210903A06888420AD12069002803D107
:1039600058496020015324E0FF216020015320E0EA
:10397000A06800280AD12069002803D1FF21602017
:10398000015316E07F216020015312E00121090755
:10399000A06888420AD12069002803D17F216020D5
:1039A000015306E03F216020015302E00021602026
:1039B000015300BF00219020015122218C20015190
:1039C00000BF00F035F90746012000F043F92068F8
:1039D00080680121084321688860384600F03AF980
:1039E00000BF01214907606E884236D16820005B24
:1039F000A84232DC4914A068884205D12069002819
:103A000002D13148606701E03048606720690028D2
:103A100011D000BF00F00CF90746012000F01AF9A0
:103A200020680068FF21013108432168086038469A
:103A300000F010F900BF00BF00F0FAF807460120BF
:103A400000F008F92068806801210907084321680F
:103A50008860384600F0FEF832E001210903A068D2
:103A6000884205D12069002802D11948606701E029
:103A7000184860672069002811D000BF00F0D8F80E
:103A80000746012000F0E6F820680068FF21213198
:103A9000084321680860384600F0DCF810E000BFF9
:103AA00000F0C6F80746012000F0D4F8206800684E
:103AB0002021084321680860384600F0CBF800BF99
:103AC0000020F8BDFF0100009130000841340008DB
:103AD000492F0008F9320008FFB581B004460D46B1
:103AE00017460A9E46E0701C002843D0FCF7B6FE3D
:103AF0000499401AB04201D8002E02D1032005B02B
:103B0000F0BD2068006804210840002832D0802DD4
:103B100030D0402D2ED02068C06908210840C00850
:103B200000280FD00820216808622046FFF7AEF970
:103B300008219020015100BF00218420015500BFC1
:103B40000120DCE72068C0690121C9020840C00AE1
:103B500000280FD00846216808622046FFF796F932
:103B600020219020015100BF00218420015500BF79
:103B70000320C4E72068C0692840A84201D1012081
:103B800000E00020B842AED00020B8E710B50248EF
:103B9000FEF7D8FA10BD0000E000002030B47446F3
:103BA000641E2578641CAB4204D3635D5B00E3189C
:103BB00030BC18471D46F8E710B5002819DB1A4A33
:103BC00003231B02D21883089B00D2588307DC0E04
:103BD000FF23A3409A438B071B0E8407E40EA340E8
:103BE0001A43114B032424021B198408A4001A5100
:103BF00018E00E4A03071B0F083B9B089B00D25896
:103C00008307DC0EFF23A3409A438B071B0E840718
:103C1000E40EA3401A43054B0407240F083CA408F4
:103C2000A4001A5110BD000000E100E01CED00E00E
:103C3000EFF31080704702E008C8121F08C1002A85
:103C4000FAD170477047002001E001C1121F002A1D
:103C5000FBD1704780F31088704700001CB5054801
:103C60000221002380220091019003A1054802F067
:103C70006FFC1CBD000000206170705F7461736B8D
:103C800000000000893C000800BF012002F06CF930
:103C9000FBE700001CB506480521064B0122D202B5
:103CA0000091019004A1084802F052FC1CBD0000E4
:103CB00004000020CC3E00206C657474657273684B
:103CC000656C6C5461736B00555A000800BF00218D
:103CD000C9430B48006802F073FB0028F7D020218D
:103CE00005200007FCF7AAFD00231A4619460448E0
:103CF000006802F0E7FAC82002F036F9E7E70000B2
:103D00008000002000BF0021C9430B48006802F07A
:103D100057FB0028F7D0202105200007FCF78EFD77
:103D200000231A4619460448006802F0CBFAC8205E
:103D300002F01AF9E7E70000800000201CB501201E
:103D400002F03CFA0B4908600B480821002380224E
:103D50000091019009A10C4802F0FAFB0B480821E0
:103D6000002380220091019009A10C4802F0F0FB91
:103D70001CBD000080000020780000206C656431CC
:103D80005F7461736B000000CD3C00087C00002074
:103D90006C6564325F7461736B000000053D000860
:103DA000FCF762FDFEF7E3FEFEF7FEFDFEF740FEC8
:103DB0000A2208490848FEF727FDFFF7BFFF01F078
:103DC000BBFFFFF767FFFFF749FF02F063F900BF92
:103DD000FEE7000074010020E0000020FEB505466B
:103DE0000E4624480768244800680190234800686C
:103DF000009023480068001D02F00EF8681C00289F
:103E00001DD1002E1BD000BF1E4948681C490968FF
:103E100088601B4982680968CA6019490968091DD8
:103E20008268516016490968091D8160154A144964
:103E300009684A6111460968491C116018E07C193B
:103E40000F4800684460BC4206D20D480168091D55
:103E5000009802F005F80BE009480168091D019877
:103E600001F0FEFF08480068844201D20648046061
:103E7000FEBD00002C0000201C00002020000020BF
:103E800018000020980200204800002010B50446C9
:103E900002F002F82F480068401C2E4908602E48A6
:103EA0000068002808D12C480460084600680128F2
:103EB0000ED100F0DBF90BE028480068002807D19C
:103EC00025480068C06AE16A884201D82248046037
:103ED00023480068401C2249086000BF00BF2149F8
:103EE000E06A0968884202D91E49E06A086000BF9A
:103EF00000BF1422E16A51431B4A89184868A06038
:103F00008268E260211D8268516081601422E16A4A
:103F10005143154A8A1862611422E16A5143124AD8
:103F20005158491C1423E26A5A430F4B995000BF61
:103F300000BF01F0BFFF09480068002809D000BF9A
:103F400005480068C06AE16A884201D202F000F8C0
:103F500000BF10BD28000020180000203400002001
:103F600044000020300000208001002010B516E041
:103F700001F092FF0C48C068C468201D01F04CFF9E
:103F80000A480068401E0949086009480068401E48
:103F90000749086001F08EFF204600F0ADF80448A4
:103FA00000680028E4D110BD840200202800002011
:103FB00024000020F8B504460F4615460020009066
:103FC000A66B206C002809D1206800282ED1A0689B
:103FD00002F0AAFB00900020A06027E0002D0FD186
:103FE0003946226C6068FCF758F9216C606840180B
:103FF0006060A1686068884218D32068606015E03E
:104000003946226CE068FCF748F9216CE068411AF7
:10401000E1602168E068884203D2216CA068411AFF
:10402000E160022D02D1002E00D0761E701CA0632C
:104030000098F8BDF0B587B001260027002409E0FC
:1040400013A0005D03A9085503A8005D002800D156
:1040500002E0641C102CF3DB00BF002511E00E4FC2
:10406000A8000E49401800210B46802200910190C3
:1040700003A9384602F06CFA0646002E00D102E091
:104080006D1C012DEBDB00BF304607B0F0BD00001A
:1040900049444C4500000000914100084C000020BC
:1040A000FFB585B016460E9FB00000F0C7F9054673
:1040B000002D0FD0542000F0C1F90446002C05D08B
:1040C00054212046FCF702F9256304E0284601F05C
:1040D000FFFE00E00024002C0BD000210F98009779
:1040E0000294039101903246089B0699059800F0CE
:1040F0007CF8204609B0F0BD10B50446206B01F0F5
:10410000E7FE204601F0E4FE10BD01464A6A002A9F
:1041100004D00A6B12680A23981A00E00020704746
:1041200030B50F239B0215484407640F002C05D0BF
:10413000C01DC008C000114C041B1B1B104C20608C
:1041400000240F4D6C60C218083AD208D2000D4C02
:10415000226000240B4D2D686C600A4D2D682C6088
:104160000146541A4C60074C24680C60064D4C689C
:104170002C60064D4C682C6030BD0000AC02002065
:10418000580000206000002068000020640000202B
:1041900000BFFFF7EBFE034800680128F9D901F0E2
:1041A000D7FEF6E78001002010B50446002C0AD0A7
:1041B0000020A06020600021E16000231A4619461B
:1041C000204602F07FF810BDF8B506460D461746AA
:1041D000069C002D01D1246000E02760E663256481
:1041E0000121204602F024F8F8BDFFB581B00E464B
:1041F0000A9F0C9C216B0398401E800008180090B9
:104200000098C008C0000090002E10D0002508E0E3
:10421000715D204634304155705D002800D102E0C8
:104220006D1C102DF4D300BF0021432001550A2F2F
:1042300000D30927E7626764201D01F00EFE2046C7
:10424000183001F00AFE24610A20C01BA0616462DC
:10425000049A0199009800F083F920600B980028D7
:1042600001D00B98046005B0F0BD000010B500242B
:1042700006E0142161430E4A881801F0E1FD641C38
:104280000A2CF6D30B4801F0DBFD0B4801F0D8FDFA
:104290000A4801F0D5FD0A4801F0D2FD094801F0B5
:1042A000CFFD04480849086003480849086010BD6C
:1042B00080010020480200205C02002070020020E3
:1042C00084020020980200201C0000202000002012
:1042D00010B50146164800E0006803688B42FBD326
:1042E000024643689B188B4204D143684C681B19F3
:1042F000436001460A464B689B180468A34211D1EB
:104300000C4C03682468A34208D04B6804686468B6
:104310001B194B6003681B680B6005E0054B1B68AD
:104320000B6001E003680B60884200D0016010BDA3
:10433000580000206000002070B5054601F0ACFD7B
:10434000A86B002801D1012400E0002401F0B2FD97
:10435000204670BD70B5054601F09EFDA86BE96B67
:10436000884201D1012400E0002401F0A3FD204691
:1043700070BD00000A4800680068002801D10120D3
:1043800000E00020002804D00020C0430549086058
:1043900005E003480068C06800680249086070478B
:1043A0001C0000204800002072B600BFFEE770B578
:1043B000044601F071FD4520055713E0606A0028AE
:1043C00001D1012000E00020002808D1204624303F
:1043D00002F062FA002803D001F0E6FD00E003E0FD
:1043E000681E45B2002DE9DC00BF0021C94345200D
:1043F000015501F05FFD01F04FFD4420055713E02A
:104400002069002801D1012000E0002000280AD105
:104410002046103002F040FA002801D001F0C4FD1F
:10442000681E45B200E001E0002DE9DC00BF00217C
:10443000C9434420015501F03DFD70BDFEB5044661
:1044400000200190002C23D00820C043844201D9D1
:10445000012000E00020002819D108346007400F37
:10446000002815D06007400F0821081A009000218D
:10447000C9430098081AA04201D2012000E00020A0
:10448000002802D10098241802E0002400E0002453
:1044900001F01EFE28480068002801D1FFF740FE09
:1044A000E017401C002842D0002C40D02348006870
:1044B00084423CD8224E3046056801E02E462D68E5
:1044C0006868A04202D228680028F7D11A4800681C
:1044D00085422CD0306808300190286830606868C8
:1044E000001B102807D92F196868001B78606C60C2
:1044F000306838603760114968680968081A0F49E0
:104500000860084600680F490968884203D20B48D2
:1045100000680C4908600121C907686808436860A1
:104520000020286008480068401C0749086002F025
:104530003DFA0198FEBD00006000002064000020EC
:1045400058000020680000206C0000200349086823
:10455000002802D0816C491C81647047180000203B
:10456000001F01231B060360001F0160001F034B97
:10457000036014380260203870470000A943000827
:104580000146002009E08200064B9A58002A02D119
:10459000820099507047421C10B20528F3DB00BF1F
:1045A000F8E70000AC3E002010B50446012120468B
:1045B00000F07AF810BD000010B50446226891683A
:1045C0002069FBF795FE00280CD16020005D4008B3
:1045D0004000401C6021085507480168204601F052
:1045E00095FB04E00448416B204601F08FFB00205E
:1045F000A0810021E18110BD8400002002460878DE
:1046000000280DD048780007000F082808D010684F
:10461000002812D0087813681B78184000280CD0A6
:104620006020805CC007C00F002804D14878C00615
:10463000C00F002801D0002070470020C043FBE7D6
:1046400010B500F021FB0446002C04D00248816B19
:10465000204601F05BFB10BD8400002070B50446CD
:10466000A189E089081A05B205E02021204601F061
:1046700068FA681E05B2002DF7DC217B204600F0A9
:1046800083F870BD10B500F0FFFA0446002C02D08C
:10469000204600F069FD10BD10B504460021C94355
:1046A000204600F001F810BDF8B504460D46681C20
:1046B000002801D1012000E000200646E089002802
:1046C00001D1012D06D0E089A189884203D1681C5F
:1046D000002800D1F8BDE089A189884210D1012DC0
:1046E0000ED1E089401EE081A089401EA0810021FA
:1046F000A289206981540121204600F045F840E05C
:1047000030460AE0E18909182269525CE1890918FA
:10471000491E23695A54411C08B2A289E189511AE1
:104720008142EFDCA089401EA081002E06D1E089E5
:10473000401EE0810821204601F003FA0021A289F1
:1047400020698154E08907B206E02069C15D2046F6
:1047500001F0F7F9781C07B2A089B842F5DC2021F6
:10476000204601F0EEF9A189E089081A401C07B241
:1047700005E00821204601F0E4F9781E07B2002F79
:10478000F7DC00BFA6E7000070B505460C4603E065
:1047900004A1284601F0BAFA2046611ECCB20028D6
:1047A000F6D170BD0820080010B504460021C943A9
:1047B000204600F04CFB10BD10B50446204600F02A
:1047C00005F80121204601F025FA10BD70B5044618
:1047D000A089002800D170BD0021A28920698154E0
:1047E0006020005DC007C00F002824D0204600F0E4
:1047F0008EFB204600F0F2FD0021E181A181E08ED8
:10480000002800D1E7E70EA1204601F07FFA00233F
:104810002046A26D616900F08BFE0546002D04D094
:104820002946204600F02AFE04E006488169204619
:1048300001F06CFA02E02046FFF7BEFE00BFCAE7B7
:104840000D0A00008400002010B502461146002029
:104850000B78302B07D14B78782B02D04B78582B24
:1048600001D103200EE00B78302B07D14B78622B5F
:1048700002D04B78422B01D1012003E00B78302B82
:1048800000D1022007E00B782E2B04D14B78002BAF
:1048900001D0042003E00C78491C002CF3D100BFA8
:1048A00010BD02461378272B01D1531C00E013469C
:1048B000194600200B785C2B1AD14B786E2B0ED04A
:1048C00004DC302B0FD0622B0FD104E0722B04D00C
:1048D000742B0AD105E0082009E00D2007E00A202A
:1048E00005E0092003E0002001E0487800BF00E077
:1048F00008787047F0B589B00546002008900A2076
:1049000007902C4600200690012600270590049071
:1049100028782D2800D1B61E711C002901D1012153
:1049200000E000214819FFF78FFF08900898012840
:104930000DD0022806D003280DD1102007900220A8
:10494000069009E0082007900120069004E002206C
:104950000790069000E000BF00BF06982918701C61
:10496000002801D1012000E000200C1812E020787E
:104970002E2803D101200490641C0BE0207800F065
:1049800028F90799794347180A2104984843049065
:10499000641C00BF20780028E9D10898042819D1A8
:1049A0000498002816D03046FBF73AFD039004988F
:1049B000FBF741FD01903846FBF73DFD0090019962
:1049C000FBF7F0FC02900399FBF7AFFC059005980C
:1049D00009B0F0BD38467043FAE7F8B507460C4613
:1049E00016461D46002E05D02078242832D1607846
:1049F00000282FD02078272808D16078002805D0FB
:104A00002046FFF74EFF28600020F8BD20782D28B3
:104A100005D02078302808DB2078392805DC2046AE
:104A2000FFF768FF28600020EFE72078242808D1EE
:104A30006078002805D02A462146384600F032F832
:104A4000E3E72078002805D0204600F006F828602B
:104A50000020DAE70020C043D7E770B504462546BA
:104A600000262078222802D1601C0446054613E067
:104A700028785C2805D12846FFF713FFA0556D1C48
:104A800007E02878222802D10020A05501E02878EC
:104A9000A0556D1C701C86B228780028E8D1A0555E
:104AA000204670BDF8B504460D4616460023691C25
:104AB0002046A26D00F03CFD0746002F06D0394687
:104AC000204600F0FBF830600020F8BD0020C04315
:104AD000FBE7FFB58FB00C4615461E4600200E9032
:104AE000202106A8FBF7F2FBA0780107090F681E3A
:104AF000814203DDA0780007000F00E0681E0590EA
:104B0000002712E0B80006A94318781C800030582E
:104B10000022014604900F98FFF75FFF002803D0A2
:104B20000020C04313B0F0BD7F1C681EB842E9DC12
:104B300005980300FFF732F80805090E141B222D13
:104B40003846A06880470E9040E0A7680698B847AE
:104B50000E903BE0A76807990698B8470E9035E09D
:104B6000A7683B4606A807C898470E902EE0A7689E
:104B700006A80FC80490B8470E9027E0A7680A98C7
:104B80000090099B089A049207990698B8470E90DE
:104B90001CE0A7680B990A980191009006A80FC81D
:104BA0000490B8470E9011E0A7680B9A0A990C98E8
:104BB00001920091029007A90EC904910698B84786
:104BC0000E9003E00020C0430E9000BF00BF0E987F
:104BD000A8E70146302905DB392903DC08463038CF
:104BE000C0B27047612905DB662903DC08465738E7
:104BF000C0B2F6E7412905DB462903DC0846373811
:104C0000C0B2EEE70020ECE7014648780007000F4D
:104C1000012801DCC868704748780007000F0728A2
:104C200001DCC868F7E748780007000F082801DCB6
:104C3000C868F0E7C868EEE710B50446002004E055
:104C40003021104A1154411CC8B20928F8DB6078A1
:104C50000007000F012801DC606810BD60780007C4
:104C6000000F072801DC6068F7E760780007000F95
:104C7000082801DC6068F0E70249606800F02AFF5C
:104C80000048EAE7C03E0020002111E088000A4AFF
:104C9000105800280AD0880010586030007880072B
:104CA000C00F002802D0880010587047481C01B27D
:104CB0000529EBDB0020F8E7AC3E0020F8B50646FE
:104CC0000C46002560780007000F801E0300FEF7E9
:104CD00065FF0604070B0E0F111CA068056815E0A0
:104CE0000025A068455F11E0A06805780EE000BFD0
:104CF000A5680BE0A0684768002F03D0A16808688A
:104D0000B84700E00020054600E000BF00BF28468D
:104D1000F8BD0000F3B581B004460298002800D128
:104D2000FEBD2046E16E8847182700200090FF2135
:104D30000902A06B0840002804D00027FF20C043D0
:104D4000009012E0FF210904A06B0840002803D066
:104D500008273248009008E0A06B000E00060028EB
:104D600003D01027FF2000060090A66D002541E02B
:104D70002801801940780007000F092838D1280140
:104D800081192046FFF73AFC002831D1280180190B
:104D9000406800990840A16B884229D128018019F8
:104DA0004068FF21B94001400298B84081421FD1BC
:104DB000A16B0298B8400143A16300200290002F2C
:104DC00009D028018019416838460838FF228240FE
:104DD000114000290CD1280180198068002804D0D6
:104DE000280180198168204688470021A16305E0D9
:104DF000681C05B25C20005BA842B9DC00BF0298C9
:104E0000002805D00021A1632046029900F0D8FABD
:104E10002046216F884700BF82E700000000FFFFA7
:104E200070B504460D46FFF72FFF0646002E00D151
:104E300070BD012C03D1304600F08FF905E0012C44
:104E400003DD3046696800F0B1FE00BFF0E770B5E1
:104E500004460D46002D24DD5420015F005B401EFA
:104E600002B2542002535020025B5220005B824267
:104E700002DD5020005B01E05220005B4042814295
:104E80001DDC5020015B5220005B814202DD50207E
:104E9000005B01E05220005B404201B2542001530C
:104EA0000DE0002D0ADA5420005B401C01B25420B2
:104EB0000153002903DD0021015370BDFDE72046A9
:104EC000FFF7CCFB5420005B002803D10021A18117
:104ED000E1811AE05221095B491D5422135FC81871
:104EE0000521FBF759F9890020463C3046583146E8
:104EF000206900F010FDA081002800D1DDE7A18924
:104F0000E1812046216900F001FF00BFD5E710B51F
:104F100004460021542001535020005B002812DD7C
:104F20005222125B2169002A01D1052201E052229E
:104F3000125B521E930022463C32D058FBF7D8F940
:104F4000002800D110BD5222125B930022463C3251
:104F5000D058216900F0DFFC002805D05220005B0A
:104F6000401C81B2522001535020005B401C81B292
:104F700050200153052901DD052101535220005B1A
:104F8000052802DB00215220015300BFDAE70000B0
:104F9000F8B504460D4616460020A0810021E181A7
:104FA00020606020005D40084000401C60210855E2
:104FB000256106213046FBF7EFF8A086002154203A
:104FC00001535020015352200153002009E0A18ECB
:104FD000421C51434A19830021463C31CA50411CAE
:104FE00008B20528F3DB0E48A0650E480C49401AAC
:104FF0000003010C5C2001532046FFF7C1FA002397
:1050000009A12046A26D00F093FA074639462046D2
:1050100000F0D0FA0121204600F0FCFDF8BD0000B0
:105020004C6F00086C7000086C6574746572000049
:1050300070B504460D46A189A08E401E81420DDB4D
:1050400039484168204600F061FE0121204600F009
:10505000E1FD2046216900F059FE70BDE089A1897B
:10506000884219D1A189481CA0812069455400219A
:10507000A28920698154E089401CE0816020005DA4
:10508000C007C00F002801D0284600E02A200146B2
:10509000204600F056FD45E0E089A189884241DACA
:1050A000A289E189511A08B20AE0E1890918491E6A
:1050B0002269525CE189091823695A54411E08B2D9
:1050C0000028F2DCE189481CE08120694554002178
:1050D000A089401C80B22269A0811154E089401E41
:1050E00006B20FE06020005DC007C00F002802D0AC
:1050F0002069805D00E02A200146204600F021FD65
:10510000701C06B2A089B042ECDCA189E089081AC3
:1051100006B205E00821204600F013FD701E06B21D
:10512000002EF7DC00BF98E78400002010B5FFF7E1
:10513000ABFD0446002C02D0204600F0B7F810BDAD
:1051400010B50446E089002806DD0821204600F05D
:10515000F8FCE089401EE08110BD10B504462046F1
:1051600000F002F810BD000070B50546AE6D1048A5
:105170008168284600F0CAFD002414E0200180194F
:1051800040780007000F01280BDC20018119284618
:10519000FFF734FA002804D120018119284600F0D5
:1051A00009F8601C04B25C20405BA042E6DC70BDE4
:1051B00084000020F8B507460C462046FFF73CFD6A
:1051C00005462946384600F0A1FD1621081A06B208
:1051D000002E01DD304600E00420064600BF2021FD
:1051E000384600F0AEFC701E00B2061EF7D16078A3
:1051F0000007000F012805DC2948016C384600F043
:1052000085FD25E060780007000F072805DC2448AD
:10521000416C384600F07AFD1AE060780007000F14
:10522000082805DC1E48816C384600F06FFD0FE051
:1052300060780007000F092805DC1948C16C384662
:1052400000F064FD04E01648016D384600F05EFD94
:1052500014A1384600F05AFD07250EE020780122FF
:10526000AA401040002801D0782000E02D200146FF
:10527000384600F066FC681E45B2002DEEDA09A142
:10528000384600F043FD2046FFF7BEFC05462946A0
:10529000384600F05DFC04A1384600F037FDF8BD4B
:1052A00084000020202000000D0A000070B5064692
:1052B000B56D14484169304600F028FD00241BE01C
:1052C0002001401940780007000F082812DD200156
:1052D000401940780007000F09280BDC2001411914
:1052E0003046FFF78BF9002804D1200141193046E0
:1052F000FFF760FF601C04B25C20805BA042DFDC33
:1053000070BD00008400002070B50646B56D1448DD
:105310000169304600F0FAFC00241BE0200140192E
:1053200040780007000F072812DD2001401940785F
:105330000007000F08280BDC200141193046FFF759
:105340005DF9002804D1200141193046FFF732FFF2
:10535000601C04B25C20805BA042DFDC70BD0000FA
:105360008400002070B50646B56D1448C16830460B
:1053700000F0CCFC00241BE020014019407800071D
:10538000000F012812DD2001401940780007000FAE
:1053900007280BDC200141193046FFF72FF90028C0
:1053A00004D1200141193046FFF704FF601C04B20C
:1053B0005C20805BA042DFDC70BD00008400002028
:1053C00070B504460D466020005D042188436021CD
:1053D000085529462046FFF72BFE70BD18B5044638
:1053E00008200090A189202322461432206900F071
:1053F000FBF9E08618BD70B5044600252BE0A90036
:10540000204614304058007822280CD10021AA00F0
:105410002046143080580170A900204614304158AD
:10542000491CAA008150AA00214614318858FAF775
:1054300058FF86B2A900204614304158701E085CFF
:10544000222806D10021AA00204614308258701E5E
:105450001154681C85B2E08EA842D0DC70BD10B536
:105460000446E089A189884207DAE289501CE0817C
:105470002069815C204600F064FB10BDF8B504464D
:105480000D4600266020005D02218843801C6021BB
:10549000085568780007000F002812D12046FFF752
:1054A000AAFFAF68E08E21461431B84706466878F7
:1054B0008006C00F002803D13146204600F0E2FBF1
:1054C0002EE068780007000F012811D1E28E2346F4
:1054D000143329462046FFF7FCFA06466878800612
:1054E000C00F00281CD13146204600F0CBFB17E04E
:1054F00068780007000F022809DB68780007000FB2
:10550000072804DC2946204600F00CF908E06878FA
:105510000007000F082803D12946204600F04AF86A
:105520006020005D02218843602108553046F8BDA7
:10553000FFB583B0064614461F465C20805BB16D04
:10554000611A0909401A80B2019000252CE0280157
:10555000001940780007000F092806D0280101191A
:105560003046FFF74BF8002800D01BE0290108194E
:10557000FFF762FB0290002F09D102990498FAF715
:10558000B7FE00280DD12801001907B0F0BD3A463A
:1055900002990498FAF7BAFE002802D128010019EE
:1055A000F3E700BF681C85B201988542CFDB00207D
:1055B000EBE7000070B504460D462560A86800289A
:1055C0000DD0A868FAF78DFE002808D0E08E0228DA
:1055D00007DBA169A868FAF78BFE002801D101203A
:1055E00000E00020C607F60F6020005D4008400084
:1055F0003043602108550848816B204600F086FB47
:105600006020005DC007C00F002804D00248016878
:10561000204600F07BFB70BD84000020F8B50646F4
:105620000F46FFF731FB0546002D00D1F8BD0023E2
:1056300031462846AA6DFFF77BFF0446002C06D1B1
:105640001048816A284600F061FB0020EEE7607890
:105650000007000F022804DB60780007000F07280E
:105660000ADD3146284600F051FB0648416A2846CB
:1056700000F04CFB0020D9E73A462146284600F0CE
:1056800003F8D3E784000020F8B506460C4615461B
:1056900060784006C00F002805D02148016A3046D6
:1056A00000F034FB36E060780007000F801E030036
:1056B000FEF774FA0604070B0E13192EA068056096
:1056C00027E029B2A068018023E0A068057020E0EF
:1056D0002946A06800F01FF91BE01148C169304657
:1056E00000F014FB15E0A068806800280FD0A068C7
:1056F0000068002806D0A0688768A1680868294665
:10570000B84704E0A06887682846B84700BF00E0B3
:1057100000BF00BF2146304600F004F8F8BD00008D
:1057200084000020FEB505460C4627A2116850688B
:10573000926802920091019021462846FFF7BEFA36
:1057400006462846616800F0E1FA22A1284600F0EA
:10575000DDFA60780007000F05280CD11EA128464D
:1057600000F0D4FA3146284600F0D0FA1AA12846B3
:1057700000F0CCFA21E06946304600F07EF90B21BA
:10578000081A694647183946284600F0BFFA13A19F
:10579000284600F0BBFA002004E030216A4611548C
:1057A000411C08B20B28F8DB6946304600F092F93C
:1057B0006946284600F0AAFA00BF00BF09A12846A2
:1057C00000F0A4FA3046FEBD30303030303030309A
:1057D00030303000203D2000220000002C203078A6
:1057E000000000000D0A0000FFB585B0044601204E
:1057F000049000200090019002900390002100236B
:1058000000BF05E000258600079A9551421C10B2A2
:105810000E9A9042F6DB00205DE0002924D1255C41
:10582000089A95420ED0049A012A0BD10E9A9342FF
:1058300008DA26181A465B1C9500079A5651002272
:10584000049211E0255C089A954202D0225C202A3D
:105850000AD1049A002A07D12254421CA25C202AB1
:1058600001D00122049234E0002225E0002910DD5D
:10587000255C56001B4FF6197678B54209D14D1EAE
:105880006E46755D5600BE5DB54202D14D1EE9B251
:1058900014E0255C5600134FBE5DB5420AD1550099
:1058A0003E46765D0D464F1CF9B26F467E550907A0
:1058B000090F03E0551CEAB2002AD7D000BF225CD2
:1058C0005C2A05D1421CA25C002A01D0421C90B285
:1058D00000BF421C90B2069A90429EDB184609B067
:1058E000F0BD0000D800002030B502460B46002075
:1058F000002108E0545C5D5CAC4200D009E0441C2F
:10590000A0B24C1CA1B2545C002C02D05C5C002CF8
:10591000F0D100BF30BD0246002003E00B5C135401
:10592000431C98B20B5C002BF8D113547047000055
:10593000F0B585B00446A08E0490002003900025A9
:10594000A089002807D12046FFF707FC0121204647
:1059500000F060F97AE0A089002877DD0021A289B3
:1059600020698154A66D00273DE038018119204649
:10597000FEF744FE002834D139018819FFF75CF99D
:10598000019020690199FFF7AFFFA189884228D1D2
:10599000002D22D0012D03D12DA1204600F0B6F913
:1059A0000398000181192046FFF704FC390188198A
:1059B000FFF742F90190039909018819FFF73CF9B3
:1059C00000900199FFF790FF02900499029881429C
:1059D00001DD029800E004980490B8B20390681CBE
:1059E00085B2781C07B25C20005BB842BDDC002D9C
:1059F00001D105B0F0BD012D02D12046FEF72EFEEB
:105A0000002D0AD0039909018819FFF715F90746F7
:105A100039462069FFF77FFFA081012D0BDD039838
:105A2000000181192046FFF7C5FB0121204600F047
:105A3000F1F80498A0810021A28920698154A189EC
:105A4000E1812046216900F061F900BF00BFD0E785
:105A50000D0A000008B505462C460DE0606E0028D2
:105A60000AD001216846626E9047012804D1684639
:105A700001782046FFF74EF9F0E7F8B504460D46E9
:105A80000B262746002C00DA67420020E8720DE062
:105A90000A213846FAF780FB3031701EC0B2064644
:105AA00029540A213846FAF777FB0746002FEFD131
:105AB000002C04DA2D21701EC0B206462954002C99
:105AC00004D13021701EC0B2064629540B20801B21
:105AD00040B2F8BD30B502460B46082400201872CB
