:020000040800F2
:10000000C058002051010008C935000849340008D3
:1000100000000000000000000000000000000000E0
:10002000000000000000000000000000E9380008A7
:1000300000000000000000000F010008EB3800087D
:100040006301000863010008630100086301000800
:1000500063010008630100086301000863010008F0
:1000600063010008630100086301000863010008E0
:1000700063010008630100086301000863010008D0
:1000800063010008630100086301000863010008C0
:1000900063010008630100086301000863010008B0
:1000A00063010008630100086301000863010008A0
:1000B000630100081540000863010008630100089F
:1000C0000448854600F054FD004800473973000895
:1000D000C046C046C0580020084B19680868203048
:1000E00080F30988022080F31488BFF36F8F3FBC30
:1000F000AE4608BC04BC62B61847000018000020D9
:10010000EFF3108072B6704780F310887047EFF3FA
:1001100009800E4B1A6820381060F0C044464D46E6
:1001200056465F46F0C008B572B60AF031FC62B6BA
:100130000CBC116808681030F0C8A046A946B24649
:10014000BB4680F309882038F0C818471800002003
:100150000448804704480047FEE7FEE7FEE7FEE765
:10016000FEE7FEE755390008C100000830B50B4630
:10017000014600202022012409E00D46D5409D4281
:1001800005D31D469540491B254695404019154607
:10019000521E002DF1DC30BD70B50024254600282C
:1001A00001DA01244042002901DA01254942FFF722
:1001B000DDFFAC4200D04042002C00D0494270BD6F
:1001C000F0B51FB40646002082B0054640240191D8
:1001D00000901BE0019922460F46304600F0F0FAED
:1001E000049A059B801A994110D31046194622465D
:1001F00000F0D6FA361A8F410197224601200021DD
:10020000009F00F0CDFA38184D4100902046641E42
:100210000028DFDC019B00982946324607B0F0BD7C
:10022000F0B51FB486B000200090019002900698AF
:10023000069980B204900798090C02040014114337
:1002400007900027089D099806913E463C4603907A
:100250000398A9B20204000C039004982D0C1543D6
:1002600048430021224600F09BFAC719714110341F
:100270000E46402CECDB3846029A00F091FA009AC8
:10028000019B801800905941029801911030029012
:100290004028CCDB00980BB0F0BD03460B439B0716
:1002A00003D009E008C9121F08C0042AFAD203E0EB
:1002B0000B780370401C491C521EF9D27047D2B211
:1002C00001E00270401C491EFBD270470022F6E795
:1002D00010B513460A4604461946FFF7F0FF2046BC
:1002E00010BD421C0178401C0029FBD1801A7047C8
:1002F00010B5002200E0521C835C8C5CA34201D14B
:10030000002BF8D1D8B2E1B2401A10BD03460A78EA
:100310000270401C491C002AF9D11846704730B5BC
:1003200005460020034600E05B1C934205D2EC5CCE
:10033000C85C201A01D1002CF6D130BDF8B50246B8
:100340004A40D40F42004B0052085B089A4202D246
:100350000246084611464A0023D0C30D4A00DDB2CA
:10036000120EAD1A202D35DA49020126490AF6058A
:100370008A19002C00D0524220214F1B1146B9404F
:100380002A411018C20D9A4221D0002C17D0012DFD
:1003900008DCDA05801AD20F8019D207DBB200F030
:1003A0003BFAF8BDDA05801A012340001B06C0188D
:1003B00080185A428018CA0F1043490007E04908C4
:1003C000C2071143DA05801A80194008801800F02E
:1003D0001BFAF8BD61000122511A001BF7E7012248
:1003E000D2075140AAE70122D2075040A6E70246B1
:1003F00070B54A40D30FDB0740002DD04A002AD009
:10040000010E140E000212020919400A520A841841
:10041000E50104465443000A120A2E045043A4196D
:100420004219200CC543AA18120C0125AD03521C19
:10043000521912047F39240400D0521C104301D4F5
:100440004000491EC2B20C06C0092018401C4008DA
:10045000802A02D003E0002070BD4008400000293F
:1004600000DA0020184370BD70B502464A40D50F2F
:1004700040004A00ED0740085208002814D0002A26
:1004800012D0C40DD30D41020120C0055202490A09
:10049000520AE41A091812187D34914201D3641CDF
:1004A00000E04900002C01DA002070BD00239142D9
:1004B00001D3891A0343400849000028F7D10029D5
:1004C0000AD0914202D10121C90705E0914201D22F
:1004D000012101E00121C943E005C018401900F0E5
:1004E00093F970BDF0B507460846584087B0C00F75
:1004F000049048000E46590040084908BC1A88413B
:1005000005D2384631461E4617460B46024658006D
:10051000400810434DD0300D039040055900400D68
:10052000490D0590401A0290402873DA1803012102
:10053000000B09050843019004980092002806D09A
:100540001146019A49420020904100910190029881
:1005500040210A1A0199009800F022F905460C463C
:100560006B4607CB00F03DF9C0197141039A0E0D9F
:100570000023D71756401A467A40164344D0049AAF
:10058000002A2DD0029A012A039A15DC1205C01AFE
:10059000914101263605001C7141D20F059ED207FC
:1005A0000093019202962A46234600F07BF907B099
:1005B000F0BD38463146FAE71605234A0F46B21811
:1005C000C01AB74101210905001C4F4100187F41A5
:1005D000114618187941E20F10436D19644113E078
:1005E000E2076D0815436408C2071443039A012605
:1005F0001205C01A91413605001C7141CE07400812
:1006000030434908C01851412A46234600F03DF9BD
:10061000CDE7FFE7049801224000C117121A00231A
:100620008B4104983146C417381AA141EEE730B423
:100630000124E407634030BC54E730B40124E407EC
:10064000614030BC4EE700000000E0FFF0B51FB491
:1006500088B00B990998002448400999C00F4900B7
:1006600049080991C0070B990090490049080B916E
:1006700009990898A64608431CD00B990A98084384
:1006800018D0099801244000420D4800410D0998F6
:1006900024050003000B204309900B980003000B76
:1006A00020430B9050181C4940180022019014461A
:1006B000104605E0002001460DB0F0BD032801DA28
:1006C000034600E003239C46C11A0AAE0AE05F001D
:1006D00008ADED5B4F00F75B7D430027AA187C4116
:1006E000491C5B1E6145F2DD410004AB5A522104F6
:1006F000120C0A43240C401C0828DFDB01980290EE
:100700000099704601910090059B049A07990698FC
:1007100000F0C8F8D0E700000DFCFFFFC217C10FC2
:10072000504010B54018CA079623002100F074F815
:1007300010BD10B500229623114600F06DF810BDD3
:10074000C20FD207400040080BD0C10D0723DB01C8
:10075000C91840020905400A1143C2084007114365
:100760007047002001467047CB0FDB07490010B5EA
:10077000490802460A4307D00A0D07240903E40189
:10078000090B121B002A01DC002010BDC900440F18
:100790000C43C100E018D205801800F035F810BDF8
:1007A00010B5202A04DB0146203A9140002010BDFC
:1007B000914020239C1A0346E3401943904010BD0A
:1007C00010B5202A04DB0846203AD040002110BD95
:1007D0000B46D340D0402024A21A9140084319462A
:1007E00010BD10B5202A06DBCB170846203A104171
:1007F000C1170B4306E00B461341D0402024A21A38
:1008000091400843194610BD002904DA401C4900F4
:1008100001D140084000704770B40024050C05D198
:100820001024000402D1002921D01124050E01D189
:1008300000020834050F01D10001241D850F01D1EC
:100840008000A41C002801DB4000641C002908D0A3
:1008500020252E1B0D46F540A14000D00121294343
:10086000084301061B1B000ADB1D02D5002070BCDB
:100870007047DB05181880180029F8DA401C490079
:10088000F5D170BC40084000704710B5002B08DA65
:100890000024401C614192185B411A4301D1400879
:1008A000400010BDF0B51FB482B005460C0003D067
:1008B000084603F0E3FB02E003F0E0FB20300246D1
:1008C000009021462846FFF76BFF049B059A0446DB
:1008D0000F4618431143084314D0184610431BD049
:1008E000009840210A1A18460599FFF769FF054646
:1008F0000E46009A05990498FFF752FF084305D069
:10090000012004E02046394607B0F0BD0020C117A1
:1009100005430E432C43374300990E986305401A54
:100920007905E40A00220C43FD0A0A3002D50020B2
:100930000146E9E70105101969410C9C0D9D00195C
:100940006941FFF7A2FFDFE7F0B50C465C4085B0D8
:10095000E40FE40703944C00002664085900944611
:10096000490802460296224321D062460A431ED01D
:100970006200570D4A000E032303550D0124024661
:100980002C492405781B1B0B360B401823432643A8
:10099000614600901C46501AB44103D30098401C95
:1009A000009002E0921800985B41002803DA0020D2
:1009B000014605B0F0BD0020012109050746864625
:1009C00011E064461D46141BB54106D36546521B13
:1009D000B341744607430C43A646CD074008490877
:1009E000284392185B4105460D43EAD1104618434F
:1009F00013D06046194650407140084306D0604607
:100A0000101AB34106D20122002306E0002201237E
:100A1000DB0702E00122D24353100098744601051F
:100A2000381C6141029C039D00196941FFF72DFFAD
:100A3000BFE70000FD03000070B54B005B080343F7
:100A40000BD04B005C0D002633466542B341D417F2
:100A5000AD1AA34102DB0020014670BD120530181B
:100A6000514170BDFEB500231A461B1A8A4103DBB3
:100A70000020014603B0F0BD4A000D0301212D0BFB
:100A80000905520D0D43D10702D100186D41521EC8
:100A90005110FF31FF310131002704463E463846F0
:100AA000009701910246012100200905FFF788FE09
:100AB000C3197141F818324684468E464A41614650
:100AC0002846611A904104D36046241A954176461F
:100AD0001F46241900986D41401C00903428E1DD28
:100AE000F91930467041091BA84103D20022D243B4
:100AF000134601E00022134601980105381C71419C
:100B0000FFF7C3FEB6E700004A0009030123090B03
:100B10001B0519430A4B10B5520D9A4202DA002008
:100B2000014610BD064B34339A4203DC9A1AFFF794
:100B300047FE10BD034BD218FFF732FE10BD000078
:100B4000FF030000CDFBFFFF10B5002904DB0124EB
:100B5000E40740428C412146002B04DB1C46012364
:100B6000DB075242A341994200D1904210BD0000E0
:100B7000064C0125064E05E0E36807CC2B430C3CF0
:100B800098471034B442F7D3FFF79EFA18BC000818
:100B900038BC00080EB5C217C10F5040CA07401834
:100BA0000021054B0293019200910A460B46FFF784
:100BB00079FE03B000BD0000330400000EB5054906
:100BC0000291002100910A460B460191FFF76AFE4F
:100BD00003B000BD3304000070B5CD0F4A00090317
:100BE0000123090B1B0519430B4BED070024520D84
:100BF0009A4201DA002070BD074B34339A4203DC7D
:100C00009A1AFFF7DDFD02E00449511888402C4391
:100C1000F1D0404270BD0000FF030000CDFBFFFF9C
:100C200070B58C180578401C6B075B0F01D10378F9
:100C3000401C2A1106D10278401C03E006780E7091
:100C4000401C491C5B1EF9D12B0705D40023521E02
:100C50000DD40B70491CFAE70378401CCB1A921C88
:100C600003E01D780D70491C5B1C521EF9D5A14292
:100C7000D8D3002070BD72B600BFFEE70146002940
:100C800001D1012070472520405C022808D00420B3
:100C9000C86300BF00222420425400BF0120F1E7B6
:100CA000086800680E2290430A681060886C00682B
:100CB000FF22013290438A6C106008680068400887
:100CC00040000A6810601C22486C104001228240DB
:100CD000086C4260CA6C086D5060486D002809D0ED
:100CE000486D0068FF22013290434A6D10608A6DA2
:100CF000C86D506001222520425400BF00222420EC
:100D0000425400BF0020BDE770B5044600252520F1
:100D1000005D022803D00420E063012537E020684D
:100D200000680E2188432168086020680068400838
:100D3000400021680860A06C0068FF2101318843F1
:100D4000A16C08601C21606C084001218140206C6E
:100D50004160E16C206D4860606D002809D0606DD5
:100D60000068FF2101318843616D0860A16DE06D6D
:100D7000486001212520015500BF00212420015594
:100D800000BFA06B002802D02046A16B88472846F0
:100D900070BD000070B502460B460021E1E001265F
:100DA0008E401C683440002C73D01D79AD07AD0F08
:100DB000012D04D01D79AD07AD0F022D18D190681B
:100DC0004E000325B5400646AE4330464E00DD6872
:100DD000B54028439060506801258D400646AE43DB
:100DE000304610265D6835402D098D4028435060FF
:100DF0001D79AD07AD0F032D0BD0D0684E00032534
:100E0000B5400646AE4330464E009D68B540284387
:100E1000D0601D79AD07AD0F022D15D1CD08AE0004
:100E200015462035A8594D07EE0E0F25B54006464C
:100E3000AE4330464E07F60E1D69B5402843CD0837
:100E4000AD0016462036705110684E000325B5409F
:100E50000646AE4330461D79AD07AD0F4E00B54096
:100E600028431060032636045D683540002D77D096
:100E70003F4D8E08B600A8598D07EE0E0F25B540E0
:100E80000646AE43304605252D07AA4202D100256D
:100E90001AE065E0374DAA4201D1012514E0364D34
:100EA000AA4201D102250FE0344DAA4201D1032507
:100EB0000AE0334DAA4201D1042505E0314DAA4292
:100EC00001D1052500E006258E07F60EB540284322
:100ED000274D8E08B600A851254D603D286805466F
:100EE000A5432846012636055D683540002D02D011
:100EF0000546254328461E4D603D28606868054626
:100F0000A5432846012676055D683540002D02D0B0
:100F1000054625432846164D603D6860144D203532
:100F200068680546A5432846012676045D68354075
:100F3000002D02D00546254328460D4D203568601A
:100F400028680546A5432846012636045D683540D5
:100F5000002D02D0054625432846054D2035286042
:100F6000491C1D68CD40002D00D018E770BD000061
:100F7000601802400004005000080050000C0050AF
:100F8000001000500014005010B5426913460B4089
:100F90001B040C4694432343836110BD002A01D0F7
:100FA000816100E08162704701480068704700007D
:100FB0000800002010B50024032000F009F80028E4
:100FC00001D0012401E000F033F8204610BD0000FC
:100FD000F8B5044600251348006800281ED01148C3
:100FE00001687D20C000FFF7C1F8074639460E486A
:100FF0000068FFF7BBF8064601F0A0FD00280BD102
:10100000042C07D200222146401E00F045F8074874
:10101000046004E0012502E0012500E001252846E6
:10102000F8BD000010000020140000200C0000207B
:1010300008B500BF0E4880690121090708430C4923
:1010400088610846806989050840009000BF00BF9C
:1010500000BF0748006A01210843054908620846A5
:10106000006AC007C00F009000BF00BF08BD0000AD
:10107000401002400146002909DB00BF00BFCB063B
:10108000DB0E01229A40034B1A6000BF00BF00BF75
:101090007047000000E100E070B504460D461646BA
:1010A0002946204603F03EF870BD000070B50546A5
:1010B0000120400285422CD12048006803214902CA
:1010C00008402946884237D01C480068032149025D
:1010D0008843401919490860194909683222514367
:1010E00008461849FFF742F8441C00E0641E134804
:1010F0004069012189020840884201D1002CF5D1C4
:101100000E484069012189020840884214D1032019
:1011100070BD0A4800680321490208400121890284
:10112000884209D00548006803214902884301210B
:1011300089024018014908600020E9E7007000407A
:101140001400002040420F000248006803214902B9
:101150000840704700700040FEB504464648C0682D
:101160007F2109020840060A4348C0688007800FB3
:1011700001904148C068702108400009401C00905F
:101180003D48006808210840002804D03A4800681B
:10119000F021084006E03848803040690F210902FC
:1011A0000840000907090B2F00D90B2701980128D7
:1011B0000BD0022802D0032817D10FE02F48009946
:1011C000FEF7D4FF7043054618E0B9002C4A50588A
:1011D0000099FEF7CBFF704305460FE029480099C0
:1011E000FEF7C4FF7043054608E0B900244A505892
:1011F0000099FEF7BBFF7043054600BF00BF1E48C5
:10120000C06801210904084000280BD01A48C068B2
:101210001F2252041040400C411C2846FEF7A6FF36
:10122000206001E0002020601348C0680121090609
:10123000084000280BD01048C06807225206104012
:10124000400E411C2846FEF791FF606001E000203F
:1012500060600948C068012109070840002808D0DB
:101260000548C068400F411C2846FEF77FFFA0607C
:1012700001E00020A060FEBD001002400024F40048
:101280004CB6000800093D00FEB5064600270120C7
:10129000C003864236D1FC480469032109020C4090
:1012A000E01FF938002808D0FF38013800280CD09A
:1012B000FF380138002823D118E0F34800690221E3
:1012C0000840022800D187031BE0EF484069022153
:1012D0000840022809D1EC4840690421084004284C
:1012E00001D1FA2701E07D273F020AE0E648803875
:1012F0000068012149040840884200D1E34F00E022
:1013000000BF29E3FF210131701A8E4272D012DC36
:10131000102E70D008DC012E31D0022E59D0042EB0
:101320006AD0082E69D1BCE0202E67D0402E74D040
:10133000802EF7D183E11F221202811A90426DD0D4
:1013400010DCFF380138002869D0FF38FF38023838
:10135000002870D001218902401A6DD04900401A3E
:10136000E0D175E201204003081A7CD003218903F3
:10137000401A62D001210904401AD3D15EE0C2486C
:1013800080688407A40F002C06D0012C08D0022C02
:101390000AD0032C1AD111E000F08AFD074616E0AE
:1013A00000F09AFD074612E0B74880380068012136
:1013B00089020840884200D1B54F08E0B248006970
:1013C00002210840022800D1870300E000BF00BFCF
:1013D000C1E2AD4884680C210C40002C06D0042CDE
:1013E0000DD0082C0FD00C2C22D119E000F060FD9C
:1013F00007461EE066E125E084E0ABE2D6E000F0BF
:101400006BFD074615E0A04880380068012189027D
:101410000840884200D19E4F0BE0EBE059E290E19A
:101420009948006902210840022800D1870300E0A2
:1014300000BF00BF8FE2C3E1E6E100BF00F038FD6E
:10144000074688E290488468032189020C40002CFA
:101450000AD00015201A0BD001218902401A0BD0A6
:10146000401A1BD112E077E000F022FD074616E09B
:1014700000F032FD074612E0834880380068012101
:1014800089020840884200D1814F08E07E48006907
:1014900002210840022800D1870300E000BF00BFFE
:1014A00059E279488468032109020C40002C0CD0D1
:1014B000E01FF93800280CD0FF38013800280CD084
:1014C000FF38013800281AD111E000F0F1FC07467E
:1014D00016E000F001FD074612E06B488038006816
:1014E000012189020840884200D1694F08E066481E
:1014F000006902210840022800D1870300E000BFF4
:1015000000BF28E260488468C0210C40002C06D04F
:10151000402C08D0802C0AD0C02C1AD111E000F049
:10152000C7FC074616E000F0D7FC074612E0564815
:1015300080380068012189020840884200D1544F58
:1015400008E05148006902210840022800D18703C1
:1015500000E000BF00BFFEE14B488468032109079B
:101560000C40002C0AD00F2000072018002815D0AE
:101570000F2109074018002815D103E000F0ACFC4A
:10158000074611E040488038006801218902084080
:10159000884201D13E4F00E0002705E06846FFF792
:1015A000DBFD009F00E000BF00BFD4E13648846847
:1015B000032109030C40002C07D08014201A08D006
:1015C00001210903401A12D107E000F071FC07461F
:1015D0000EE000F081FC07460AE02B4880380068E6
:1015E000012189020840884200D1294F00E000BF54
:1015F00000BFB0E124488468032109040C40002C9A
:1016000008D001200004201A08D001210904401A42
:1016100012D107E000F04CFC07460EE000F05CFC45
:1016200007460AE01848803800680121890208400E
:10163000884200D1164F00E000BF00BF8BE1124886
:101640008468032189040C40002C0AD00120800406
:10165000201A0AD001218904401A1ED0401A2ED126
:1016600024E000F025FC07462AE0074840690221F3
:101670000840022810D10448406904210840042889
:1016800008D1FA2708E000008010024048E8010075
:101690000024F4007D273F0212E0B04800680121D9
:1016A00089020840884200D1AD4F09E0AB48803044
:1016B000006902210840022800D1870300E000BF32
:1016C00000BF48E1A54880308468032109050C402B
:1016D000002C0AD001200005201A0AD0012109059A
:1016E000401A19D0401A29D11FE000F0E1FB07464B
:1016F00025E09A48803040690221084002280AD13A
:1017000096488030406904210840042801D1FA2716
:1017100001E07D273F0212E0904800680121890224
:101720000840884200D18E4F09E08C488030006923
:1017300002210840022800D1870300E000BF00BF5B
:1017400009E1864880308468032189050C40002C1B
:101750000AD001208005201A0AD001218905401AEB
:1017600019D0401A29D11FE000F0A2FB074625E05E
:101770007A48803040690221084002280AD177481F
:101780008030406904210840042801D1FA2701E093
:101790007D273F0212E0714800680121890208405C
:1017A000884200D16E4F09E06C4880300069022108
:1017B0000840022800D1870300E000BF00BFCAE054
:1017C000664880308468012109060C40002C04D052
:1017D00048422018002814D10EE060488068072194
:1017E00009030840002803D100F062FB074602E02D
:1017F00000F05EFB470005E06846FFF7ADFC019F87
:1018000000E000BF00BFA6E054488030846801219A
:1018100049060C40002C04D048422018002814D15E
:101820000EE04E488068072109030840002803D1D4
:1018300000F03EFB074602E000F03AFB470005E0FF
:101840006846FFF789FC019F00E000BF00BF82E00F
:10185000424880308468032189060C40002C33D034
:101860003F2080062018002809D03F218906401813
:10187000002824D04018002828D13A4F27E03748C4
:10188000006802210840022818D134480068082165
:101890000840002804D031480068F021084006E0E4
:1018A0002E48803040690F210902084000090509CF
:1018B0000B2D00D90B25A8002B490F5807E06846CF
:1018C000FFF74AFC019F02E0002700E000BF00BFD5
:1018D00041E0224880308468032189060C40002CB6
:1018E00033D03F2080062018002809D03F218906E8
:1018F0004018002824D04018002828D1194F27E08C
:101900001648006802210840022818D113480068D0
:1019100008210840002804D010480068F021084041
:1019200006E00E48803040690F2109020840000996
:1019300005090B2D00D90B25A8000B490F5807E00E
:101940006846FFF709FC019F02E0002700E000BFA6
:1019500000BF00E000BF00BF3846FEBD00100240DF
:101960000024F400006CDC024CB60008FEB504460E
:101970000027002002900121C90320680840884206
:101980007BD100200190DD48806949030840002890
:101990000ED100BFD94880690843D84988610846FC
:1019A000806989050840009000BF00BF01200190B8
:1019B000D3480068FF2101310843D1490860FFF78F
:1019C000F3FA064606E0FFF7EFFA801B022801D97A
:1019D000032706E0CA480068FF21013108400028BB
:1019E000F1D000BF002F4BD1C4484030056903211E
:1019F00009020D40002D1AD0206CA84217D0BF4814
:101A00004030006988430546BC48403000690121E8
:101A100009040843B94940310861084600690121B9
:101A200009048843B5494031086108460561E80763
:101A3000C00F002813D0FFF7B7FA064607E0FFF7FC
:101A4000B3FA801BAF49884201D9032706E0AB48AF
:101A500040300069022108400028F0D000BF002F6C
:101A60000CD1A64840300069032109028843216C4B
:101A70000843A2494031086103E00DE0029700E00D
:101A800002970198012806D19C4880690121090725
:101A900088439A49886100BF2078C007C00F00289A
:101AA00009D096484030806880088000616808430B
:101AB000924940318860022120680840022809D1FB
:101AC0008E48403080680C218843A16808438B49C8
:101AD0004031886010212068084010280AD18748CA
:101AE0004030806803218902884361690843834943
:101AF0004031886008212068084008280AD17F48C2
:101B000040308068032109028843216908437B49EA
:101B100040318860042120680840042809D17748B2
:101B200040308068C0218843E168084373494031F0
:101B3000886020212068084020280AD16F48403062
:101B40008068032109038843A16908436B49403138
:101B5000886040212068084040280AD1674840300A
:101B60008068032109048843E169084363494031DF
:101B7000886080212068084080280AD15F48403072
:101B80008068032189048843216A08435B49403106
:101B90008860FF2101312068084088420AD15748F7
:101BA00040308068032109058843616A084353492E
:101BB00040318860012149022068084088420AD1EA
:101BC0004E4840308068032189058843A16A084354
:101BD0004A494031886001218903206808408842D1
:101BE00016D18903E06B884207D144484038C06869
:101BF0000913084341494039C86040484030806873
:101C0000032109078843E16B08433C494031886060
:101C10000121090320680840884216D1C903606B7E
:101C2000884207D135484038C068C9100843334955
:101C30004039C860314840308068032189068843B4
:101C4000616B08432D4940318860012149032068B8
:101C50000840884216D18903A06B884207D12748E3
:101C60004038C068C910084324494039C860234837
:101C700040308068032189068843A16B08431F49CF
:101C8000403188600121890220680840884215D1CE
:101C90008903E06A884206D118484038C068084382
:101CA00016494039C860154840308068012109064E
:101CB0008843E16A08431149403188600121C90223
:101CC00020680840884216D18903206B884207D1DA
:101CD0000A484038C0684910084308494039C8607C
:101CE000064840308068012109068843216B08437B
:101CF0000249403188600298FEBD00004010024059
:101D00000070004088130000F8B504460D46604896
:101D100000684007400FA8420ED25D480068C00826
:101D2000C00028435A490860084600684007400F31
:101D3000A84201D00120F8BD2078C007C00F0028BC
:101D40005FD06068032808D1524800680121490625
:101D50000840002839D10120EDE76068022808D149
:101D60004C48006801214904084000282DD1012079
:101D7000E1E76068002807D1464800680221084072
:101D8000002822D10120D6E76068012808D1414807
:101D90000068012189020840002816D10120CAE705
:101DA0006068042808D13B4880304069022108401F
:101DB00000280AD10120BEE73648803000690221A0
:101DC0000840002801D10120B5E732488068C008EA
:101DD000C000616808432F498860FFF7E5F80646B0
:101DE00007E0FFF7E1F8801B2B49884201D9032067
:101DF000A1E728488068382108406168C900884206
:101E0000EFD1022120680840022808D121488068CB
:101E10000F2109028843A16808431E4988601C48B5
:101E200000684007400FA8420ED919480068C00852
:101E3000C000284316490860084600684007400F64
:101E4000A84201D0012076E7042120680840042838
:101E500008D110488068072109038843E1680843D6
:101E60000C49886000F038F80A4989680F2212028C
:101E70001140090A094A515CC906C90EC8400849FF
:101E800008600320FFF7A4F80746384653E7000030
:101E900000200240001002408813000033B6000802
:101EA0001400002001480068704700001400002062
:101EB00000B5FFF7F7FF06498968072212031140B2
:101EC000090B044A515CC906C90EC84000BD000098
:101ED0000010024043B60008F0B585B00025002090
:101EE00004903C4880683821084004463948C0685E
:101EF0008007800F0090002C04D0182C1FD1009870
:101F000001281CD13348006808210840002807D167
:101F10003048803040690F2109020840050A04E07A
:101F20002C480068F021084005090B2D00D9002538
:101F3000A80029490D58002C16D1049514E0082C4E
:101F400002D1264804900FE0102C02D124480490BE
:101F50000AE0202C03D17D200002049004E0282C0C
:101F600002D10120C0030490182C2FD11948C06859
:101F70008707BF0F1748C068702108400009401C40
:101F80000190012F09D0022F02D0032F04D101E0CC
:101F9000124E04E0124E02E000BF2E4600BF00BF0A
:101FA0000C49C9687F2212021140090A7143084690
:101FB0000199FEF7DBF803900648C068400F401C0B
:101FC000029002990398FEF7D1F80490049805B0A6
:101FD000F0BD0000001002404CB600080024F400E0
:101FE00000093D00FEB50446F748806838210840E6
:101FF0000646F548C0688007800F029010212068CF
:10200000084010287DD1002E04D0182E7AD10298D5
:1020100001287FD1EC48006802210840002804D044
:10202000E069002801D10120FEBDE748616A00682F
:1020300008221040002804D0E3480068F022104035
:1020400006E0E148803040690F221202104000098A
:10205000814221D9606A01F0B9FA002801D001203B
:10206000E2E700BFD848006808210843D649086065
:1020700008460068F0218843616A0843D249086035
:1020800000BF08464068FF2109028843216A09020F
:102090000843CD49486022E000BFCB4800680821D2
:1020A0000843C949086008460068F0218843616A0E
:1020B0000843C549086000BF08464068FF2109027F
:1020C0008843216A09020843BF494860002E06D1AF
:1020D000606A01F07BFA002801D00120A4E7FFF735
:1020E000FBFEB94989680F2212021140090AB74A5A
:1020F000515CC906C90EC840B5490860B5480068BA
:1021000001E03BE006E0FEF763FF0746002F4DD0FD
:10211000384689E7E069002831D0AB4800680121E2
:102120000843A9490860FEF73FFF054606E0FEF7B1
:102130003BFF401B022801D9032075E7A248006835
:10214000022108400028F2D000BF9F480068082103
:1021500008439D49086008460068F0218843616A89
:1021600008439949086000BF08464068FF210902FA
:102170008843216A090208439349486016E092485F
:1021800000684008400090490860FEF70DFF0546D2
:1021900006E0FEF709FF401B022801D9032043E7B0
:1021A00089480068022108400028F2D12078C00741
:1021B000C00F002859D0102E04D0182E0ED102982E
:1021C00003280BD1804800680121490408400028F9
:1021D0004BD06068002848D1012025E700BF0121CD
:1021E00009046068884205D1774800680843764949
:1021F000086011E0052109046068884205D1724831
:10220000006808437049086006E06F4800680521CF
:10221000090488436C49086000BF6068002812D038
:10222000FEF7C2FE054606E0FEF7BEFE401B642830
:1022300001D90320F8E664480068012149040840F8
:102240000028F1D011E0FEF7AFFE054606E0FEF7EC
:10225000ABFE401B642801D90320E5E65A4800681C
:102260000121490408400028F1D1022120680840DA
:1022700002285DD1082E04D0182E19D10298022808
:1022800016D151480068012189020840002804D075
:10229000E068002801D10120C6E64B4840687F2154
:1022A00009068843217C09060843474948603FE006
:1022B000E068002823D044480068FF21013108432A
:1022C00041490860FEF770FE054606E0FEF76CFE29
:1022D000401B022801D90320A6E63B4800680121E3
:1022E000890208400028F1D0374840687F2109065C
:1022F0008843217C090608433349486018E0324886
:102300000068FF21013188432F490860FEF74CFE29
:10231000054606E0FEF748FE401B022801D90320CF
:1023200082E6294800680121890208400028F1D18D
:10233000082120680840082855D1606900282FD05E
:10234000A069002808D120488030406904218843D2
:102350001D498031486107E01B48803040690421F5
:10236000084319498031486117488030406901218C
:102370000843154980314861FEF716FE054606E020
:10238000FEF712FE401B112801D903204CE60E482F
:10239000803040690221084040080028F0D022E047
:1023A0000948803040694008400007498031486151
:1023B000FEF7FAFD05460FE0FEF7F6FD401B11287B
:1023C0000AD9032030E600000010024033B60008AE
:1023D000140000200C000020D4484069022108406D
:1023E00040080028E8D104212068084004286FD163
:1023F00000200190CD4840388069890608400028B7
:1024000010D100BFC948403880690843C7494039E6
:1024100088610846806989050840009000BF00BFB8
:1024200001200190C2480068FF21013108400028C6
:1024300016D1BF4800680843BD490860FEF7B4FDE7
:10244000054606E0FEF7B0FD401B022801D9032037
:10245000EAE5B7480068FF21013108400028F1D0C3
:10246000207AC007C00F002817D00421A0680840B8
:1024700000280BD0AD4800690843AC490861084604
:10248000006901210843A949086112E0A7480069D1
:1024900001210843A54908610BE0A44800694008F0
:1024A0004000A249086108460069042188439F4909
:1024B0000861A068002844D0FEF776FD054608E0D4
:1024C000FEF772FD401B9B49884202D90320ABE511
:1024D00071E096480069022108400028F0D0802170
:1024E000A0680840002815D09048006908438F492B
:1024F000086107E0FEF758FD401B8E49884201D96C
:10250000032091E5894800690121C902084000289B
:10251000F0D043E085480069802188438349086101
:1025200007E0FEF741FD401B8249884201D90320A4
:102530007AE57E4800690121C90208400028F0D1EF
:102540002CE0FEF731FD054607E0FEF72DFD411BAF
:102550007848814201D9032066E574480069022168
:1025600008400028F1D17148006980210840002806
:1025700014D06E48006988436C49086107E0FEF793
:1025800013FD401B6B49884201D903204CE5674885
:1025900000690121C90208400028F0D101980128F2
:1025A00008D16248403880690121090788435F49A2
:1025B0004039886100BF202120680840202831D19F
:1025C000A06A002817D0594880690121084357495B
:1025D0008861FEF7E9FC054606E0FEF7E5FC401BD6
:1025E000022801D903201FE55048806902210840D4
:1025F0000028F2D016E04D488069400840004B4961
:102600008861FEF7D1FC054606E0FEF7CDFC401BD5
:10261000022801D9032007E54448806902210840C7
:102620000028F2D1E06A00287DD0404880388068D8
:1026300038210840182874D0E06A022853D13B485A
:1026400080380068012109068843384980390860CC
:10265000FEF7AAFC054606E0FEF7A6FC401B022892
:1026600001D90320E0E4314880380068012149069F
:1026700008400028F0D1616B206B0843A16B090270
:102680000843216C0843616C0843E16B0843274908
:102690008039C968284A1140084324498039C860F4
:1026A0000846C0680904084320498039C8600846C4
:1026B00000680121090608431C4980390860FEF7BB
:1026C00073FC054606E0FEF76FFC401B022801D9AB
:1026D0000320A9E415488038006801214906084014
:1026E0000028F0D01FE01148803800680121090659
:1026F00088430E4980390860FEF756FC054606E01F
:10270000FEF752FC401B022801D903208CE4074845
:10271000803800680121490608400028F0D102E015
:10272000FFE7012080E400207EE4000080100240EA
:1027300000700040881300008C80C11170B5044601
:10274000002C01D1012070BD606A002808D1FF2152
:1027500005316068884200D105E00021E16102E0B6
:102760000021216161610021A1625D20005D0028DE
:1027700004D15C200155204600F060F802215D2064
:1027800001552068006840218843216808600721BE
:102790000902E068884201D9002501E001252D03E6
:1027A0000F210902E068884206D007210902E0688B
:1027B000884201D00021A162FF21053160680840F4
:1027C00021229202A168114008430222216911408E
:1027D0000843217DC907C90F08431202A1691140AE
:1027E00008433822E169114008438022216A1140E0
:1027F00008439201A16A1140084321680860A0695A
:10280000000C042108401022616A1140084308228C
:10281000616B114008430F221202E1681140084326
:1028200001210903294008432168486000202066EF
:1028300001215D200155002085E7000010B586B01C
:102840000446142101A8FDF741FD1849206888427B
:1028500029D100BF1648006A891408431449086248
:102860000846006A89140840009000BF00BF00BFFE
:102870000F48C068012108430D49C8600846C06878
:10288000C007C00F009000BF00BF0A48019002209F
:10289000029000200390022004900520059001A9D9
:1028A0000007FEF777FA06B010BD000000300140C7
:1028B0004010024012180000FFB585B004461D46C6
:1028C0000E9E012001900020009000BF5C20005D62
:1028D000012802D1022009B0F0BD01215C20015580
:1028E00000BFFEF761FB07465D20005D0290606857
:1028F00003900495029801280DD0FF21053103981B
:10290000884205D1A068002802D10298042802D08C
:10291000022000900AE10698002804D007980028B9
:1029200001D0002D02D101200090FFE05D20005D6C
:10293000042802D005215D2001550020206607985B
:10294000206446200553442005530698A063E5877C
:10295000A5870020E064206507210902E06888421D
:1029600007D920684068012109038843216848602D
:1029700006E0206840680121090308432168486097
:102980002068006840210840402804D02068006882
:1029900008432168086007210902E068884257D986
:1029A0006068002802D00498012809D1A06B008833
:1029B0002168C860A06B801CA063E08F401EE08788
:1029C0003EE02068806802210840022811D1E08F93
:1029D00000280ED0019801280BD1A06B0088216837
:1029E000C860A06B801CA063E08F401EE0870020C1
:1029F000019020688068C007C00F002812D04620D0
:102A0000005B00280ED02068C068216C0880206C14
:102A1000801C20644620005B401E81B2462001538A
:102A200001200190FEF7C0FAC01BB04208D3701C11
:102A3000002805D00320009001215D20015575E09C
:102A4000E08F0028BDD14620005B0028B9D158E0B6
:102A50006068002802D00498012809D1A06B007892
:102A600021680873A06B401CA063E08F401EE087C4
:102A700040E02068806802210840022811D1E08FE0
:102A800000280ED0019801280BD1A06B0078216896
:102A90000873A06B401CA063E08F401EE0870020FD
:102AA000019020688068C007C00F002812D046201F
:102AB000005B00280ED02068007B216C0870206C21
:102AC000401C20644620005B401E81B2462001531A
:102AD00001200190FEF768FAC01BB04202D3701CBF
:102AE000002801D1002E05D10320009001215D2096
:102AF00001551BE0E08F0028BBD14620005B002879
:102B0000B7D13A463146204600F0B6FD002803D042
:102B10000120009020202066206E002802D0012095
:102B2000009002E001215D20015500BF00BF00219F
:102B30005C20015500BF0098CDE6000070B504464A
:102B40002546681E0949884201D901200CE0681E0B
:102B5000074948610321081F01F0E4FA00200449F5
:102B6000886107200861002070BD0000FFFFFF00A2
:102B700000E000E0014600BF8420405C012801D154
:102B80000220704701238420435400BF242388205F
:102B900043500868026808680068400840000B68F5
:102BA000186001235B0710469843024600204866E0
:102BB0000868026020238820435000BF002384203F
:102BC000435400BF0020DCE77047704770B50446EF
:102BD0000D4600BF8420005D012801D1022070BD98
:102BE00001218420015500BF242188200151206843
:102BF0000668206800684008400021680860206876
:102C00008068072149068843284321688860204658
:102C100000F0C4FE2068066020218820015100BF1A
:102C200000218420015500BF0020D8E770B504467C
:102C30000D4600BF8420005D012801D1022070BD37
:102C400001218420015500BF2421882001512068E2
:102C50000668206800684008400021680860206815
:102C60008068C000C008284321688860204600F0C2
:102C700095FE2068066020218820015100BF0021B8
:102C80008420015500BF0020D9E770477047704786
:102C9000F0B585B004462068C569206806682068DC
:102CA0008768FA48284003900398002814D1202010
:102CB0002840002810D020203040002804D10120D6
:102CC00000073840002807D0606F002802D0204657
:102CD000616F884705B0F0BD039800287ED0EC48AE
:102CE0003840002803D1EB4830400028F6D0E807F0
:102CF000C00F00280DD0FF2001303040002808D040
:102D00000120216808629020005901210843902188
:102D100008510220284000280CD0F807C00F0028D6
:102D200008D002202168086290200059042108433D
:102D3000902108510420284000280CD0F807C00F2B
:102D4000002808D004202168086290200059022140
:102D500008439021085108202840002810D0202046
:102D60003040002803D1CA483840002808D0082045
:102D700021680862902000590821084390210851D9
:102D80000120C002284000280ED0012080063040DB
:102D9000002809D00120C002216808629020005953
:102DA00020210843902108519020005900285ED02E
:102DB0002020284000280ED020203040002804D1B8
:102DC000012000073840002805D0606F002802D09D
:102DD0002046616F88479020005900E048E002904B
:102DE0002068806840210840402804D028210298AB
:102DF0000840002835D0204600F00AFF206880688F
:102E000040210840402828D100BF01F0C7F90190B7
:102E1000012001F002FD206880684021884321687C
:102E20008860019801F0F9FC00BF8020005900285B
:102E30000FD0994980200059816380210859FDF7FE
:102E400063FF002813D0802210591259916B8847D4
:102E50000DE02046FFF71BFF09E02046FFF717FFB4
:102E600005E02046FFF713FF00219020015131E7D4
:102E7000E06E01287ED11020284000287AD0102052
:102E800030400028FAD0102021680862206880684D
:102E900040210840402876D18020005900684068D1
:102EA00080B20190019800286CD05C20015B0198F1
:102EB000814267DD5E210198085380200059006837
:102EC00000682021084000284DD100BF01F066F9BC
:102ED0000090012001F0A1FC20680068FF21013171
:102EE000884321680860009801F097FC00BF00BF8C
:102EF00001F054F90090012001F08FFC20688068F7
:102F00004008400021688860009801F086FC00BFFE
:102F100000BF01F043F90090012001F07EFC206821
:102F200080684021884321688860009801F075FC22
:102F300000BF20218C2001510020E06600BF01F07D
:102F40002DF90090012001F068FC20680068102134
:102F5000884321680860009801F05FFC00BF802171
:102F60000859FDF78BFE022020675C20025B5E2083
:102F7000005B02E057E006E004E0101A81B2204650
:102F8000FFF722FEA6E65C20015B5E20005B081ACC
:102F900080B201905E20005B002843D00198002899
:102FA00040D000BF01F0FAF80090012001F035FC9C
:102FB00020680068FF21213188432168086000985B
:102FC00001F02BFC00BF00BF01F0E8F800900120E9
:102FD00001F023FC206880682D49C943084021681E
:102FE0008860009801F019FC00BF20218C2001515D
:102FF0000020E066606700BF01F0D0F8009001207B
:1030000001F00BFC206800681021884321680860EB
:10301000009801F002FC00BF0220206720460199C1
:10302000FFF7D2FD56E601200005284000280CD00D
:10303000012080053840002807D0012000052168C4
:1030400008622046FFF722FE44E680202840002840
:103050000FD080203040002804D10120C005384026
:10306000002806D0A06F002802D02046A16F884714
:1030700030E640202840002810D040203040002872
:103080000CD0204600F006FE24E600000F080000E9
:103090000100001020010004F93B00080120C005D8
:1030A0002840002808D0012080073040002803D0A5
:1030B0002046FFF7EAFD0DE6012000062840002823
:1030C00007D0F00FC007002803D02046FFF77DFD92
:1030D00000E600BFFEE510B50446002C01D101203A
:1030E00010BDA069002800D000E000BF8820005972
:1030F000002805D1002184200155204600F02CF83D
:10310000242188200151206800684008400021687F
:103110000860A06A002802D0204600F073FC204618
:1031200000F0D4FD012800D1DAE7206840680921C9
:10313000C902884321684860206880682A21884342
:1031400021688860206800680121084321680860C0
:10315000204600F0CFFCC3E710B598B00446142118
:1031600013A8FDF7B3F8442102A8FDF7AFF82249F0
:10317000206888423ED1102002900020079002A8CB
:10318000FEF7F4FB002801D0FDF775FD00BF1B48DA
:10319000806901210905084318498861084680694A
:1031A000012109050840019000BF00BF00BF13487E
:1031B000C068042108431149C8600846C06804215A
:1031C0000840019000BF00BF03201390022014901C
:1031D00000201590032016900820179013A9084886
:1031E000FDF7D8FD002201211D20FDF755FF1D2010
:1031F000FDF740FF18B010BD0080004040100240B5
:1032000000080050FFB585B004460D4617468C20D7
:103210000059202877D1002D01D0002F02D10120A4
:1032200009B0F0BD01210903A068884208D12069D6
:10323000002805D1E807C00F002801D00120EFE7E2
:1032400000219020015122218C2001510020E066B4
:10325000FDF7AAFE02905C2007535E20075300BFD3
:1032600001210903A06888420AD12069002803D1FE
:1032700037496020015324E0FF216020015320E002
:10328000A06800280AD12069002803D1FF2160200E
:10329000015316E07F216020015312E0012109074C
:1032A000A06888420AD12069002803D17F216020CC
:1032B000015306E03F216020015302E0002160201D
:1032C000015300BF6020005B039001210903A06847
:1032D000884205D12069002802D10026049502E029
:1032E0002E460020049028E008980090002220211B
:1032F0002046029B00F034FE002805D020218C20BF
:10330000015103208CE721E0002E09D12068406A9A
:1033100003990840049908800498801C049006E0F2
:103320002068406A0399C9B208403070761C5E205C
:10333000005B401E81B25E2001535E20005B0028CE
:10334000D2D120218C200151002069E7022067E7BB
:10335000FF010000FFB583B004460D4617468820E4
:10336000005920286DD1002D01D0002F02D101205D
:1033700007B0F0BD01210903A068884208D1206987
:10338000002805D1E807C00F002801D00120EFE791
:10339000002190200151212188200151FDF704FED8
:1033A0000190542007535620075301210903A068B8
:1033B000884205D12069002802D10026029502E04A
:1033C0002E460020029024E00698009000228021E2
:1033D0002046019B00F0C4FD002804D02021882055
:1033E00001510320C4E7002E09D102980088C005CE
:1033F000C00D216888620298801C029003E030783A
:1034000021688862761C5620005B401E81B25620DF
:1034100001535620005B0028D6D106980090002268
:1034200040212046019B00F09BFD002804D0202174
:103430008820015103209BE7202188200151002092
:1034400096E7022094E7704700BFFEE700B587B01B
:10345000142102A8FCF73AFF00BF2348C0680421EA
:1034600008432149C8600846C0680421084001900B
:1034700000BF00BF00BF1C48C068012108431A49B3
:10348000C8600846C068C007C00F019000BF00BFF9
:1034900000BF0846C068022108431349C8600846B7
:1034A000C06802210840019000BF00BF0022202117
:1034B00005200007FDF772FD012040030290002067
:1034C0000390049002A90948FDF764FC20200290B3
:1034D0000120039004900020059002A90520000718
:1034E000FDF758FC07B000BD401002400008005036
:1034F00010B51E481E490860E120400248600021C6
:103500001B488160C16001610C2141610021816122
:103510000121C90201623020154988620121090395
:103520001348C163490001640020114948660846F8
:10353000FFF7D1FD002801D0FDF79DFB00210C48CD
:10354000FFF774FB002801D0FDF795FB0021084828
:10355000FFF73CFB002801D0FDF78DFB0448FFF787
:1035600009FB002801D0FDF786FB10BD008000405C
:103570006801002010B5124812490860FF2005308C
:10358000486000210F48816007210902C1600221C3
:10359000016101214161490281611021C161002164
:1035A0000162416281620721C162002101634163BE
:1035B000FFF7C4F8002801D0FDF75DFB10BD000047
:1035C00000300140FC01002000BFFEE7F8B50446D2
:1035D000002627488069012109070840002803D0F8
:1035E000FDF7B2FD054618E000BF214880690121C2
:1035F000090708431E498861084680698905084013
:10360000009000BF00BFFDF79FFD05461848806988
:10361000012109078843164988610120400285423B
:103620000BD1802C12D9B02C01D902260EE0902C9F
:1036300001D901260AE0002608E0802C01D30226E9
:1036400004E0702C01D1012600E000260948006842
:10365000C008C000304307490860084600684007BA
:10366000400FB04201D00120F8BD0020FCE700006F
:103670004010024000200240F8B504460E461546B0
:10368000334600220321C9022046009500F02AF8A3
:10369000002805D0206E2021084320660320F8BDB5
:1036A0003346002280212046009500F099F800283A
:1036B00005D0206E2021084320660320EFE7334623
:1036C0000022032149022046009500F00BF8002853
:1036D00005D0206E2021084320660320DFE700206C
:1036E000DDE70000F0B585B004460D4616461F46DE
:1036F00000200090FDF758FC0A99401A381A0390F0
:10370000FDF752FC029020680C30019033480068AD
:1037100023214843000D03994843049056E00320B9
:103720004002854206D1002E04D101980178009113
:1037300068460078781C002848D0FDF735FC0299CF
:10374000411A0398814202D20398002837D1206899
:103750004068E021884321684860FF2105316068A6
:1037600088420ED10121C903A068884203D04911C3
:10377000A068884205D120680068402188432168FC
:10378000086001214903A06A88420DD100BF20686A
:1037900000688843216808602068006801214903A7
:1037A00008432168086000BF01215D20015500BF6A
:1037B00000215C20015500BF032005B0F0BD049836
:1037C000002800D103900498401E0490206880686F
:1037D0002840B042A3D10020EFE7000014000020F1
:1037E000FFB583B004460D461E46FDF7DDFB0C9980
:1037F000401A371AFDF7D8FB01902F4800684001A6
:10380000000D7843029049E0701C002846D0FDF777
:10381000CBFB0199401AB84201D2002F37D1206862
:103820004068E021884321684860FF2105316068D5
:1038300088420ED10121C903A068884203D04911F2
:10384000A068884205D1206800684021884321682B
:10385000086001214903A06A88420DD100BF206899
:1038600000688843216808602068006801214903D6
:1038700008432168086000BF01215D20015500BF99
:1038800000215C20015500BF032007B0F0BD029865
:10389000002800D100270298401E0290206880680E
:1038A0002840A84201D1012100E000210598814271
:1038B000AAD10020E9E70000140000203EB505462B
:1038C0000C4601940748012302AA01A9009028464A
:1038D000FEF7F2FF002801D0FF2002906846007A30
:1038E0003EBD0000FFFF0000704710B507F0C6F8AE
:1038F00010BD00B597B04C2104A8FCF7E7FC0020F0
:10390000009001900290039001204002FDF7CEFB51
:103910001020049001200B9000200C90B0200D90FE
:1039200000200F9004A8FEF75DFB002801D0FDF7F2
:10393000A2F907200090002001900290039001213D
:103940006846FEF7E1F9002801D0FDF794F917B0B9
:1039500000BD00000120C0060E4988600E480068C6
:10396000012109040840884213D10B488038006ABD
:10397000C0B2CC280DD008488038006AC0B2AA284E
:1039800007D005488038006889000843024980391B
:103990000860704700ED00E080200240F8B5044662
:1039A000606E002805D101216A200153682001536F
:1039B00022E0082708220092206880680721490633
:1039C0000840450E20688068460F0C4A915D0C4AFD
:1039D000935D009A53431846FCF7DEFB81B26A20E0
:1039E0000153064A515D064A525D7A431046FCF780
:1039F000D3FB81B268200153F8BD000023B6000854
:103A00001BB600080822816A1140082907D1016805
:103A1000496812039143826B114302685160018D22
:103A2000C907C90F002908D001684968012252045A
:103A30009143C26A1143026851600222816A1140B7
:103A4000022907D101684968D2039143026B1143EF
:103A5000026851600422816A1140042907D101687B
:103A6000496812049143426B11430268516010226D
:103A7000816A1140102907D10168896812029143B7
:103A8000C26B1143026891602022816A1140202993
:103A900007D10168896812029143026C11430268E0
:103AA00091604022816A1140402915D1016849681E
:103AB00092039143426C1143026851600122120546
:103AC000416C914208D10168496803225205914333
:103AD000826C1143026851608022816A1140802902
:103AE00007D10168496812039143C26C114302680F
:103AF00051607047F8B50446002190200151FDF750
:103B000053FA05462068006808210840082824D197
:103B100038482B46002289040090204600F020FA05
:103B200000281AD000BF00F039FB0646012000F043
:103B300074FE206800688021884321680860304650
:103B400000F06BFE00BF20218820015100BF002142
:103B50008420015500BF0320F8BD206800680421BF
:103B60000840042836D123482B460022090500903E
:103B7000204600F0F5F900282CD000BF00F00EFB25
:103B80000646012000F049FE20680068FF2121312F
:103B9000884321680860304600F03FFE00BF00BF48
:103BA00000F0FCFA0646012000F037FE206880682D
:103BB0004008400021688860304600F02EFE00BFBB
:103BC00020218C20015100BF00218420015500BF1D
:103BD0000320C1E72021882001518C2001510020C1
:103BE000E066206700BF00218420015500BF00204F
:103BF000B2E70000FFFFFF0170B50546AC6A002187
:103C00005E200153562001532046FFF740F870BD57
:103C100070B5044600BF00F0C1FA0546012000F06F
:103C2000FCFD20680068FF2121318843216808607D
:103C3000284600F0F2FD00BF00BF00F0AFFA0546D5
:103C4000012000F0EAFD20688068114908402168E1
:103C50008860284600F0E1FD00BFE06E012810D129
:103C600000BF00F09BFA0546012000F0D6FD206859
:103C700000681021884321680860284600F0CDFDC7
:103C800000BF20218C2001510020E066606770BDDC
:103C9000FEFFFFEF70B5044600BF00F07FFA054657
:103CA000012000F0BAFD20680068402188432168A7
:103CB0000860284600F0B1FD00BF20218820015196
:103CC0000020A0672046FFF7BEFB70BDF0B58DB0A9
:103CD00004460020059096492068884207D09549FF
:103CE0002068884203D094492068884200D100E0CF
:103CF00000BF2169A068084361690843E16908437E
:103D00000790206800688D4908400799084321689A
:103D1000086020684068032109038843E16808437C
:103D200021684860A06907908149206888420BD0CB
:103D300080492068884207D07F492068884203D0A4
:103D4000206A079908430790206880687C490840EA
:103D500007990843216888602068C06A000900014B
:103D6000616A08432168C86200BF764920688842BA
:103D700001D1012626E074492068884201D102263B
:103D800020E072492068884202D10126360419E0F9
:103D90006F492068884202D10126760412E0644906
:103DA0002068884201D110260CE0624920688842D0
:103DB00001D1082606E060492068884201D1042626
:103DC00000E0002600BF5A492068884207D05949C0
:103DD0002068884203D05849206888424CD1304638
:103DE000FDF752FA0746002F14D0606A4000594A86
:103DF000115A3846FCF7BAF904906068410041183E
:103E00000498814204D8606801030498814202D278
:103E10000120059080E0606A40004E49085A024641
:103E20000023019038461946FCF7CAF9FF230133F5
:103E30000022099308920A910B901A46089BFCF7FE
:103E4000EFF96268520800238018594103910290EB
:103E50006068024601900298FCF7B2F9054603211A
:103E600009028D4205D33C48854202D82068C560CE
:103E700052E0012005904FE00121C903E06988422A
:103E80002AD13046FDF700FA0746002F44D0606A79
:103E90004000304A115A3846FCF768F94000616822
:103EA0004908401803906168FCF760F90546102D39
:103EB0000FD32A4885420CD828480F38284006904E
:103EC0002807400F06990843069006982168C860A5
:103ED00022E0012005901FE03046FDF7D5F90746A6
:103EE000002F19D0606A40001A4A115A3846FCF770
:103EF0003DF961684908401803906168FCF736F99C
:103F00000546102D06D31548854203D8A8B221686E
:103F1000C86001E00120059001216A20015368205A
:103F2000015300206067A06705980DB0F0BD000048
:103F30000080004000840040008C0040F369FFCF07
:103F4000FFF4FF11003801400044004000480040E9
:103F5000004C0040FCB50008FFFF0F00FFFF000011
:103F6000FFB581B004460D4617460A9E46E0701C18
:103F7000002843D0FDF718F80499401AB04201D840
:103F8000002E02D1032005B0F0BD20680068042196
:103F90000840002832D0802D30D0402D2ED020680F
:103FA000C06908210840C00800280FD008202168F7
:103FB00008622046FFF72CFE08219020015100BF27
:103FC00000218420015500BF0120DCE72068C06982
:103FD0000121C9020840C00A00280FD00846216804
:103FE00008622046FFF714FE20219020015100BFF7
:103FF00000218420015500BF0320C4E72068C06968
:104000002840A84201D1012000E00020B842AED0F3
:104010000020B8E710B50248FEF73AFE10BD0000D8
:10402000680100200FB410B503A9044B044A02989C
:1040300000F0B6FC10BC08BC04B018471D6E0008A8
:10404000600100200FB47CB50C0009AD01D0611EE9
:1040500000E0002101910090074B6A46294608982C
:1040600000F09EFC002C02D0009A002111707CBC54
:1040700008BC04B018470000DD5000082021020CE5
:1040800001D010211046020A01D010460839020959
:1040900001D01046091F820801D01046891E42082F
:1040A00001D0881E7047081A7047F0B4040C8BB218
:1040B000264682B25E430D0C1046370C5843360438
:1040C00080190021794116466E43370C3604801959
:1040D000794126466E438919F0BC704730B4744666
:1040E000641E2578641CAB4204D3635D5B00E31857
:1040F00030BC18471D46F8E74900CA0202431000C9
:1041000000D004204A0D01D001221043044A490D79
:10411000914201D102210843012800D105207047B6
:10412000FF07000010B5002819DB1A4A03231B0201
:10413000D21883089B00D2588307DC0EFF23A340CC
:104140009A438B071B0E8407E40EA3401A43114BBE
:10415000032424021B198408A4001A5118E00E4AF3
:1041600003071B0F083B9B089B00D2588307DC0EFC
:10417000FF23A3409A438B071B0E8407E40EA34042
:104180001A43054B0407240F083CA408A4001A5145
:1041900010BD000000E100E01CED00E0EFF3108036
:1041A00070470000F7B596B014460021A160D160B9
:1041B000179909914D00CD496D088D4205DC17997D
:1041C00061602060002019B0F0BDC949C94E8D4220
:1041D00038DAD32709997F050029C74A179933464A
:1041E00017DDFCF724FAB54206D0C44AC44BFCF7ED
:1041F0001EFA6160206009E03A46C14BFCF717FAED
:10420000C04AC14BFCF713FA61602060012019B06D
:10421000F0BDFCF767F9B54206D0B84AB84BFCF7D9
:1042200061F96160206009E03A46B54BFCF75AF944
:10423000B44AB54BFCF756F9616020600020C043DA
:1042400019B0F0BDB1498D42179977DC4900490892
:104250000746AF4AAF4B0491FCF7F8F90022AE4B8A
:10426000FCF740F9FCF7B8FC0A90FCF793FCA24A73
:10427000334603910290FCF7E9F93A46049BFCF7B8
:10428000DCF906460F469D4A9D4B03990298FCF7C0
:10429000DDF92A0D01250C9232463B46FCF7CDF99B
:1042A00061602060032D39D04800410D0C98401A00
:1042B000690169181139814230DA98492801794435
:1042C00008960D90081804974368026803990298AD
:1042D000FCF7BCF902460B46079106900499089832
:1042E000FCF7A5F906460F46049B089AFCF7A5F9CA
:1042F000079B069AFCF79BF905918949049079443C
:104300000D984018C368826803990298FCF79EF9DB
:10431000059B049AFCF78BF96D1CBDE709980028F2
:1043200009DA01226068D207504060600A9819B02B
:104330004042F0BD02E00A9819B0F0BD0903012225
:10434000090B12050E9089181798109140007549B5
:10435000400D40184111C006C00E0D911390202150
:10436000081A14900020069005250790139800283D
:104370000D980CD0401982006B48784487581399E7
:104380008F40101841681498C1400F4304E0401951
:10439000810066487844475810993846FFF785FEF3
:1043A00006460A9138460E99FFF77FFE8A190A9B46
:1043B0008A4201D2012100E00021C9188C46AF00D9
:1043C000694679188B684E68C318834201D2012070
:1043D00000E0002096193618002802D0964202D933
:1043E00003E0964201D2012000E00020624612184C
:1043F0004E6068468B60C25128466D1E0028B5DCB1
:104400000121029849074018800F139002980599DE
:104410008000039E049D0B91FCF7BCFB07463046D1
:104420000891FCF7CBFB1D22D243FCF705FB109053
:104430000F912846FCF7C2FB3D22D243FCF7FCFA61
:104440000E900D910B98FCF7B9FB5D22D243FCF75F
:10445000F3FA0B910C900D9B0E9AFCF743F80F9B0F
:10446000109AFCF73FF83A46089BFCF73BF800250A
:104470000E463A462846089BFCF7D9F80F9B109A3F
:10448000FCF7D5F80D9B0E9AFCF7D1F80B9B0C9A14
:10449000FCF7D3F8264A274BFCF7D8F807460D91CE
:1044A000254A264B31462846FCF7D0F83A460D9B64
:1044B000FCF718F80F4615220C9092061D4B31465A
:1044C0002846FCF7C3F83B460C9AFCF70BF8179A02
:1044D000002A05DA139A524213920122D207514060
:1044E00061602060139819B0F0BD0000FB21E93F26
:1044F0007CD90240FB21F93F000040543163621A2D
:1045000061B4D03D7370032E8A19A33BFB2139415E
:1045100083C8C96D305FE43F0000E03F6E75000066
:104520002E7500000BFCFFFFE2740000C874000051
:10453000182D4454FB21F93D3326A611460B113C9E
:10454000F0B51FB44E00F9207608800584B00F4600
:10455000864204DA0498FCF73FFB002838D0049A1E
:104560003B4610461946FCF771F8044602462C48B3
:104570000D460B460621784400F05CF822462B4697
:10458000FCF764F8019100903946079B069A04985D
:10459000FCF75CF80746029120462946019B009AE9
:1045A000FCF754F83A46029BFCF741F80746002214
:1045B0000091D24320462946FCF73EFA194A96421A
:1045C0000ADA3A46009BFCF732F80022164B23E049
:1045D0000020154909B0F0BD144A964202DD0024BE
:1045E000134D03E001225205B51A002422462B4642
:1045F000FCF71DF80646019122462B4600200A4989
:10460000FCF715F80D4604463A463046009B0199E2
:10461000FCF70DF822462B46FCF70FF809B0F0BD69
:10462000867200003333D33F0000F03F0000E93FC3
:104630000000D23FF8B504464F1EC80008382118C4
:1046400015461E46086849683A4606239A4310D024
:104650002A463346FBF7FAFF3A46D200083AA31837
:104660001A687F1E5B68FBF73DFF06223B469343BB
:10467000EED1022F23D0042F11D0062F2FD12A469E
:104680003346FBF7E3FFE36AA26AFBF72BFF2A46F8
:104690003346FBF7DBFF636A226AFBF723FF2A46F8
:1046A0003346FBF7D3FFE369A269FBF71BFF2A46FA
:1046B0003346FBF7CBFF63692269FBF713FF2A46FA
:1046C0003346FBF7C3FFE368A268FBF70BFF2A46FC
:1046D0003346FBF7BBFF63682268FBF703FFF8BDB7
:1046E000F0B51FB4054648000C46F921400889057D
:1046F00086B088420BDA28462146FFF7FDFC0428E5
:1047000001D100F071F8284621460BB0F0BD2A46D1
:10471000234610461946FBF799FF06460F462A46E0
:104720002346FBF793FF00902548019132463B4614
:1047300005217844FFF77EFF02901098039100282E
:1047400029D0204A204B01990098FBF77FFF049065
:10475000059168460FC8FBF779FF00220191009090
:10476000D24309990898FCF767F9019B009AFBF777
:104770005EFF32463B46FBF769FF099B089AFBF751
:1047800056FF059B049AFBF752FF2A462346FBF788
:1047900054FF0BB0F0BD0B4630463946029AFBF78A
:1047A00055FF084A084BFBF79DFE019B009AFBF75B
:1047B0004DFF2A462346FBF795FE0BB0F0BD0000E7
:1047C000C2710000495555555555C5BF10B5012258
:1047D000FCF732F910BD002210B513461046114601
:1047E000FCF7B2F810BD0000034A10B50020110715
:1047F000FCF722F910BD000001FDFFFF02E008C830
:10480000121F08C1002AFAD170477047002001E04A
:1048100001C1121F002AFBD1704780F31088704736
:10482000014908607047000064010020F0B51FB422
:1048300086B00998089A030D0021024314D051480C
:10484000514A1818504305141198012810981AD08D
:10485000281A401C00264D4F4D49009601910490A6
:10486000002812DA444211E01198012449A30128DA
:1048700001D11098C1430698119A84600360C26008
:1048800041600BB0F0BD4042E4E704462105002042
:104890003F4A001C51410391029012E0E00707D00B
:1048A00032463B4601990098FBF7D0FE01910090FB
:1048B00032463B4610461946FBF7C8FE06460F46F1
:1048C0006410002CEAD10498039B0028029A0999ED
:1048D000089806DAFBF7BAFE019B009AFBF7B6FED2
:1048E00005E0FCF731F8019B009AFCF72DF804462F
:1048F0000E460022284BFCF727F903D80020C043BE
:10490000014607E00022254B20463146FBF7EAFD31
:10491000FCF7FAF8102409E0002C0ADB0A22002335
:10492000FBF74EFC079B30321A55641E02460A43C1
:10493000F2D11122641C079B121B1C19119B012B25
:1049400003D0012308430ED10AE0084304D011200C
:1049500010900020119077E71098151A6D1E0BE04B
:104960001098824202DD00236D1C03E0824201DACE
:1049700000236D1E002BEED0069811998260C16055
:1049800030C07EE701FCFFFF104D00000000144026
:104990000000F03F300000000000F0430000E03F66
:1049A000FFB597B0064600251BE2252876D10024E6
:1049B0002746F749049400E00443761C327801202E
:1049C000203A90400842F7D130782A280ED00222AF
:1049D000307801463039092916D804990A235943F9
:1049E000303940181443761C0490F1E7189802C837
:1049F00004911890002904DA01204003044348423E
:104A0000049002200443761C30782E2814D1042010
:104A100004437078761C2A2809D11898761C80C81F
:104A2000189009E00A214F43303FC719761C3078AF
:104A3000014630390929F5D930786C2810D006DCC8
:104A40004C281AD068280ED06A2817D104E07428A0
:104A500013D07A2812D110E00120400504430CE065
:104A60000121090501E0032109050C437178814208
:104A700003D1012000052418761C761C30786628A6
:104A80000BD013DC58287DD009DC00287BD04528CA
:104A9000F6D04628F4D047281AD1A9E118E06328B7
:104AA00035D0642870D0652812D1A1E170286CD06F
:104AB00008DC6728F1D069287DD06E280DD06F28DA
:104AC00006D1BCE073282ED0752873D0782859D031
:104AD0001A9A199990476D1C82E16002400F0228D2
:104AE00009D003280DD00428189801680DD00D6056
:104AF000001D189074E11898EA1701680D604A606B
:104B0000F6E7189801680D80F2E70D70F0E7189845
:104B10006A4601781172001D18900020507202A898
:104B20000090012005E0189802C81890002000911C
:104B3000C04361070ED5002101E00199491C019194
:104B4000B94213DA8142F8DB019A0099895C0029A5
:104B5000F3D10BE0002101E00199491C0191814250
:104B6000FADB019A0099895C0029F5D10199049832
:104B70001A9B471A21463846199A00F099FA4019AB
:104B8000019903E051E030E115E050E0451807E0FD
:104B9000009800990078491C00911A9A1999904739
:104BA0000198401E0190401CF2D1214638461A9BC4
:104BB000199A12E137E00A20002100900191600269
:104BC000410F022907D0189A01CA1892C2179446B9
:104BD000032908D00AE01898C01DC108C90005C9FA
:104BE0001891944607E000B2C2179446042902D1F6
:104BF00040B2C1178C4600226146944506DA0A4647
:104C00000021404291418C462D2102E0210504D52E
:104C10002B216A461173012103E0E10701D0202115
:104C2000F7E7029156E00A200AE0102008E0102081
:104C300000900021042004430191082703E008208C
:104C40000021019100906002410F022907D0189ABB
:104C500001CA189200229446032908D008E0189847
:104C6000C01DC108C90005C91891944603E080B26F
:104C7000042900D1C0B20021029121072AD5317840
:104C80000D91702906D0009A1021019B4A401A43C9
:104C900005D00EE040216A461173012108E061460B
:104CA000014306D030216A4611730D9951730221D8
:104CB0000291009A0821019B4A401A430AD1614699
:104CC000014301D1610705D530216A4611730121E5
:104CD0007F1E02913178582904D02EA10E910DA982
:104CE0000D910DE030A1F9E76146019B009AFBF7B9
:104CF00067FA0E9B8C469B5C0D9A521E0D921370A8
:104D000061460143F0D10D9805A9081A20300190A1
:104D1000600703D501200004844300E001270198C7
:104D2000874201DD381A00E0002001990090411807
:104D3000029809180498401A0490E00306D421460A
:104D40001A9B199A049800F0B3F94519002706E058
:104D500003A81A9AC05D199990476D1C7F1C029890
:104D60008742F5DBE0030CD521461A9B199A04987B
:104D700000F09EF9451904E01A9A302019999047DD
:104D80006D1C0099481E00900029F5DC1FE0000012
:104D90000928010030313233343536373839616211
:104DA00063646566000000003031323334353637D5
:104DB0003839414243444546000000000D980D99A2
:104DC0000078491C0D911A9A199990476D1C019908
:104DD000481E01900029F1DC4DE100F059F9451918
:104DE000761C3078002800D0DFE528461BB0F0BDE7
:104DF000600700D406271898C01DC108C90048687C
:104E00000A680831C30FDB071891190001D09CA173
:104E100008E0210501D59BA104E0E10701D09AA19A
:104E200000E09AA14300109130785B0865280CD00F
:104E300006DC452809D046281DD0472841D141E04D
:104E4000662818D067283CD13CE00021112F01DBF7
:104E5000112000E0781C0191009008A911A8FFF72B
:104E6000E5FC139905910021119A15927F1C129867
:104E70000197009150E00120C007039001200190AC
:104E800008A9009711A8FFF7D1FC139A149905926D
:104E90000022119B009212981593059A0192002905
:104EA00001D0104602E0791C40180190381A01D553
:104EB000019804E04042401E0090781C0190C01B05
:104EC000029043E0012F00DA01270021112F01DDBC
:104ED000112000E038460191009008A911A8FFF7C1
:104EE000A5FC13990591119A002112981592009131
:104EF000019721070CD40599B94201DB019900E023
:104F00000191012904DD159A491E515C302906D012
:104F1000B84201DA011D05DA0121029115E001997B
:104F2000491EEDE7002805DC009941180091019920
:104F3000091A03E0019A411C914200DD0191009998
:104F4000401A401C02900120C0070390200706D49D
:104F500002990198814202DB0020C04302900020A8
:104F60006946C87707AF012103980337C90788420C
:104F700024D0022011902B201290039800280CDAE4
:104F8000404203902D20129007E00A210398FBF77E
:104F9000EDF830317F1E039039701199481E119041
:104FA0000029F2DC03980028EFD1791E12980870CE
:104FB0003078202108404530BF1E387006A8C01B3D
:104FC000C01D039010980078002800D0012001999E
:104FD00041180298C0170918039809180498401A34
:104FE000401E0490E00306D421461A9B199A0498A7
:104FF00000F05EF8451910980078002803D01A9A3E
:10500000199990476D1CE00324D521461A9B199AE3
:10501000049800F04DF845191CE00098002807DBC3
:1050200000990598884203DD1598405C199901E0C4
:10503000199930201A9A904700986D1C401C0090D6
:105040000298401E0290002804D11A9A2E20199925
:1050500090476D1C0199481E01900029DDDC05E098
:1050600038781A9A7F1C199990476D1C0399481E2D
:1050700003900029F4DC21461A9B199A0498ACE6A7
:105080002D0000002B0000002000000000000000A8
:10509000F8B5044600251E461746880404D405E0EA
:1050A00039462020B0476D1C641EF9D52846F8BD4E
:1050B000FFB50446002581B01E46C80301D5302740
:1050C00000E02027880404D505E038460399B0475E
:1050D0006D1C641EF9D5284605B0F0BD4A68002A4B
:1050E00006D00A68531C0B6010704868401E486068
:1050F000704700001CB50548022100238022009162
:10510000019003A1054805F01DFF1CBD0000002013
:105110006170705F7461736B0000000021510008C2
:1051200000BF012005F056FAFBE70000F0B5044689
:105130004F008E488FB07F080D460D91874228DBC7
:105140004042381820430CD08948874203DC87420C
:1051500018D1002C16D020462946FFF737FB0FB098
:10516000F0BD844A844B20462946FBF76FFA074678
:105170000E46824A824B20462946FBF767FA3A469A
:10518000334649E00120FFF74BFBFFF724FB0FB04C
:10519000F0BD7C48874243DAF920800587420BDA6C
:1051A00020462946FEF7A8FF042801D1FFF71CFB83
:1051B000204629460FB0F0BD22462B461046294610
:1051C000FBF744FA064602466F480F460B46062197
:1051D0007844FFF72FFA32463B46FBF737FA069042
:1051E0006A48079132463B4604217844FFF722FA89
:1051F00032463B46FBF72AFA00225C4BFBF772F97A
:1052000002460B4607990698FBF79EFB22462B4663
:10521000FBF71CFA22462B46FBF764F90FB0F0BDF2
:105220002046524C6900490800222346FBF705FA44
:105230000022D243FBF700FC0546024654480E46C6
:105240000B4606217844FFF7F5F92A463346FBF76B
:10525000FDF906904F4807912A46334604217844C9
:10526000FFF7E8F92A463346FBF7F0F90022234618
:10527000FBF738F9059104902846314604F048FFC1
:10528000089045480C46874219DB059B049A07990C
:105290000698FBF759FB02460B4621460898FBF798
:1052A000D5F92346089AFBF71DF90122FBF7C4FB49
:1052B000304A314BFBF7BBF9304A314B4AE000270B
:1052C0003A460B460898FBF70DF93A4623460A91F1
:1052D0000E9010461946FBF7B9F92A463346FBF7FC
:1052E000ACF90A9B0E9AFBF72FFB05460E46059B71
:1052F000049A07990698FBF727FB00910490012276
:1053000028463146FBF798FB1A4A1B4BFBF795F9E9
:105310000E460546012221460898FBF78DFB009BAF
:10532000049AFBF793F92A463346FBF780F90546C2
:105330000E46012238462146FBF77EFB0F4C174FE5
:1053400022463B46FBF779F92A463346FBF775F9C7
:1053500022463B46FBF771F90D9A002A00DD5DE716
:105360000122D20751400FB0F0BD00000000F03F15
:105370000000F07F075C143326A6913C182D44549E
:10538000FB21F93F0000E03FDC650000F265000012
:10539000686500007E6500003333EF3FFB21E93F85
:1053A000F0B585B004462D4B2D4A2E49032000F060
:1053B000EDF804902B490020085EFBF7AFF9009050
:1053C000294801680098FBF74FF805462549022057
:1053D000085EFBF7A3F90090234801680098FBF7EB
:1053E00043F806461F490420085EFBF797F9009032
:1053F0001D4801680098FBF737F807461849002058
:10540000085EFBF78BF90090184801680098FBF7DD
:105410002BF8039012490220085EFBF77FF90090F9
:10542000124801680098FBF71FF802900C4904200D
:10543000085EFBF773F900900C4801680098FBF7D1
:1054400013F8019025606660A7600398E0600298F9
:10545000206101986061049805B0F0BD48540020B7
:105460008054002074540020540100205801002072
:10547000F0B587B005460E46304602F033F8069088
:105480000698002803D00020C043069056E033461B
:10549000072204A9712000F054F806906846007CA9
:1054A00040B228706846407C40B268706846807C94
:1054B00040B2A8706846C77C807D8007800F03904B
:1054C0000398800300B20290B801019001990298FC
:1054D000084304462046E117890E09188911A9805E
:1054E0006846077D807D0C21084080080390039862
:1054F000800300B20290B80101900199029808431C
:1055000004462046E117890E09188911E98068468A
:10551000477D807D30210840000903900398800377
:1055200000B20290B8010190019902980843044624
:105530002046E117890E091889112981069807B0BC
:10554000F0BDFFB581B0054616461C460020009010
:10555000002C02D0E069002803D10020C043009055
:1055600011E0002E03D10B20C04300900BE0A07887
:10557000012801D18020054360783346E769294638
:10558000029AB8470090009805B0F0BDFFB583B00F
:105590000D4614461E4600200290009003984707CF
:1055A0007F0F0420384080080190BF07BF0F01988B
:1055B000002801D003200090002E33D0012F04D00A
:1055C000022F0ED0032F28D117E0002D02D1681E24
:1055D000029005E032462946009801F02DFC029029
:1055E0001FE0002C02D1601E029005E032462146E9
:1055F000009801F0B7FD029013E0002C01D0002DBF
:1056000003D10020C043029006E0334622462946DB
:10561000009801F07EFC029003E00420C043029059
:1056200000BF02E00020C0430290029807B0F0BD26
:10563000F8B504460326204601F054FF0546002D28
:1056400009D1A078012806D12346012269467F208E
:10565000FFF777FF0546002D1FD10020207006E0E0
:105660002346012221460020FFF76BFF0546304606
:10567000711ECEB2002802D02078D128F0D1002DA2
:1056800009D12078D12806D1681EE070204600F0AC
:1056900023F9054601E00225ED432846F8BD000048
:1056A000F0B58DB00E4617461C4634216846FAF711
:1056B0000DFE0025FF2221466846FAF700FE6846E7
:1056C00006700022102105200007FBF767FC314619
:1056D0000B48FEF7F3F800BF06E0FF210848FEF78D
:1056E000EDF87855681CC5B2A542F6DB0122102101
:1056F00005200007FBF752FC00200DB0F0BD0000B4
:10570000FC01002070B504460D46002660780300B9
:10571000FEF7E4FC0E080E211A1B272D3933143F27
:10572000454B51572946204602F0F4FD064649E014
:105730002946204602F05CFF064643E02946204603
:1057400002F0E1FE06463DE000BF2946204602F099
:105750009AFF064636E02946204602F068FF0646D4
:1057600030E02946204602F0EDFE06462AE02946B2
:10577000204602F014FE064624E02946204602F0A8
:105780008FFE06461EE02946204602F056FE0646DB
:1057900018E02946204602F02EFE064612E0294671
:1057A000204602F0DDFF06460CE02946204602F0C6
:1057B000F8FF064606E02946204603F068F806464C
:1057C00000E000BF00BF304670BD70B50446002544
:1057D000002C02D0606A002802D10025ED4309E0C8
:1057E000204602F0DBFE0546002D03D1204603F0E3
:1057F0001FF80546284670BDFFB583B0054616461E
:105800001C46002002900190002C02D0206A002843
:1058100003D10020C043029038E0002E03D10B20BA
:10582000C043029032E0A078012801D16D066D0ED0
:10583000207A112802D0207C15280AD160783346BE
:10584000276A2946049AB84702900120616A88476E
:1058500016E012E001990498421860780090012344
:105860002946276AB8470290681CC5B20120616AC0
:1058700088470198401CC0B201900198B042E9DB12
:105880000298002802D00120C0430290029807B07D
:10589000F0BD70B505460024002D02D0686A0028CE
:1058A00002D10024E44315E0284602F052FD0446EC
:1058B000002C0FD1284602F095FF0446002C09D198
:1058C0002846FFF782FF0446002C03D1284600F04B
:1058D0002DFB0446204670BD38B50446B620009026
:1058E000002C02D0606A002802D10025ED431AE0A6
:1058F0002346012269467E20FFF77EFF05460120F0
:10590000616A8847002D09D1A078012806D1234675
:10591000012269467F20FFF714FE0546002D02D1C3
:10592000204600F0DCFF284638BDF8B504460F4697
:105930001646304601F0D6FD0546002D02D0002562
:10594000ED4344E03146204600F097FF0546002D28
:105950003DD13346012269466920FFF7F2FD054635
:10596000684600784021884321788901402211400F
:10597000014300916846007830218843617809012D
:105980003022114001430091684600780C21884381
:10599000A17889000C2211400143009168460078EB
:1059A00080088000E1788907890F08430090002D66
:1059B0000DD13346012269466920FFF71DFF0546D8
:1059C000002D04D13146384604F010FC0546284627
:1059D000F8BD00008EB002F07DFE02F09DFE01F0E9
:1059E0004DFB01F075FB0020F149487001208870E3
:1059F000F048C861F0480862F048486220200885F5
:105A00000846FFF769FF0446E948416AC82088470D
:105A1000E748FFF70DFE044600200C900B90012094
:105A20000A90E34B0BA90A9A0C98FFF78AFD0446EB
:105A30000B21DF484171416A64208847E0480178C2
:105A4000DB488171416A642088471120D849087178
:105A50000846416A642088470221D548C171416ADD
:105A6000642088470B21D2484173416A64208847EB
:105A7000D4480178CE488173416A64208847152054
:105A8000CB4908730846416A642088470221C84808
:105A9000C173416A64208847C548FFF7FAFE04468F
:105AA00004F05AFB04460120C74908700A204870D8
:105AB0000846408840084000401C4880084640880E
:105AC00002218843C0494880084640880421884311
:105AD000BD49488008464088082188430830BA49B3
